{"contracts/trustforge.sol":{"TrustForge":{"abi":[{"inputs":[{"internalType":"address","name":"_lendingToken","type":"address"}],"stateMutability":"nonpayable","type":"constructor"},{"inputs":[],"name":"EnforcedPause","type":"error"},{"inputs":[],"name":"ExpectedPause","type":"error"},{"inputs":[{"internalType":"address","name":"owner","type":"address"}],"name":"OwnableInvalidOwner","type":"error"},{"inputs":[{"internalType":"address","name":"account","type":"address"}],"name":"OwnableUnauthorizedAccount","type":"error"},{"inputs":[],"name":"ReentrancyGuardReentrantCall","type":"error"},{"anonymous":false,"inputs":[{"indexed":true,"internalType":"address","name":"token","type":"address"},{"indexed":false,"internalType":"uint256","name":"amount","type":"uint256"}],"name":"EmergencyWithdraw","type":"event"},{"anonymous":false,"inputs":[{"indexed":true,"internalType":"address","name":"lender","type":"address"},{"indexed":false,"internalType":"uint256","name":"amount","type":"uint256"}],"name":"InterestClaimed","type":"event"},{"anonymous":false,"inputs":[{"indexed":false,"internalType":"uint256","name":"totalAmount","type":"uint256"},{"indexed":false,"internalType":"enum TrustForge.RiskPool","name":"pool","type":"uint8"}],"name":"InterestDistributed","type":"event"},{"anonymous":false,"inputs":[{"indexed":true,"internalType":"address","name":"lender","type":"address"},{"indexed":false,"internalType":"uint256","name":"amount","type":"uint256"},{"indexed":false,"internalType":"enum TrustForge.RiskPool","name":"pool","type":"uint8"}],"name":"LenderDeposited","type":"event"},{"anonymous":false,"inputs":[{"indexed":true,"internalType":"address","name":"lender","type":"address"},{"indexed":false,"internalType":"uint256","name":"amount","type":"uint256"},{"indexed":false,"internalType":"enum TrustForge.RiskPool","name":"pool","type":"uint8"}],"name":"LenderWithdrew","type":"event"},{"anonymous":false,"inputs":[{"indexed":true,"internalType":"address","name":"borrower","type":"address"},{"indexed":false,"internalType":"uint256","name":"lostAmount","type":"uint256"},{"indexed":false,"internalType":"enum TrustForge.RiskPool","name":"pool","type":"uint8"}],"name":"LoanDefaulted","type":"event"},{"anonymous":false,"inputs":[{"indexed":true,"internalType":"address","name":"borrower","type":"address"},{"indexed":false,"internalType":"uint256","name":"principal","type":"uint256"},{"indexed":false,"internalType":"uint256","name":"interest","type":"uint256"},{"indexed":false,"internalType":"uint256","name":"dueDate","type":"uint256"},{"indexed":false,"internalType":"uint256","name":"duration","type":"uint256"},{"indexed":false,"internalType":"enum TrustForge.RiskPool","name":"pool","type":"uint8"}],"name":"LoanIssued","type":"event"},{"anonymous":false,"inputs":[{"indexed":true,"internalType":"address","name":"borrower","type":"address"},{"indexed":false,"internalType":"uint256","name":"principal","type":"uint256"},{"indexed":false,"internalType":"uint256","name":"interest","type":"uint256"},{"indexed":false,"internalType":"uint256","name":"totalRepayment","type":"uint256"}],"name":"LoanRepaid","type":"event"},{"anonymous":false,"inputs":[{"indexed":true,"internalType":"address","name":"borrower","type":"address"},{"indexed":false,"internalType":"string","name":"username","type":"string"},{"indexed":false,"internalType":"uint256","name":"amount","type":"uint256"},{"indexed":false,"internalType":"uint256","name":"duration","type":"uint256"},{"indexed":false,"internalType":"enum TrustForge.RiskPool","name":"pool","type":"uint8"}],"name":"LoanRequested","type":"event"},{"anonymous":false,"inputs":[{"indexed":true,"internalType":"address","name":"previousOwner","type":"address"},{"indexed":true,"internalType":"address","name":"newOwner","type":"address"}],"name":"OwnershipTransferred","type":"event"},{"anonymous":false,"inputs":[{"indexed":false,"internalType":"string","name":"parameter","type":"string"},{"indexed":false,"internalType":"uint256","name":"oldValue","type":"uint256"},{"indexed":false,"internalType":"uint256","name":"newValue","type":"uint256"}],"name":"ParameterUpdated","type":"event"},{"anonymous":false,"inputs":[{"indexed":false,"internalType":"address","name":"account","type":"address"}],"name":"Paused","type":"event"},{"anonymous":false,"inputs":[{"indexed":true,"internalType":"address","name":"user","type":"address"},{"indexed":false,"internalType":"uint256","name":"oldScore","type":"uint256"},{"indexed":false,"internalType":"uint256","name":"newScore","type":"uint256"}],"name":"ReputationDecayed","type":"event"},{"anonymous":false,"inputs":[{"indexed":true,"internalType":"address","name":"user","type":"address"},{"indexed":false,"internalType":"uint256","name":"oldScore","type":"uint256"},{"indexed":false,"internalType":"uint256","name":"newScore","type":"uint256"},{"indexed":false,"internalType":"string","name":"reason","type":"string"}],"name":"TrustUpdated","type":"event"},{"anonymous":false,"inputs":[{"indexed":false,"internalType":"address","name":"account","type":"address"}],"name":"Unpaused","type":"event"},{"anonymous":false,"inputs":[{"indexed":true,"internalType":"address","name":"user","type":"address"},{"indexed":false,"internalType":"string","name":"username","type":"string"}],"name":"UsernameRegistered","type":"event"},{"anonymous":false,"inputs":[{"indexed":true,"internalType":"address","name":"voucher","type":"address"},{"indexed":true,"internalType":"address","name":"vouchee","type":"address"},{"indexed":false,"internalType":"string","name":"voucherName","type":"string"},{"indexed":false,"internalType":"string","name":"voucheeName","type":"string"}],"name":"VouchCreated","type":"event"},{"anonymous":false,"inputs":[{"indexed":true,"internalType":"address","name":"voucher","type":"address"},{"indexed":true,"internalType":"address","name":"defaulter","type":"address"},{"indexed":false,"internalType":"uint256","name":"trustLost","type":"uint256"}],"name":"VoucherPenalized","type":"event"},{"anonymous":false,"inputs":[{"indexed":true,"internalType":"address","name":"user","type":"address"},{"indexed":false,"internalType":"uint256","name":"maturityLevel","type":"uint256"},{"indexed":false,"internalType":"uint256","name":"walletAge","type":"uint256"}],"name":"WalletMaturityEvaluated","type":"event"},{"inputs":[],"name":"BASE_INTEREST_RATE_HIGH","outputs":[{"internalType":"uint256","name":"","type":"uint256"}],"stateMutability":"view","type":"function"},{"inputs":[],"name":"BASE_INTEREST_RATE_LOW","outputs":[{"internalType":"uint256","name":"","type":"uint256"}],"stateMutability":"view","type":"function"},{"inputs":[],"name":"BASE_INTEREST_RATE_MED","outputs":[{"internalType":"uint256","name":"","type":"uint256"}],"stateMutability":"view","type":"function"},{"inputs":[],"name":"DEFAULT_COOLDOWN_PERIOD","outputs":[{"internalType":"uint256","name":"","type":"uint256"}],"stateMutability":"view","type":"function"},{"inputs":[],"name":"GRACE_PERIOD","outputs":[{"internalType":"uint256","name":"","type":"uint256"}],"stateMutability":"view","type":"function"},{"inputs":[],"name":"HIGH_TRUST_LIMIT","outputs":[{"internalType":"uint256","name":"","type":"uint256"}],"stateMutability":"view","type":"function"},{"inputs":[],"name":"INITIAL_TRUST_SCORE","outputs":[{"internalType":"uint256","name":"","type":"uint256"}],"stateMutability":"view","type":"function"},{"inputs":[],"name":"LOW_RISK_THRESHOLD","outputs":[{"internalType":"uint256","name":"","type":"uint256"}],"stateMutability":"view","type":"function"},{"inputs":[],"name":"LOW_TRUST_LIMIT","outputs":[{"internalType":"uint256","name":"","type":"uint256"}],"stateMutability":"view","type":"function"},{"inputs":[],"name":"MATURITY_LEVEL_1","outputs":[{"internalType":"uint256","name":"","type":"uint256"}],"stateMutability":"view","type":"function"},{"inputs":[],"name":"MATURITY_LEVEL_2","outputs":[{"internalType":"uint256","name":"","type":"uint256"}],"stateMutability":"view","type":"function"},{"inputs":[],"name":"MATURITY_LEVEL_3","outputs":[{"internalType":"uint256","name":"","type":"uint256"}],"stateMutability":"view","type":"function"},{"inputs":[],"name":"MAX_INTEREST_RATE_HIGH","outputs":[{"internalType":"uint256","name":"","type":"uint256"}],"stateMutability":"view","type":"function"},{"inputs":[],"name":"MAX_INTEREST_RATE_LOW","outputs":[{"internalType":"uint256","name":"","type":"uint256"}],"stateMutability":"view","type":"function"},{"inputs":[],"name":"MAX_INTEREST_RATE_MED","outputs":[{"internalType":"uint256","name":"","type":"uint256"}],"stateMutability":"view","type":"function"},{"inputs":[],"name":"MAX_LOAN_DURATION","outputs":[{"internalType":"uint256","name":"","type":"uint256"}],"stateMutability":"view","type":"function"},{"inputs":[],"name":"MAX_TRUST_SCORE","outputs":[{"internalType":"uint256","name":"","type":"uint256"}],"stateMutability":"view","type":"function"},{"inputs":[],"name":"MAX_VOUCHES_PER_USER","outputs":[{"internalType":"uint256","name":"","type":"uint256"}],"stateMutability":"view","type":"function"},{"inputs":[],"name":"MEDIUM_RISK_THRESHOLD","outputs":[{"internalType":"uint256","name":"","type":"uint256"}],"stateMutability":"view","type":"function"},{"inputs":[],"name":"MED_TRUST_LIMIT","outputs":[{"internalType":"uint256","name":"","type":"uint256"}],"stateMutability":"view","type":"function"},{"inputs":[],"name":"MIN_LOAN_AMOUNT","outputs":[{"internalType":"uint256","name":"","type":"uint256"}],"stateMutability":"view","type":"function"},{"inputs":[],"name":"MIN_LOAN_DURATION","outputs":[{"internalType":"uint256","name":"","type":"uint256"}],"stateMutability":"view","type":"function"},{"inputs":[],"name":"POOL_SAFETY_BUFFER","outputs":[{"internalType":"uint256","name":"","type":"uint256"}],"stateMutability":"view","type":"function"},{"inputs":[],"name":"REPUTATION_DECAY_AMOUNT","outputs":[{"internalType":"uint256","name":"","type":"uint256"}],"stateMutability":"view","type":"function"},{"inputs":[],"name":"REPUTATION_DECAY_PERIOD","outputs":[{"internalType":"uint256","name":"","type":"uint256"}],"stateMutability":"view","type":"function"},{"inputs":[],"name":"TRUST_DECREASE_ON_DEFAULT","outputs":[{"internalType":"uint256","name":"","type":"uint256"}],"stateMutability":"view","type":"function"},{"inputs":[],"name":"TRUST_INCREASE_PER_REPAYMENT","outputs":[{"internalType":"uint256","name":"","type":"uint256"}],"stateMutability":"view","type":"function"},{"inputs":[],"name":"VOUCH_PENALTY_ON_DEFAULT","outputs":[{"internalType":"uint256","name":"","type":"uint256"}],"stateMutability":"view","type":"function"},{"inputs":[{"internalType":"address","name":"","type":"address"}],"name":"activeLoans","outputs":[{"internalType":"address","name":"borrower","type":"address"},{"internalType":"uint256","name":"principal","type":"uint256"},{"internalType":"uint256","name":"interestAmount","type":"uint256"},{"internalType":"uint256","name":"totalRepayment","type":"uint256"},{"internalType":"uint256","name":"startTime","type":"uint256"},{"internalType":"uint256","name":"dueDate","type":"uint256"},{"internalType":"uint256","name":"duration","type":"uint256"},{"internalType":"enum TrustForge.LoanStatus","name":"status","type":"uint8"},{"internalType":"enum TrustForge.RiskPool","name":"riskPool","type":"uint8"}],"stateMutability":"view","type":"function"},{"inputs":[],"name":"claimInterest","outputs":[],"stateMutability":"nonpayable","type":"function"},{"inputs":[{"internalType":"uint256","name":"amount","type":"uint256"},{"internalType":"enum TrustForge.RiskPool","name":"pool","type":"uint8"}],"name":"depositToPool","outputs":[],"stateMutability":"nonpayable","type":"function"},{"inputs":[{"internalType":"address","name":"token","type":"address"},{"internalType":"uint256","name":"amount","type":"uint256"}],"name":"emergencyWithdraw","outputs":[],"stateMutability":"nonpayable","type":"function"},{"inputs":[{"internalType":"address","name":"borrower","type":"address"}],"name":"getActiveLoan","outputs":[{"internalType":"uint256","name":"principal","type":"uint256"},{"internalType":"uint256","name":"interestAmount","type":"uint256"},{"internalType":"uint256","name":"totalRepayment","type":"uint256"},{"internalType":"uint256","name":"dueDate","type":"uint256"},{"internalType":"uint256","name":"duration","type":"uint256"},{"internalType":"enum TrustForge.LoanStatus","name":"status","type":"uint8"},{"internalType":"enum TrustForge.RiskPool","name":"pool","type":"uint8"},{"internalType":"bool","name":"isOverdue","type":"bool"}],"stateMutability":"view","type":"function"},{"inputs":[{"internalType":"string","name":"username","type":"string"}],"name":"getAddressByUsername","outputs":[{"internalType":"address","name":"","type":"address"}],"stateMutability":"view","type":"function"},{"inputs":[],"name":"getAllPoolStats","outputs":[{"components":[{"internalType":"uint256","name":"totalLiquidity","type":"uint256"},{"internalType":"uint256","name":"totalActiveLoans","type":"uint256"},{"internalType":"uint256","name":"totalDefaulted","type":"uint256"},{"internalType":"uint256","name":"totalInterestPool","type":"uint256"},{"internalType":"uint256","name":"totalLenderDeposits","type":"uint256"}],"internalType":"struct TrustForge.PoolStats","name":"lowRisk","type":"tuple"},{"components":[{"internalType":"uint256","name":"totalLiquidity","type":"uint256"},{"internalType":"uint256","name":"totalActiveLoans","type":"uint256"},{"internalType":"uint256","name":"totalDefaulted","type":"uint256"},{"internalType":"uint256","name":"totalInterestPool","type":"uint256"},{"internalType":"uint256","name":"totalLenderDeposits","type":"uint256"}],"internalType":"struct TrustForge.PoolStats","name":"medRisk","type":"tuple"},{"components":[{"internalType":"uint256","name":"totalLiquidity","type":"uint256"},{"internalType":"uint256","name":"totalActiveLoans","type":"uint256"},{"internalType":"uint256","name":"totalDefaulted","type":"uint256"},{"internalType":"uint256","name":"totalInterestPool","type":"uint256"},{"internalType":"uint256","name":"totalLenderDeposits","type":"uint256"}],"internalType":"struct TrustForge.PoolStats","name":"highRisk","type":"tuple"}],"stateMutability":"view","type":"function"},{"inputs":[{"internalType":"address","name":"lender","type":"address"}],"name":"getLenderInfo","outputs":[{"internalType":"uint256","name":"depositedLowRisk","type":"uint256"},{"internalType":"uint256","name":"depositedMedRisk","type":"uint256"},{"internalType":"uint256","name":"depositedHighRisk","type":"uint256"},{"internalType":"uint256","name":"totalInterestEarned","type":"uint256"},{"internalType":"uint256","name":"pendingInterestLow","type":"uint256"},{"internalType":"uint256","name":"pendingInterestMed","type":"uint256"},{"internalType":"uint256","name":"pendingInterestHigh","type":"uint256"}],"stateMutability":"view","type":"function"},{"inputs":[{"internalType":"address","name":"user","type":"address"}],"name":"getLoanHistory","outputs":[{"components":[{"internalType":"address","name":"borrower","type":"address"},{"internalType":"uint256","name":"principal","type":"uint256"},{"internalType":"uint256","name":"interestAmount","type":"uint256"},{"internalType":"uint256","name":"totalRepayment","type":"uint256"},{"internalType":"uint256","name":"startTime","type":"uint256"},{"internalType":"uint256","name":"dueDate","type":"uint256"},{"internalType":"uint256","name":"duration","type":"uint256"},{"internalType":"enum TrustForge.LoanStatus","name":"status","type":"uint8"},{"internalType":"enum TrustForge.RiskPool","name":"riskPool","type":"uint8"}],"internalType":"struct TrustForge.Loan[]","name":"","type":"tuple[]"}],"stateMutability":"view","type":"function"},{"inputs":[{"internalType":"enum TrustForge.RiskPool","name":"pool","type":"uint8"}],"name":"getPoolStatsForRisk","outputs":[{"internalType":"uint256","name":"totalLiquidity","type":"uint256"},{"internalType":"uint256","name":"totalActiveLoanAmount","type":"uint256"},{"internalType":"uint256","name":"availableLiquidity","type":"uint256"},{"internalType":"uint256","name":"utilizationRate","type":"uint256"},{"internalType":"uint256","name":"interestPool","type":"uint256"},{"internalType":"uint256","name":"totalDefaulted","type":"uint256"}],"stateMutability":"view","type":"function"},{"inputs":[{"internalType":"address","name":"user","type":"address"}],"name":"getUserProfile","outputs":[{"internalType":"string","name":"username","type":"string"},{"internalType":"uint256","name":"trustScore","type":"uint256"},{"internalType":"uint256","name":"totalLoansTaken","type":"uint256"},{"internalType":"uint256","name":"successfulRepayments","type":"uint256"},{"internalType":"uint256","name":"defaults","type":"uint256"},{"internalType":"bool","name":"hasActiveLoan","type":"bool"},{"internalType":"uint256","name":"walletAge","type":"uint256"},{"internalType":"uint256","name":"maturityLevel","type":"uint256"},{"internalType":"uint256","name":"maxBorrowingLimit","type":"uint256"},{"internalType":"enum TrustForge.RiskPool","name":"assignedPool","type":"uint8"}],"stateMutability":"view","type":"function"},{"inputs":[{"internalType":"address","name":"user","type":"address"}],"name":"getUserVouches","outputs":[{"internalType":"address[]","name":"","type":"address[]"}],"stateMutability":"view","type":"function"},{"inputs":[{"internalType":"address","name":"user","type":"address"}],"name":"getVouchesGiven","outputs":[{"internalType":"address[]","name":"","type":"address[]"}],"stateMutability":"view","type":"function"},{"inputs":[{"internalType":"address","name":"wallet","type":"address"}],"name":"getWalletMaturity","outputs":[{"components":[{"internalType":"uint256","name":"age","type":"uint256"},{"internalType":"uint256","name":"maturityLevel","type":"uint256"},{"internalType":"uint256","name":"maturityMultiplier","type":"uint256"}],"internalType":"struct TrustForge.WalletMaturity","name":"","type":"tuple"}],"stateMutability":"view","type":"function"},{"inputs":[{"internalType":"address","name":"","type":"address"}],"name":"hasUsername","outputs":[{"internalType":"bool","name":"","type":"bool"}],"stateMutability":"view","type":"function"},{"inputs":[{"internalType":"address","name":"","type":"address"}],"name":"lenders","outputs":[{"internalType":"uint256","name":"depositedLowRisk","type":"uint256"},{"internalType":"uint256","name":"depositedMedRisk","type":"uint256"},{"internalType":"uint256","name":"depositedHighRisk","type":"uint256"},{"internalType":"uint256","name":"totalInterestEarned","type":"uint256"},{"internalType":"uint256","name":"lastClaimTime","type":"uint256"}],"stateMutability":"view","type":"function"},{"inputs":[],"name":"lendingToken","outputs":[{"internalType":"contract IERC20","name":"","type":"address"}],"stateMutability":"view","type":"function"},{"inputs":[{"internalType":"address","name":"","type":"address"},{"internalType":"uint256","name":"","type":"uint256"}],"name":"loanHistory","outputs":[{"internalType":"address","name":"borrower","type":"address"},{"internalType":"uint256","name":"principal","type":"uint256"},{"internalType":"uint256","name":"interestAmount","type":"uint256"},{"internalType":"uint256","name":"totalRepayment","type":"uint256"},{"internalType":"uint256","name":"startTime","type":"uint256"},{"internalType":"uint256","name":"dueDate","type":"uint256"},{"internalType":"uint256","name":"duration","type":"uint256"},{"internalType":"enum TrustForge.LoanStatus","name":"status","type":"uint8"},{"internalType":"enum TrustForge.RiskPool","name":"riskPool","type":"uint8"}],"stateMutability":"view","type":"function"},{"inputs":[{"internalType":"address","name":"borrower","type":"address"}],"name":"markDefault","outputs":[],"stateMutability":"nonpayable","type":"function"},{"inputs":[],"name":"owner","outputs":[{"internalType":"address","name":"","type":"address"}],"stateMutability":"view","type":"function"},{"inputs":[],"name":"pause","outputs":[],"stateMutability":"nonpayable","type":"function"},{"inputs":[],"name":"paused","outputs":[{"internalType":"bool","name":"","type":"bool"}],"stateMutability":"view","type":"function"},{"inputs":[{"internalType":"enum TrustForge.RiskPool","name":"","type":"uint8"}],"name":"poolStats","outputs":[{"internalType":"uint256","name":"totalLiquidity","type":"uint256"},{"internalType":"uint256","name":"totalActiveLoans","type":"uint256"},{"internalType":"uint256","name":"totalDefaulted","type":"uint256"},{"internalType":"uint256","name":"totalInterestPool","type":"uint256"},{"internalType":"uint256","name":"totalLenderDeposits","type":"uint256"}],"stateMutability":"view","type":"function"},{"inputs":[{"internalType":"string","name":"username","type":"string"}],"name":"registerUsername","outputs":[],"stateMutability":"nonpayable","type":"function"},{"inputs":[],"name":"renounceOwnership","outputs":[],"stateMutability":"nonpayable","type":"function"},{"inputs":[],"name":"repayLoan","outputs":[],"stateMutability":"nonpayable","type":"function"},{"inputs":[{"internalType":"uint256","name":"amount","type":"uint256"},{"internalType":"uint256","name":"duration","type":"uint256"}],"name":"requestLoan","outputs":[],"stateMutability":"nonpayable","type":"function"},{"inputs":[{"internalType":"address","name":"newOwner","type":"address"}],"name":"transferOwnership","outputs":[],"stateMutability":"nonpayable","type":"function"},{"inputs":[],"name":"unpause","outputs":[],"stateMutability":"nonpayable","type":"function"},{"inputs":[{"internalType":"uint256","name":"_lowTrust","type":"uint256"},{"internalType":"uint256","name":"_medTrust","type":"uint256"},{"internalType":"uint256","name":"_highTrust","type":"uint256"}],"name":"updateBorrowingLimits","outputs":[],"stateMutability":"nonpayable","type":"function"},{"inputs":[{"internalType":"enum TrustForge.RiskPool","name":"pool","type":"uint8"},{"internalType":"uint256","name":"_baseRate","type":"uint256"},{"internalType":"uint256","name":"_maxRate","type":"uint256"}],"name":"updatePoolInterestRates","outputs":[],"stateMutability":"nonpayable","type":"function"},{"inputs":[{"internalType":"uint256","name":"_increasePerRepayment","type":"uint256"},{"internalType":"uint256","name":"_decreaseOnDefault","type":"uint256"},{"internalType":"uint256","name":"_vouchPenalty","type":"uint256"}],"name":"updateTrustParameters","outputs":[],"stateMutability":"nonpayable","type":"function"},{"inputs":[{"internalType":"address","name":"","type":"address"}],"name":"userProfiles","outputs":[{"internalType":"string","name":"username","type":"string"},{"internalType":"uint256","name":"trustScore","type":"uint256"},{"internalType":"uint256","name":"totalLoansTaken","type":"uint256"},{"internalType":"uint256","name":"successfulRepayments","type":"uint256"},{"internalType":"uint256","name":"defaults","type":"uint256"},{"internalType":"bool","name":"hasActiveLoan","type":"bool"},{"internalType":"uint256","name":"lastDefaultTime","type":"uint256"},{"internalType":"uint256","name":"walletFirstSeen","type":"uint256"},{"internalType":"uint256","name":"totalTransactions","type":"uint256"},{"internalType":"uint256","name":"vouchCount","type":"uint256"},{"internalType":"uint256","name":"lastActivityTime","type":"uint256"}],"stateMutability":"view","type":"function"},{"inputs":[{"internalType":"string","name":"","type":"string"}],"name":"usernameToAddress","outputs":[{"internalType":"address","name":"","type":"address"}],"stateMutability":"view","type":"function"},{"inputs":[{"internalType":"string","name":"voucheeUsername","type":"string"}],"name":"vouchForUser","outputs":[],"stateMutability":"nonpayable","type":"function"},{"inputs":[{"internalType":"address","name":"","type":"address"},{"internalType":"uint256","name":"","type":"uint256"}],"name":"vouchedBy","outputs":[{"internalType":"address","name":"","type":"address"}],"stateMutability":"view","type":"function"},{"inputs":[{"internalType":"address","name":"","type":"address"},{"internalType":"address","name":"","type":"address"}],"name":"vouches","outputs":[{"internalType":"bool","name":"","type":"bool"}],"stateMutability":"view","type":"function"},{"inputs":[{"internalType":"address","name":"","type":"address"},{"internalType":"uint256","name":"","type":"uint256"}],"name":"vouchesGiven","outputs":[{"internalType":"address","name":"","type":"address"}],"stateMutability":"view","type":"function"},{"inputs":[{"internalType":"uint256","name":"amount","type":"uint256"},{"internalType":"enum TrustForge.RiskPool","name":"pool","type":"uint8"}],"name":"withdrawFromPool","outputs":[],"stateMutability":"nonpayable","type":"function"}],"evm":{"bytecode":{"linkReferences":{},"object":"60803461016f57601f6141b338819003918201601f19168301916001600160401b038311848410176101745780849260209460405283398101031261016f57516001600160a01b0381169081900361016f57600160005533156101595760018054610100600160a81b0319811633600881811b610100600160a81b031692909217909355604051939291901c6001600160a01b03167f8be0079c531659141344cd1fd0a4f28419497f9722a3daafe3b4186f6b6457e0600080a3603260035560c8600455601e60055561012c6006556103206007556102bc6008556105dc6009556104b0600a556109c4600b55662386f26fc10000600c5562015180600d5562ed4e00600e5562278d00600f556203f48060105567016345785d8a00006011556706f05b59d3b200006012556801158e460913d00000601355600560145560018060a01b03196002541617600255614028908161018b8239f35b631e4fbdf760e01b600052600060045260246000fd5b600080fd5b634e487b7160e01b600052604160045260246000fdfe6080604052600436101561001257600080fd5b60003560e01c80630b337be61461325e5780630c2b2176146130cd5780630d0b2ca6146130af5780630de4f25c146130185780631c9ab0eb14612f3d5780631dd057ef14612f1f57806323df015d14612f0157806328fd10d714612e8b5780633271eb6514612e6d578063332d56d714612da457806335981fd814612b3c57806336a94134146127d15780633a28d680146127b35780633f4ba83a1461274a5780635c975abb146127275780636010ba641461263c578063612eadb9146123f75780636322961d1461074057806364b7ae0e1461237d5780636d7867de146123335780636e2ce3b0146122b35780636f474ab014612295578063715018a61461223457806374c8d37714612217578063772c80d3146121fa5780637b8c6ab9146121dc5780638257886d146121be57806383abf4141461215b5780638456cb5914612102578063888f057f14611fa957806389871aac14611f8b57806389d99a0514611f6d5780638da5cb5b14611f405780639549e68214611ecc57806395ccea6714611dfc57806396fa212f14611dde578063987ee15614611c815780639a70327d14611c635780639af8196914611c245780639c847f7414611c065780639d0194fb14611bea578063a5c2fb8214611bab578063a91a36e914611b8f578063a9a5857814611b71578063aa452fa61461147f578063aaaca55814611456578063ab19f095146113c4578063ac03411d146113a6578063b3402bed14611388578063b3de69811461122d578063b759108014611210578063ba1b1f8914610e6e578063ba64983914610df2578063bbcf9fee14610dd5578063be81c4d414610a7c578063c01fa45214610a5e578063c1a287e214610a40578063cf8f2d3714610a22578063d8ce1c9c14610992578063e1493c2314610974578063ef5ed81a1461085f578063f1bbad4814610841578063f20b2be014610823578063f2fde38b14610786578063f825f14314610740578063f966ade7146103e05763fdb4d046146102fd57600080fd5b346103db5760203660031901126103db5760043560038110156103db576103238161332b565b600052601e6020526103386040600020613a0e565b8051602082019081518082116000146103d257610354916136c3565b8251156103c85781519261271084029380850461271014901517156103b25761038160c09482519061396b565b81519351926040606084015193015193604051958652602086015260408501526060840152608083015260a0820152f35b634e487b7160e01b600052601160045260246000fd5b60c0926000610381565b50506000610354565b600080fd5b346103db5760003660031901126103db576103f9613c20565b610401613c42565b336000526015602052604060002060078101805415610737575b506008810161042a8154613610565b9055600a42910155336000526018602052604060002033600052601560205260406000206005810161045f60ff825416613ab6565b6007830180549261047c60ff85166104768161332b565b15613af3565b6001850154600280870154600388015491546040516323b872dd60e01b81523360048201523060248201526044810184905293989297919692939260089290921c60ff16919060209084906001600160a01b0316816000816064810103925af195861561072b576105317faaaf5210d538d86fbb7b5066270ba0845ee01a7ae7406aee269f307e493173d79561051f6001996040976000916106fc575b50613678565b33600052601960205285600020613b50565b8660ff1982541617905533600052601860205261057b8360002060076000918281558260018201558260028201558260038201558260048201558260058201558260068201550155565b60ff198154169055600384016105918154613610565b905561059c8161332b565b80600052601e6020526003826000208681016105b98b82546136c3565b9055016105c78782546136b6565b90558151908682526105d88161332b565b6020820152a101805490336000526015602052604060002060035490600381015460058110156106ea575b600a11156106d8575b6001019081546103e861061f83836136b6565b11156106c75750506103e890555b54604051918252602082015260606040820152601460608201527314dd58d8d95cdcd99d5b081c995c185e5b595b9d60621b60808201527f61e207e3bae74a62e24453d64a564d920b61f71211e255d085d78b5eb2daf13660a03392a2604051928352602083015260408201527f2cebe3c4a7e8e81ca2035a6cb3ee450bb6401d9b6636652e183583f04704957260603392a26001600055005b906106d1916136b6565b905561062d565b90600a81018091116103b2579061060c565b91601481018091116103b25791610603565b61071e915060203d602011610724575b6107168183613414565b810190613660565b8e610519565b503d61070c565b6040513d6000823e3d90fd5b4290558161041b565b346103db57602061075036613522565b8161076460405192838151938492016134da565b601690820190815281900382019020546040516001600160a01b039091168152f35b346103db5760203660031901126103db5761079f6132c4565b6107a7613c5f565b6001600160a01b03811690811561080d5760018054610100600160a81b03198116600893841b610100600160a81b031617909155901c6001600160a01b03167f8be0079c531659141344cd1fd0a4f28419497f9722a3daafe3b4186f6b6457e0600080a3005b631e4fbdf760e01b600052600060045260246000fd5b346103db5760003660031901126103db576020600f54604051908152f35b346103db5760003660031901126103db576020600854604051908152f35b346103db5761086d366135f6565b91610876613c5f565b80151580610969575b156109315781151580610925575b156108ed57821515806108e2575b156108ab57600355600455600555005b60405162461bcd60e51b815260206004820152600f60248201526e496e76616c69642070656e616c747960881b6044820152606490fd5b50606483111561089b565b60405162461bcd60e51b815260206004820152601060248201526f496e76616c696420646563726561736560801b6044820152606490fd5b506101f482111561088d565b60405162461bcd60e51b815260206004820152601060248201526f496e76616c696420696e63726561736560801b6044820152606490fd5b50606481111561087f565b346103db5760003660031901126103db57602060405162093a808152f35b346103db5760203660031901126103db576001600160a01b036109b36132c4565b16600052601d602052604060002060405190816020825491828152019160005260206000209060005b818110610a03576109ff856109f381870382613414565b604051918291826135b3565b0390f35b82546001600160a01b03168452602090930192600192830192016109dc565b346103db5760003660031901126103db576020601454604051908152f35b346103db5760003660031901126103db576020601054604051908152f35b346103db5760003660031901126103db576020600754604051908152f35b346103db5760203660031901126103db57610a956132c4565b610a9d613c20565b60018060a01b031680600052601860205260406000208160005260156020526040600020906005820190610ad460ff835416613ab6565b6007810191825492610aec60ff85166104768161332b565b610afd6005840154601054906136b6565b421115610d9857610b2760ff60018501549560081c16938760005260196020526040600020613b50565b600260ff19825416179055846000526018602052610b73604060002060076000918281558260018201558260028201558260038201558260048201558260058201558260068201550155565b60ff19815416905560048301610b898154613610565b9055426006840155610b9a8161332b565b80600052601e6020526002604060002060018101610bb98582546136c3565b905580548411610d8f57610bce8482546136c3565b81555b01610bdd8382546136b6565b905583600052601c60205260406000209160005b858454821015610c895790600191610c09828761359b565b848060a01b0391549060031b1c168060005260156020527f7caec860ecff1e31964884e0cc93ee9f08887814abaf9a298b2464d774fac8f26020610c73866040600020018054906005548211600014610c8057610c6960055482546136c3565b81555b54906136c3565b604051908152a301610bf1565b60328155610c6c565b838382600189018054908260005260156020526040600020600454906001600482015411610d71575b7fa370a9b28903c6d9b1887a18eb1851893f025fd122e73aa883cd77d080ab831a969360409695937f61e207e3bae74a62e24453d64a564d920b61f71211e255d085d78b5eb2daf13693600160a094019080825411600014610d6757610d199082546136c3565b90555b5487519182526020820152606087820152600e60608201526d131bd85b88191959985d5b1d195960921b6080820152a28251918252610d5a8161332b565b6020820152a26001600055005b5060329055610d1c565b909592949350606486018096116103b2579194929386939092610cb2565b60008155610bd1565b60405162461bcd60e51b815260206004820152601560248201527423b930b1b2903832b934b7b2103737ba1037bb32b960591b6044820152606490fd5b346103db5760003660031901126103db57602060405161012c8152f35b346103db5760203660031901126103db576001600160a01b03610e136132c4565b166000526018602052604060002060018060a01b03815416906109ff6001820154916002810154936003820154916004810154600582015490600760068401549301549460405198899860ff808960081c169816968a61334b565b346103db57610e7c36613522565b336000526015602052604060002060078101805415611207575b5060088101610ea58154613610565b9055600a42910155336000526017602052610ec760ff60406000205416613918565b6020610edc60405192838151938492016134da565b60169082019081528190036020019020546001600160a01b031680156111cd573381146111905733600052601560205260406000208160005260156020526040600020906101f460018201541061115657600260038201541061111c5733600052601b602052604060002060018060a01b03841660005260205260ff604060002054166110e55760098101805460145411156110aa5733600052601b602052604060002060018060a01b0385166000526020526040600020600160ff1982541617905583600052601c602052610fb6336040600020613a75565b33600052601d602052610fcd846040600020613a75565b610fd78154613610565b90556001820180548061103a57507fa5345fb1e72426f31aeb07e97f01deaae907f89c6eafd33ef8e31520e7032e2491609661102692555b61103560405192839260408452604084019061398b565b8281036020840152339561398b565b0390a3005b9061012c8210611071575b50506110267fa5345fb1e72426f31aeb07e97f01deaae907f89c6eafd33ef8e31520e7032e249161100f565b9091601e83018093116103b2579190556110267fa5345fb1e72426f31aeb07e97f01deaae907f89c6eafd33ef8e31520e7032e24611045565b60405162461bcd60e51b8152602060048201526013602482015272159bdd58da081b1a5b5a5d081c995858da1959606a1b6044820152606490fd5b60405162461bcd60e51b815260206004820152600f60248201526e105b1c9958591e481d9bdd58da1959608a1b6044820152606490fd5b60405162461bcd60e51b81526020600482015260126024820152714e65656420322b2072657061796d656e747360701b6044820152606490fd5b60405162461bcd60e51b8152602060048201526012602482015271125b9cdd59999a58da595b9d081d1c9d5cdd60721b6044820152606490fd5b60405162461bcd60e51b815260206004820152601560248201527421b0b73737ba103b37bab1b4103cb7bab939b2b63360591b6044820152606490fd5b60405162461bcd60e51b8152602060048201526012602482015271155cd95c9b985b59481b9bdd08199bdd5b9960721b6044820152606490fd5b42905582610e96565b346103db5760003660031901126103db5760206040516102588152f35b346103db5760003660031901126103db57611246613a4a565b5061124f613a4a565b50611258613a4a565b50601e60205260026000526101e07f873299c6a6c39b8b92f01922bb622df4a3236ea2876aac2da76f6c092cf7e98f6113867f8a1ea6ccfdf9f988bdc16303c81231f9b192785454b34880c28e5c30362354c56113516112e96112e36112dd7f65ce8396b736f5da9d881cc6fbcb11ef9721292dc41ec8c40879fd9edea5744d613a0e565b95613a0e565b92613a0e565b9161131f604051809660808091805184526020810151602085015260408101516040850152606081015160608501520151910152565b805160a0860152602081015160c0860152604081015160e0860152606081015161010086015260800151610120850152565b80516101408401526020810151610160840152604081015161018084015260608101516101a0840152608001516101c0830152565bf35b346103db5760003660031901126103db576020601254604051908152f35b346103db5760003660031901126103db576020600354604051908152f35b346103db5760203660031901126103db5760e06113df6132c4565b6001600160a01b0381166000908152601a6020526040902061140090613a0e565b8051916020820151916060604082015191015161141c83613c8b565b9161142f61142985613d21565b94613d96565b94604051968752602087015260408601526060850152608084015260a083015260c0820152f35b346103db5760003660031901126103db576002546040516001600160a01b039091168152602090f35b346103db5760403660031901126103db5760043560243561149e613c20565b6114a6613c42565b336000526015602052604060002060078101805415611b68575b50600881016114cf8154613610565b9055600a429101553360005260176020526114f160ff60406000205416613918565b33600052601560205260406000209060018201805415611b5f575b61151533613f1c565b60ff600584015416611b1a57600c548410611ade578115611a9957600d548210611a5f57600e548211611a265760048301546119ca575b611555336137dd565b61159c6040602083019384518451835191825260208201527f8ea4f9aee84985ea9687e32c710743b7fdb33bccd7c22f11e49355baea378d3d833392a25492015182613ec4565b8511611979576115ab90613efb565b926115b58461332b565b83600052601e6020526115d3604060002060018154910154906136c3565b6101f48602908682046101f414871517156103b2576115f96127106116009304886136b6565b1115613761565b7ff4cc78c04780a7253fdfad7eaf22bee9b5899d532292b8cec625ed2f1b83ea646116366040519260808452608084019061398b565b9186602082015284604082015261164c8661332b565b8560608201528033930390a25133600052601560205260406000206116708461332b565b83600052601e60205260406000209160018201549060006116908761332b565b8661194b57506006549185600754935b80926116ab8a61332b565b60028a146118f8575b5050909180156000146118d657505061012c81018091116103b2578490915b6116dc8761332b565b86600052601e6020526116f26040600020613a0e565b8051611886575b5064496cebb8009161171a848361171f946001971161187e575b508a613958565b613958565b0492600261172d85896136b6565b93336000526018602052604060002094848060a01b0333166001600160601b0360a01b87541617865589858701558683870155600386015542600486015561179788600761177b8a426136b6565b97600581019889558a60068201550160ff198154168155613b31565b600581018460ff19825416179055016117b08154613610565b9055016117be8682546136b6565b905560025460405163a9059cbb60e01b81523360048201526024810187905290602090829060449082906000906001600160a01b03165af1801561072b5761180d9160009161185f5750613678565b549060405194855260208501526040840152606083015261182d8161332b565b60808201527f954bb6121734ba1e4a413be1c773173a1abe362c66f47fb0953ce91c49019aa760a03392a26001600055005b611878915060203d602011610724576107168183613414565b87610519565b90508b611713565b9091506020810151926064840293808504606414901517156103b25761171a64496cebb800936118cb899360056118c460019961171f98519061396b565b04906136b6565b9550925050916116f9565b91929091600019016116d357919050609681018091116103b2578490916116d3565b60c881101561191d575050506101f481018091116103b2578590915b919089806116b4565b61012c909492939410611931575b50611914565b61012c919350809250018091116103b2578590918961192b565b506119558661332b565b6001860361196b576008549185600954936116a0565b600a549185600b54936116a0565b60405162461bcd60e51b815260206004820152602360248201527f416d6f756e7420657863656564732074727573742f6d61747572697479206c696044820152621b5a5d60ea1b6064820152608490fd5b6119db6006840154600f54906136b6565b421161154c5760405162461bcd60e51b815260206004820152601d60248201527f426c6f636b65642064756520746f20726563656e742064656661756c740000006044820152606490fd5b60405162461bcd60e51b81526020600482015260116024820152704475726174696f6e20746f6f206c6f6e6760781b6044820152606490fd5b60405162461bcd60e51b8152602060048201526012602482015271111d5c985d1a5bdb881d1bdbc81cda1bdc9d60721b6044820152606490fd5b60405162461bcd60e51b815260206004820152601760248201527f4475726174696f6e2063616e6e6f74206265207a65726f0000000000000000006044820152606490fd5b60405162461bcd60e51b8152602060048201526014602482015273416d6f756e742062656c6f77206d696e696d756d60601b6044820152606490fd5b60405162461bcd60e51b815260206004820152601760248201527f416c72656164792068617320616374697665206c6f616e0000000000000000006044820152606490fd5b6064815561150c565b429055836114c0565b346103db5760003660031901126103db576020601354604051908152f35b346103db5760003660031901126103db57602060405160648152f35b346103db5760203660031901126103db576001600160a01b03611bcc6132c4565b166000526017602052602060ff604060002054166040519015158152f35b346103db5760003660031901126103db57602060405160328152f35b346103db5760003660031901126103db576020600454604051908152f35b346103db5760203660031901126103db576060611c47611c426132c4565b6137dd565b6040805191805183526020810151602084015201516040820152f35b346103db5760003660031901126103db576020601154604051908152f35b346103db5760203660031901126103db57611d9b611c9d6132c4565b60018060a01b0381166000526015602052604060002060405190611cc0826133db565b611cc981613436565b8252600181015492602083019384526002820154936040840194855260038301549260608501938452611d4d60048201549360808701948552600a60ff6005850154169360a089019415158552600681015460c08a0152600781015460e08a015260088101546101008a015260098101546101208a015201546101408801526137dd565b915180611dd857506064945b5195519351925190511515825191611d7a6040602086015195015188613ec4565b94611d8488613efb565b966040519a8b9a6101408c526101408c01906134fd565b9860208b015260408a01526060890152608088015260a087015260c086015260e0850152610100840152611dce8161332b565b6101208301520390f35b94611d59565b346103db5760003660031901126103db576020600c54604051908152f35b346103db5760403660031901126103db57611e156132c4565b611e6360243591611e24613c5f565b60015460405163a9059cbb60e01b81526001600160a01b0360089290921c82166004820152602481018590529116929091602090839081906044820190565b03816000875af190811561072b57611ea66020927f5fafa99d0643513820be26656b45130b01e1c03062e1266bf36f88cbd3bd969594600091611eaf5750613678565b604051908152a2005b611ec69150843d8611610724576107168183613414565b86610519565b346103db57611eda366135f6565b91611ee3613c5f565b81811080611f37575b15611efc57601155601255601355005b60405162461bcd60e51b815260206004820152601360248201527224b73b30b634b210383937b3b932b9b9b4b7b760691b6044820152606490fd5b50828210611eec565b346103db5760003660031901126103db5760015460405160089190911c6001600160a01b03168152602090f35b346103db5760003660031901126103db576020600d54604051908152f35b346103db5760003660031901126103db576020600b54604051908152f35b346103db5760203660031901126103db576001600160a01b03611fca6132c4565b166000526019602052604060002080549067ffffffffffffffff82116120ec5760405191611ffe60208260051b0184613414565b80835260208301809260005260206000206000915b8383106120ce5784866040519182916020830190602084525180915260408301919060005b818110612046575050500390f35b9193509160206101206001926101008751858060a01b038151168352848101518584015260408101516040840152606081015160608401526080810151608084015260a081015160a084015260c081015160c084015260e08101516120aa8161332b565b60e084015201516120ba8161332b565b610100820152019401910191849392612038565b600860206001926120de856136d0565b815201920192019190612013565b634e487b7160e01b600052604160045260246000fd5b346103db5760003660031901126103db5761211b613c5f565b612123613c42565b600160ff19815416176001557f62e78cea01bee320cd4e420270b5ea74000d11b0c9f74754ebdbfc544b05a2586020604051338152a1005b346103db5760403660031901126103db576121746132c4565b6001600160a01b03166000908152601d60205260409020805460243591908210156103db576020916121a59161359b565b905460405160039290921b1c6001600160a01b03168152f35b346103db5760003660031901126103db57602060405162ed4e008152f35b346103db5760003660031901126103db576020600a54604051908152f35b346103db5760003660031901126103db5760206040516101f48152f35b346103db5760003660031901126103db5760206040516103e88152f35b346103db5760003660031901126103db5761224d613c5f565b60018054610100600160a81b0319811690915560009060081c6001600160a01b03167f8be0079c531659141344cd1fd0a4f28419497f9722a3daafe3b4186f6b6457e08280a3005b346103db5760003660031901126103db5760206040516276a7008152f35b346103db5760203660031901126103db576001600160a01b036122d46132c4565b16600052601c602052604060002060405190816020825491828152019160005260206000209060005b818110612314576109ff856109f381870382613414565b82546001600160a01b03168452602090930192600192830192016122fd565b346103db5760403660031901126103db5761234c6132c4565b6001600160a01b03166000908152601c60205260409020805460243591908210156103db576020916121a59161359b565b346103db5760203660031901126103db5760043560038110156103db576123a38161332b565b600052601e602052604060002080546109ff6001830154926002810154906004600382015491015491604051958695869192608093969594919660a084019784526020840152604083015260608201520152565b346103db57612405366132da565b61240d613c20565b612415613c42565b336000526015602052604060002060078101805415612633575b506008810161243e8154613610565b9055600a4291015533600052601a602052604060002061245d8261332b565b81600052601e602052604060002061247684151561361f565b61247f8361332b565b821591821561260c578481545b106125c7576004926124af866124a885546001870154906136c3565b1015613761565b6124b88561332b565b15612593576124c88582546136c3565b90555b6124d68482546136c3565b8155016124e48382546136c3565b905560025460405163a9059cbb60e01b81523360048201526024810184905290602090829060449082906000906001600160a01b03165af1801561072b57612533916000916125745750613678565b6040519182526125428161332b565b60208201527ff6ce689bc8e4650b120db9a6f0de41e34d40c67b5ef3fb1d47a40aa5099057c760403392a26001600055005b61258d915060203d602011610724576107168183613414565b84610519565b61259c8461332b565b600184036125b9576001016125b28582546136c3565b90556124cb565b6002016125b28582546136c3565b60405162461bcd60e51b815260206004820152601c60248201527f496e73756666696369656e742062616c616e636520696e20706f6f6c000000006044820152606490fd5b6126158461332b565b600184036126285784600182015461248c565b84600282015461248c565b4290558361242f565b346103db5760203660031901126103db576001600160a01b0361265d6132c4565b16600052601860205261010061267660406000206136d0565b60208101519060408101519060608101519060a0810191825160c08301519160e08401956126c0898851966126aa8861332b565b0151966126b68861332b565b51601054906136b6565b42119687612709575b5060405197885260208801526040870152606086015260808501526126ed8161332b565b60a08401526126fb8161332b565b60c0830152151560e0820152f35b909650516127168161332b565b61271f8161332b565b1595896126c9565b346103db5760003660031901126103db57602060ff600154166040519015158152f35b346103db5760003660031901126103db57612763613c5f565b60015460ff8116156127a25760ff19166001557f5db9ee0a495bf2e6ff9c91a7834c1ba4fdd244a5e8aa4e537bd38aeae4b073aa6020604051338152a1005b638dfc202b60e01b60005260046000fd5b346103db5760003660031901126103db57602060405162278d008152f35b346103db576127df36613522565b336000526015602052604060002060078101805415612b33575b50600881016128088154613610565b9055600a4291015533600052601760205260ff60406000205416612aee57805160038110159081612ae2575b5015612aa65760405181519060208301916128508183856134da565b60169082019081528190036020019020546001600160a01b0316612a705761287782613e04565b15612a2b573360005260156020526040600020825167ffffffffffffffff81116120ec576128a582546133a1565b601f81116129e3575b506020601f82116001146129785791816128f3949260209460009161296d575b508160011b916000199060031b1c19161790555b6040518093819286519283916134da565b8101601681520301902060018060a01b0333166001600160601b0360a01b8254161790553360005260176020526040600020600160ff198254161790557f4afe13536e3149cddd8c9a8df1580cd5e909fd13c41e7dfead2e38d1141dad5d6040516020815280612968339460208301906134fd565b0390a2005b9050860151876128ce565b601f1982169083600052806000209160005b8181106129cb57509260209492600192826128f39896106129b2575b5050811b0190556128e2565b88015160001960f88460031b161c1916905587806129a6565b9192602060018192868b01518155019401920161298a565b826000526020600020601f830160051c81019160208410612a21575b601f0160051c01905b818110612a1557506128ae565b60008155600101612a08565b90915081906129ff565b60405162461bcd60e51b815260206004820152601760248201527f496e76616c696420757365726e616d6520666f726d61740000000000000000006044820152606490fd5b60405162461bcd60e51b815260206004820152600e60248201526d2ab9b2b93730b6b2903a30b5b2b760911b6044820152606490fd5b60405162461bcd60e51b81526020600482015260146024820152730557365726e616d65206c656e67746820332d32360641b6044820152606490fd5b60149150111582612834565b60405162461bcd60e51b815260206004820152601b60248201527f557365726e616d6520616c7265616479207265676973746572656400000000006044820152606490fd5b429055826127f9565b346103db5760003660031901126103db57612b55613c20565b612b5d613c42565b336000526015602052604060002060078101805415612d9b575b5060088101612b868154613610565b9055600a4291015533600052601a6020526040600020612ba533613c8b565b90612baf33613d21565b612bb833613d96565b90612bcc82612bc783876136b6565b6136b6565b938415612d5f5780612d20575b5080612ce0575b5080612ca0575b5060038101612bf78382546136b6565b90554260049182015560025460405163a9059cbb60e01b8152339281019290925260248201839052602090829060449082906000906001600160a01b03165af1801561072b57612c4e91600091612c815750613678565b6040519081527ff9984c8173c4b4ff9cc454f76ed19c053f4490ccb224fd9ddffeb4ef4bea353060203392a26001600055005b612c9a915060203d602011610724576107168183613414565b83610519565b6002600052601e6020527f8a1ea6ccfdf9f988bdc16303c81231f9b192785454b34880c28e5c30362354c880549091612cd8916136c3565b905582612be7565b6001600052601e6020527f873299c6a6c39b8b92f01922bb622df4a3236ea2876aac2da76f6c092cf7e99280549091612d18916136c3565b905583612be0565b60008052601e6020527f65ce8396b736f5da9d881cc6fbcb11ef9721292dc41ec8c40879fd9edea5745080549091612d57916136c3565b905584612bd9565b60405162461bcd60e51b81526020600482015260146024820152734e6f20696e74657265737420746f20636c61696d60601b6044820152606490fd5b42905581612b77565b346103db5760203660031901126103db576001600160a01b03612dc56132c4565b166000526015602052612e316040600020612ddf81613436565b906001810154906002810154906003810154600482015460ff600584015416600684015490600785015492600886015494600a6009880154970154976040519b8c9b6101608d526101608d01906134fd565b9960208c015260408b015260608a01526080890152151560a088015260c087015260e08601526101008501526101208401526101408301520390f35b346103db5760003660031901126103db576020600554604051908152f35b346103db5760203660031901126103db576001600160a01b03612eac6132c4565b16600052601a602052604060002080546109ff6001830154926002810154906004600382015491015491604051958695869192608093969594919660a084019784526020840152604083015260608201520152565b346103db5760003660031901126103db576020600654604051908152f35b346103db5760003660031901126103db576020600954604051908152f35b346103db5760603660031901126103db5760043560038110156103db5760243560443591612f69613c5f565b82821015612fe6576113888311612fb257612f838161332b565b80612f915750600655600755005b600190612f9d8161332b565b03612faa57600855600955005b600a55600b55005b60405162461bcd60e51b815260206004820152600c60248201526b09ac2f040e8dede40d0d2ced60a31b6044820152606490fd5b60405162461bcd60e51b815260206004820152600a602482015269084c2e6ca407840dac2f60b31b6044820152606490fd5b346103db5760403660031901126103db576130316132c4565b6001600160a01b031660009081526019602052604090208054602435908110156103db5761305e916132f9565b5080546001820154600283015460038401546004850154600586015460068701546007909701546040519788976109ff9760ff600885901c811698941696929593916001600160a01b03168a61334b565b346103db5760003660031901126103db576020600e54604051908152f35b346103db576130db366132da565b6130e3613c20565b6130eb613c42565b336000526015602052604060002060078101805415613255575b50600881016131148154613610565b9055600a4291015561312782151561361f565b6002546040516323b872dd60e01b81523360048201523060248201526044810184905290602090829060649082906000906001600160a01b03165af1801561072b5761317a916000916125745750613678565b33600052601a602052600460406000206131938361332b565b82600052601e6020526040600020906131ab8461332b565b8361321f576131bb8582546136b6565b81555b82429101556131ce8482546136b6565b8155016131dc8382546136b6565b90556040519182526131ed8161332b565b60208201527f9abec3fd8102ec4f27ec2e0653aaa0b3e91d8291780c0cd5fa27c1596776139360403392a26001600055005b6132288461332b565b60018403613246576001810161323f8682546136b6565b90556131be565b6002810161323f8682546136b6565b42905583613105565b346103db5760403660031901126103db576132776132c4565b602435906001600160a01b03821682036103db5760018060a01b0316600052601b60205260406000209060018060a01b0316600052602052602060ff604060002054166040519015158152f35b600435906001600160a01b03821682036103db57565b60409060031901126103db576004359060243560038110156103db5790565b80548210156133155760005260206000209060031b0190600090565b634e487b7160e01b600052603260045260246000fd5b6003111561333557565b634e487b7160e01b600052602160045260246000fd5b95926101009794919a9998959261012088019b60018060a01b03168852602088015260408701526060860152608085015260a084015260c083015261338f8161332b565b60e082015261339d8361332b565b0152565b90600182811c921680156133d1575b60208310146133bb57565b634e487b7160e01b600052602260045260246000fd5b91607f16916133b0565b610160810190811067ffffffffffffffff8211176120ec57604052565b60a0810190811067ffffffffffffffff8211176120ec57604052565b90601f8019910116810190811067ffffffffffffffff8211176120ec57604052565b906040519182600082549261344a846133a1565b80845293600181169081156134b85750600114613471575b5061346f92500383613414565b565b90506000929192526020600020906000915b81831061349c57505090602061346f9282010138613462565b6020919350806001915483858901015201910190918492613483565b90506020925061346f94915060ff191682840152151560051b82010138613462565b60005b8381106134ed5750506000910152565b81810151838201526020016134dd565b90602091613516815180928185528580860191016134da565b601f01601f1916010190565b60206003198201126103db5760043567ffffffffffffffff81116103db57816023820112156103db5780600401359067ffffffffffffffff82116120ec5760405192613578601f8401601f191660200185613414565b828452602483830101116103db5781600092602460209301838601378301015290565b80548210156133155760005260206000200190600090565b602060408183019282815284518094520192019060005b8181106135d75750505090565b82516001600160a01b03168452602093840193909201916001016135ca565b60609060031901126103db57600435906024359060443590565b60001981146103b25760010190565b1561362657565b60405162461bcd60e51b81526020600482015260126024820152710416d6f756e74206d757374206265203e20360741b6044820152606490fd5b908160209103126103db575180151581036103db5790565b1561367f57565b60405162461bcd60e51b815260206004820152600f60248201526e151c985b9cd9995c8819985a5b1959608a1b6044820152606490fd5b919082018092116103b257565b919082039182116103b257565b90604051610120810181811067ffffffffffffffff8211176120ec5760405261010060ff6007839560018060a01b03815416855260018101546020860152600281015460408601526003810154606086015260048101546080860152600581015460a0860152600681015460c0860152015481811661374e8161332b565b60e085015260081c169161339d8361332b565b1561376857565b60405162461bcd60e51b815260206004820152601b60248201527f496e73756666696369656e7420706f6f6c206c697175696469747900000000006044820152606490fd5b604051906060820182811067ffffffffffffffff8211176120ec5760405260006040838281528260208201520152565b6137e56137ad565b5060018060a01b031660005260156020526040600020604051613807816133db565b61381082613436565b81526001820154602082015260028201546040820152600382015460608201526004820154608082015260ff600583015416151560a0820152600682015460c0820152610140600a60078401549360e084019485526008810154610100850152600981015461012085015201549101526138886137ad565b908051156139025761389b9051426136c3565b8082526276a70081106138bb575060036020820152609660408201525b90565b62278d0081106138d75750600260208201526064604082015290565b62093a80116138f157600160208201526032604082015290565b60006020820152601e604082015290565b506000815260006020820152601e604082015290565b1561391f57565b60405162461bcd60e51b8152602060048201526011602482015270155cd95c9b985b59481c995c5d5a5c9959607a1b6044820152606490fd5b818102929181159184041417156103b257565b8115613975570490565b634e487b7160e01b600052601260045260246000fd5b6000929181549161399b836133a1565b80835292600181169081156139f157506001146139b757505050565b60009081526020812093945091925b8383106139d7575060209250010190565b6001816020929493945483858701015201910191906139c6565b915050602093945060ff929192191683830152151560051b010190565b90604051613a1b816133f8565b608060048294805484526001810154602085015260028101546040850152600381015460608501520154910152565b60405190613a57826133f8565b60006080838281528260208201528260408201528260608201520152565b8054600160401b8110156120ec57613a929160018201815561359b565b81546001600160a01b0393841660039290921b91821b9390911b1916919091179055565b15613abd57565b60405162461bcd60e51b815260206004820152600e60248201526d27379030b1ba34bb32903637b0b760911b6044820152606490fd5b15613afa57565b60405162461bcd60e51b815260206004820152600f60248201526e4c6f616e206e6f742061637469766560881b6044820152606490fd5b90613b3b8161332b565b61ff0082549160081b169061ff001916179055565b8054600160401b8110156120ec57613b6d916001820181556132f9565b919091613c0a57808203613b7f575050565b60ff60078061346f9460018060a01b0360018060a01b03865416166001600160601b0360a01b82541617815560018501546001820155600285015460028201556003850154600382015560048501546004820155600585015460058201556006850154600682015501920181815416613bf78161332b565b82198454161783555460081c1690613b31565b634e487b7160e01b600052600060045260246000fd5b600260005414613c31576002600055565b633ee5aeb560e01b60005260046000fd5b60ff60015416613c4e57565b63d93c066560e01b60005260046000fd5b60015460081c6001600160a01b03163303613c7657565b63118cdaa760e01b6000523360045260246000fd5b6001600160a01b03166000908152601a60205260409020613cab90613a0e565b60008052601e602052613cdd7f65ce8396b736f5da9d881cc6fbcb11ef9721292dc41ec8c40879fd9edea5744d613a0e565b60808101918251158015613d15575b613d0d576138b892916060613d05925191015190613958565b90519061396b565b505050600090565b50606082015115613cec565b6001600160a01b03166000908152601a60205260408120613d4190613a0e565b9060018152601e602052613d5760408220613a0e565b9160808301918251158015613d8a575b613d8357506138b89260606020613d0593015191015190613958565b9250505090565b50606084015115613d67565b6001600160a01b03166000908152601a60205260408120613db690613a0e565b9060028152601e602052613dcc60408220613a0e565b9160808301918251158015613df8575b613d8357506138b89260606040613d0593015191015190613958565b50606084015115613ddc565b60005b8151811015613ebd57600060ff60f81b6020838501015116600360fc1b8110159081613eae575b8115613e8a575b8115613e66575b8115613e58575b5015613e525750600101613e07565b91505090565b605f60f81b14905038613e43565b9050606160f81b81101580613e7c575b90613e3c565b50603d60f91b811115613e76565b9050604160f81b81101580613ea0575b90613e35565b50602d60f91b811115613e9a565b603960f81b8111159150613e2e565b5050600190565b606491613ede9161012c811015613ee25750601154613958565b0490565b6102581115613ef357601254613958565b601354613958565b6102588110613f0a5750600090565b61012c11613f1757600190565b600290565b6001600160a01b03166000818152601560205260409020600a81015480158015613fe3575b613fde57613f5362ed4e0091426136c3565b1015613f5d575050565b60010180546032811115613fb05781546031198101919082116103b257826040927f6f01342a57a245a77a3189f561e580b7ca4a2f9ef9795adbedfed33c35acd8b294555b5482519182526020820152a2565b6040908260647f6f01342a57a245a77a3189f561e580b7ca4a2f9ef9795adbedfed33c35acd8b29455613fa2565b505050565b50606460018301541115613f4156fea2646970667358221220236bc725fe36e068c4257c3d7a607d185b1769c36de6213bc7198a687ff03b4664736f6c634300081c0033","opcodes":"PUSH1 0x80 CALLVALUE PUSH2 0x16F JUMPI PUSH1 0x1F PUSH2 0x41B3 CODESIZE DUP2 SWAP1 SUB SWAP2 DUP3 ADD PUSH1 0x1F NOT AND DUP4 ADD SWAP2 PUSH1 0x1 PUSH1 0x1 PUSH1 0x40 SHL SUB DUP4 GT DUP5 DUP5 LT OR PUSH2 0x174 JUMPI DUP1 DUP5 SWAP3 PUSH1 0x20 SWAP5 PUSH1 0x40 MSTORE DUP4 CODECOPY DUP2 ADD SUB SLT PUSH2 0x16F JUMPI MLOAD PUSH1 0x1 PUSH1 0x1 PUSH1 0xA0 SHL SUB DUP2 AND SWAP1 DUP2 SWAP1 SUB PUSH2 0x16F JUMPI PUSH1 0x1 PUSH1 0x0 SSTORE CALLER ISZERO PUSH2 0x159 JUMPI PUSH1 0x1 DUP1 SLOAD PUSH2 0x100 PUSH1 0x1 PUSH1 0xA8 SHL SUB NOT DUP2 AND CALLER PUSH1 0x8 DUP2 DUP2 SHL PUSH2 0x100 PUSH1 0x1 PUSH1 0xA8 SHL SUB AND SWAP3 SWAP1 SWAP3 OR SWAP1 SWAP4 SSTORE PUSH1 0x40 MLOAD SWAP4 SWAP3 SWAP2 SWAP1 SHR PUSH1 0x1 PUSH1 0x1 PUSH1 0xA0 SHL SUB AND PUSH32 0x8BE0079C531659141344CD1FD0A4F28419497F9722A3DAAFE3B4186F6B6457E0 PUSH1 0x0 DUP1 LOG3 PUSH1 0x32 PUSH1 0x3 SSTORE PUSH1 0xC8 PUSH1 0x4 SSTORE PUSH1 0x1E PUSH1 0x5 SSTORE PUSH2 0x12C PUSH1 0x6 SSTORE PUSH2 0x320 PUSH1 0x7 SSTORE PUSH2 0x2BC PUSH1 0x8 SSTORE PUSH2 0x5DC PUSH1 0x9 SSTORE PUSH2 0x4B0 PUSH1 0xA SSTORE PUSH2 0x9C4 PUSH1 0xB SSTORE PUSH7 0x2386F26FC10000 PUSH1 0xC SSTORE PUSH3 0x15180 PUSH1 0xD SSTORE PUSH3 0xED4E00 PUSH1 0xE SSTORE PUSH3 0x278D00 PUSH1 0xF SSTORE PUSH3 0x3F480 PUSH1 0x10 SSTORE PUSH8 0x16345785D8A0000 PUSH1 0x11 SSTORE PUSH8 0x6F05B59D3B20000 PUSH1 0x12 SSTORE PUSH9 0x1158E460913D00000 PUSH1 0x13 SSTORE PUSH1 0x5 PUSH1 0x14 SSTORE PUSH1 0x1 DUP1 PUSH1 0xA0 SHL SUB NOT PUSH1 0x2 SLOAD AND OR PUSH1 0x2 SSTORE PUSH2 0x4028 SWAP1 DUP2 PUSH2 0x18B DUP3 CODECOPY RETURN JUMPDEST PUSH4 0x1E4FBDF7 PUSH1 0xE0 SHL PUSH1 0x0 MSTORE PUSH1 0x0 PUSH1 0x4 MSTORE PUSH1 0x24 PUSH1 0x0 REVERT JUMPDEST PUSH1 0x0 DUP1 REVERT JUMPDEST PUSH4 0x4E487B71 PUSH1 0xE0 SHL PUSH1 0x0 MSTORE PUSH1 0x41 PUSH1 0x4 MSTORE PUSH1 0x24 PUSH1 0x0 REVERT INVALID PUSH1 0x80 PUSH1 0x40 MSTORE PUSH1 0x4 CALLDATASIZE LT ISZERO PUSH2 0x12 JUMPI PUSH1 0x0 DUP1 REVERT JUMPDEST PUSH1 0x0 CALLDATALOAD PUSH1 0xE0 SHR DUP1 PUSH4 0xB337BE6 EQ PUSH2 0x325E JUMPI DUP1 PUSH4 0xC2B2176 EQ PUSH2 0x30CD JUMPI DUP1 PUSH4 0xD0B2CA6 EQ PUSH2 0x30AF JUMPI DUP1 PUSH4 0xDE4F25C EQ PUSH2 0x3018 JUMPI DUP1 PUSH4 0x1C9AB0EB EQ PUSH2 0x2F3D JUMPI DUP1 PUSH4 0x1DD057EF EQ PUSH2 0x2F1F JUMPI DUP1 PUSH4 0x23DF015D EQ PUSH2 0x2F01 JUMPI DUP1 PUSH4 0x28FD10D7 EQ PUSH2 0x2E8B JUMPI DUP1 PUSH4 0x3271EB65 EQ PUSH2 0x2E6D JUMPI DUP1 PUSH4 0x332D56D7 EQ PUSH2 0x2DA4 JUMPI DUP1 PUSH4 0x35981FD8 EQ PUSH2 0x2B3C JUMPI DUP1 PUSH4 0x36A94134 EQ PUSH2 0x27D1 JUMPI DUP1 PUSH4 0x3A28D680 EQ PUSH2 0x27B3 JUMPI DUP1 PUSH4 0x3F4BA83A EQ PUSH2 0x274A JUMPI DUP1 PUSH4 0x5C975ABB EQ PUSH2 0x2727 JUMPI DUP1 PUSH4 0x6010BA64 EQ PUSH2 0x263C JUMPI DUP1 PUSH4 0x612EADB9 EQ PUSH2 0x23F7 JUMPI DUP1 PUSH4 0x6322961D EQ PUSH2 0x740 JUMPI DUP1 PUSH4 0x64B7AE0E EQ PUSH2 0x237D JUMPI DUP1 PUSH4 0x6D7867DE EQ PUSH2 0x2333 JUMPI DUP1 PUSH4 0x6E2CE3B0 EQ PUSH2 0x22B3 JUMPI DUP1 PUSH4 0x6F474AB0 EQ PUSH2 0x2295 JUMPI DUP1 PUSH4 0x715018A6 EQ PUSH2 0x2234 JUMPI DUP1 PUSH4 0x74C8D377 EQ PUSH2 0x2217 JUMPI DUP1 PUSH4 0x772C80D3 EQ PUSH2 0x21FA JUMPI DUP1 PUSH4 0x7B8C6AB9 EQ PUSH2 0x21DC JUMPI DUP1 PUSH4 0x8257886D EQ PUSH2 0x21BE JUMPI DUP1 PUSH4 0x83ABF414 EQ PUSH2 0x215B JUMPI DUP1 PUSH4 0x8456CB59 EQ PUSH2 0x2102 JUMPI DUP1 PUSH4 0x888F057F EQ PUSH2 0x1FA9 JUMPI DUP1 PUSH4 0x89871AAC EQ PUSH2 0x1F8B JUMPI DUP1 PUSH4 0x89D99A05 EQ PUSH2 0x1F6D JUMPI DUP1 PUSH4 0x8DA5CB5B EQ PUSH2 0x1F40 JUMPI DUP1 PUSH4 0x9549E682 EQ PUSH2 0x1ECC JUMPI DUP1 PUSH4 0x95CCEA67 EQ PUSH2 0x1DFC JUMPI DUP1 PUSH4 0x96FA212F EQ PUSH2 0x1DDE JUMPI DUP1 PUSH4 0x987EE156 EQ PUSH2 0x1C81 JUMPI DUP1 PUSH4 0x9A70327D EQ PUSH2 0x1C63 JUMPI DUP1 PUSH4 0x9AF81969 EQ PUSH2 0x1C24 JUMPI DUP1 PUSH4 0x9C847F74 EQ PUSH2 0x1C06 JUMPI DUP1 PUSH4 0x9D0194FB EQ PUSH2 0x1BEA JUMPI DUP1 PUSH4 0xA5C2FB82 EQ PUSH2 0x1BAB JUMPI DUP1 PUSH4 0xA91A36E9 EQ PUSH2 0x1B8F JUMPI DUP1 PUSH4 0xA9A58578 EQ PUSH2 0x1B71 JUMPI DUP1 PUSH4 0xAA452FA6 EQ PUSH2 0x147F JUMPI DUP1 PUSH4 0xAAACA558 EQ PUSH2 0x1456 JUMPI DUP1 PUSH4 0xAB19F095 EQ PUSH2 0x13C4 JUMPI DUP1 PUSH4 0xAC03411D EQ PUSH2 0x13A6 JUMPI DUP1 PUSH4 0xB3402BED EQ PUSH2 0x1388 JUMPI DUP1 PUSH4 0xB3DE6981 EQ PUSH2 0x122D JUMPI DUP1 PUSH4 0xB7591080 EQ PUSH2 0x1210 JUMPI DUP1 PUSH4 0xBA1B1F89 EQ PUSH2 0xE6E JUMPI DUP1 PUSH4 0xBA649839 EQ PUSH2 0xDF2 JUMPI DUP1 PUSH4 0xBBCF9FEE EQ PUSH2 0xDD5 JUMPI DUP1 PUSH4 0xBE81C4D4 EQ PUSH2 0xA7C JUMPI DUP1 PUSH4 0xC01FA452 EQ PUSH2 0xA5E JUMPI DUP1 PUSH4 0xC1A287E2 EQ PUSH2 0xA40 JUMPI DUP1 PUSH4 0xCF8F2D37 EQ PUSH2 0xA22 JUMPI DUP1 PUSH4 0xD8CE1C9C EQ PUSH2 0x992 JUMPI DUP1 PUSH4 0xE1493C23 EQ PUSH2 0x974 JUMPI DUP1 PUSH4 0xEF5ED81A EQ PUSH2 0x85F JUMPI DUP1 PUSH4 0xF1BBAD48 EQ PUSH2 0x841 JUMPI DUP1 PUSH4 0xF20B2BE0 EQ PUSH2 0x823 JUMPI DUP1 PUSH4 0xF2FDE38B EQ PUSH2 0x786 JUMPI DUP1 PUSH4 0xF825F143 EQ PUSH2 0x740 JUMPI DUP1 PUSH4 0xF966ADE7 EQ PUSH2 0x3E0 JUMPI PUSH4 0xFDB4D046 EQ PUSH2 0x2FD JUMPI PUSH1 0x0 DUP1 REVERT JUMPDEST CALLVALUE PUSH2 0x3DB JUMPI PUSH1 0x20 CALLDATASIZE PUSH1 0x3 NOT ADD SLT PUSH2 0x3DB JUMPI PUSH1 0x4 CALLDATALOAD PUSH1 0x3 DUP2 LT ISZERO PUSH2 0x3DB JUMPI PUSH2 0x323 DUP2 PUSH2 0x332B JUMP JUMPDEST PUSH1 0x0 MSTORE PUSH1 0x1E PUSH1 0x20 MSTORE PUSH2 0x338 PUSH1 0x40 PUSH1 0x0 KECCAK256 PUSH2 0x3A0E JUMP JUMPDEST DUP1 MLOAD PUSH1 0x20 DUP3 ADD SWAP1 DUP2 MLOAD DUP1 DUP3 GT PUSH1 0x0 EQ PUSH2 0x3D2 JUMPI PUSH2 0x354 SWAP2 PUSH2 0x36C3 JUMP JUMPDEST DUP3 MLOAD ISZERO PUSH2 0x3C8 JUMPI DUP2 MLOAD SWAP3 PUSH2 0x2710 DUP5 MUL SWAP4 DUP1 DUP6 DIV PUSH2 0x2710 EQ SWAP1 ISZERO OR ISZERO PUSH2 0x3B2 JUMPI PUSH2 0x381 PUSH1 0xC0 SWAP5 DUP3 MLOAD SWAP1 PUSH2 0x396B JUMP JUMPDEST DUP2 MLOAD SWAP4 MLOAD SWAP3 PUSH1 0x40 PUSH1 0x60 DUP5 ADD MLOAD SWAP4 ADD MLOAD SWAP4 PUSH1 0x40 MLOAD SWAP6 DUP7 MSTORE PUSH1 0x20 DUP7 ADD MSTORE PUSH1 0x40 DUP6 ADD MSTORE PUSH1 0x60 DUP5 ADD MSTORE PUSH1 0x80 DUP4 ADD MSTORE PUSH1 0xA0 DUP3 ADD MSTORE RETURN JUMPDEST PUSH4 0x4E487B71 PUSH1 0xE0 SHL PUSH1 0x0 MSTORE PUSH1 0x11 PUSH1 0x4 MSTORE PUSH1 0x24 PUSH1 0x0 REVERT JUMPDEST PUSH1 0xC0 SWAP3 PUSH1 0x0 PUSH2 0x381 JUMP JUMPDEST POP POP PUSH1 0x0 PUSH2 0x354 JUMP JUMPDEST PUSH1 0x0 DUP1 REVERT JUMPDEST CALLVALUE PUSH2 0x3DB JUMPI PUSH1 0x0 CALLDATASIZE PUSH1 0x3 NOT ADD SLT PUSH2 0x3DB JUMPI PUSH2 0x3F9 PUSH2 0x3C20 JUMP JUMPDEST PUSH2 0x401 PUSH2 0x3C42 JUMP JUMPDEST CALLER PUSH1 0x0 MSTORE PUSH1 0x15 PUSH1 0x20 MSTORE PUSH1 0x40 PUSH1 0x0 KECCAK256 PUSH1 0x7 DUP2 ADD DUP1 SLOAD ISZERO PUSH2 0x737 JUMPI JUMPDEST POP PUSH1 0x8 DUP2 ADD PUSH2 0x42A DUP2 SLOAD PUSH2 0x3610 JUMP JUMPDEST SWAP1 SSTORE PUSH1 0xA TIMESTAMP SWAP2 ADD SSTORE CALLER PUSH1 0x0 MSTORE PUSH1 0x18 PUSH1 0x20 MSTORE PUSH1 0x40 PUSH1 0x0 KECCAK256 CALLER PUSH1 0x0 MSTORE PUSH1 0x15 PUSH1 0x20 MSTORE PUSH1 0x40 PUSH1 0x0 KECCAK256 PUSH1 0x5 DUP2 ADD PUSH2 0x45F PUSH1 0xFF DUP3 SLOAD AND PUSH2 0x3AB6 JUMP JUMPDEST PUSH1 0x7 DUP4 ADD DUP1 SLOAD SWAP3 PUSH2 0x47C PUSH1 0xFF DUP6 AND PUSH2 0x476 DUP2 PUSH2 0x332B JUMP JUMPDEST ISZERO PUSH2 0x3AF3 JUMP JUMPDEST PUSH1 0x1 DUP6 ADD SLOAD PUSH1 0x2 DUP1 DUP8 ADD SLOAD PUSH1 0x3 DUP9 ADD SLOAD SWAP2 SLOAD PUSH1 0x40 MLOAD PUSH4 0x23B872DD PUSH1 0xE0 SHL DUP2 MSTORE CALLER PUSH1 0x4 DUP3 ADD MSTORE ADDRESS PUSH1 0x24 DUP3 ADD MSTORE PUSH1 0x44 DUP2 ADD DUP5 SWAP1 MSTORE SWAP4 SWAP9 SWAP3 SWAP8 SWAP2 SWAP7 SWAP3 SWAP4 SWAP3 PUSH1 0x8 SWAP3 SWAP1 SWAP3 SHR PUSH1 0xFF AND SWAP2 SWAP1 PUSH1 0x20 SWAP1 DUP5 SWAP1 PUSH1 0x1 PUSH1 0x1 PUSH1 0xA0 SHL SUB AND DUP2 PUSH1 0x0 DUP2 PUSH1 0x64 DUP2 ADD SUB SWAP3 GAS CALL SWAP6 DUP7 ISZERO PUSH2 0x72B JUMPI PUSH2 0x531 PUSH32 0xAAAF5210D538D86FBB7B5066270BA0845EE01A7AE7406AEE269F307E493173D7 SWAP6 PUSH2 0x51F PUSH1 0x1 SWAP10 PUSH1 0x40 SWAP8 PUSH1 0x0 SWAP2 PUSH2 0x6FC JUMPI JUMPDEST POP PUSH2 0x3678 JUMP JUMPDEST CALLER PUSH1 0x0 MSTORE PUSH1 0x19 PUSH1 0x20 MSTORE DUP6 PUSH1 0x0 KECCAK256 PUSH2 0x3B50 JUMP JUMPDEST DUP7 PUSH1 0xFF NOT DUP3 SLOAD AND OR SWAP1 SSTORE CALLER PUSH1 0x0 MSTORE PUSH1 0x18 PUSH1 0x20 MSTORE PUSH2 0x57B DUP4 PUSH1 0x0 KECCAK256 PUSH1 0x7 PUSH1 0x0 SWAP2 DUP3 DUP2 SSTORE DUP3 PUSH1 0x1 DUP3 ADD SSTORE DUP3 PUSH1 0x2 DUP3 ADD SSTORE DUP3 PUSH1 0x3 DUP3 ADD SSTORE DUP3 PUSH1 0x4 DUP3 ADD SSTORE DUP3 PUSH1 0x5 DUP3 ADD SSTORE DUP3 PUSH1 0x6 DUP3 ADD SSTORE ADD SSTORE JUMP JUMPDEST PUSH1 0xFF NOT DUP2 SLOAD AND SWAP1 SSTORE PUSH1 0x3 DUP5 ADD PUSH2 0x591 DUP2 SLOAD PUSH2 0x3610 JUMP JUMPDEST SWAP1 SSTORE PUSH2 0x59C DUP2 PUSH2 0x332B JUMP JUMPDEST DUP1 PUSH1 0x0 MSTORE PUSH1 0x1E PUSH1 0x20 MSTORE PUSH1 0x3 DUP3 PUSH1 0x0 KECCAK256 DUP7 DUP2 ADD PUSH2 0x5B9 DUP12 DUP3 SLOAD PUSH2 0x36C3 JUMP JUMPDEST SWAP1 SSTORE ADD PUSH2 0x5C7 DUP8 DUP3 SLOAD PUSH2 0x36B6 JUMP JUMPDEST SWAP1 SSTORE DUP2 MLOAD SWAP1 DUP7 DUP3 MSTORE PUSH2 0x5D8 DUP2 PUSH2 0x332B JUMP JUMPDEST PUSH1 0x20 DUP3 ADD MSTORE LOG1 ADD DUP1 SLOAD SWAP1 CALLER PUSH1 0x0 MSTORE PUSH1 0x15 PUSH1 0x20 MSTORE PUSH1 0x40 PUSH1 0x0 KECCAK256 PUSH1 0x3 SLOAD SWAP1 PUSH1 0x3 DUP2 ADD SLOAD PUSH1 0x5 DUP2 LT ISZERO PUSH2 0x6EA JUMPI JUMPDEST PUSH1 0xA GT ISZERO PUSH2 0x6D8 JUMPI JUMPDEST PUSH1 0x1 ADD SWAP1 DUP2 SLOAD PUSH2 0x3E8 PUSH2 0x61F DUP4 DUP4 PUSH2 0x36B6 JUMP JUMPDEST GT ISZERO PUSH2 0x6C7 JUMPI POP POP PUSH2 0x3E8 SWAP1 SSTORE JUMPDEST SLOAD PUSH1 0x40 MLOAD SWAP2 DUP3 MSTORE PUSH1 0x20 DUP3 ADD MSTORE PUSH1 0x60 PUSH1 0x40 DUP3 ADD MSTORE PUSH1 0x14 PUSH1 0x60 DUP3 ADD MSTORE PUSH20 0x14DD58D8D95CDCD99D5B081C995C185E5B595B9D PUSH1 0x62 SHL PUSH1 0x80 DUP3 ADD MSTORE PUSH32 0x61E207E3BAE74A62E24453D64A564D920B61F71211E255D085D78B5EB2DAF136 PUSH1 0xA0 CALLER SWAP3 LOG2 PUSH1 0x40 MLOAD SWAP3 DUP4 MSTORE PUSH1 0x20 DUP4 ADD MSTORE PUSH1 0x40 DUP3 ADD MSTORE PUSH32 0x2CEBE3C4A7E8E81CA2035A6CB3EE450BB6401D9B6636652E183583F047049572 PUSH1 0x60 CALLER SWAP3 LOG2 PUSH1 0x1 PUSH1 0x0 SSTORE STOP JUMPDEST SWAP1 PUSH2 0x6D1 SWAP2 PUSH2 0x36B6 JUMP JUMPDEST SWAP1 SSTORE PUSH2 0x62D JUMP JUMPDEST SWAP1 PUSH1 0xA DUP2 ADD DUP1 SWAP2 GT PUSH2 0x3B2 JUMPI SWAP1 PUSH2 0x60C JUMP JUMPDEST SWAP2 PUSH1 0x14 DUP2 ADD DUP1 SWAP2 GT PUSH2 0x3B2 JUMPI SWAP2 PUSH2 0x603 JUMP JUMPDEST PUSH2 0x71E SWAP2 POP PUSH1 0x20 RETURNDATASIZE PUSH1 0x20 GT PUSH2 0x724 JUMPI JUMPDEST PUSH2 0x716 DUP2 DUP4 PUSH2 0x3414 JUMP JUMPDEST DUP2 ADD SWAP1 PUSH2 0x3660 JUMP JUMPDEST DUP15 PUSH2 0x519 JUMP JUMPDEST POP RETURNDATASIZE PUSH2 0x70C JUMP JUMPDEST PUSH1 0x40 MLOAD RETURNDATASIZE PUSH1 0x0 DUP3 RETURNDATACOPY RETURNDATASIZE SWAP1 REVERT JUMPDEST TIMESTAMP SWAP1 SSTORE DUP2 PUSH2 0x41B JUMP JUMPDEST CALLVALUE PUSH2 0x3DB JUMPI PUSH1 0x20 PUSH2 0x750 CALLDATASIZE PUSH2 0x3522 JUMP JUMPDEST DUP2 PUSH2 0x764 PUSH1 0x40 MLOAD SWAP3 DUP4 DUP2 MLOAD SWAP4 DUP5 SWAP3 ADD PUSH2 0x34DA JUMP JUMPDEST PUSH1 0x16 SWAP1 DUP3 ADD SWAP1 DUP2 MSTORE DUP2 SWAP1 SUB DUP3 ADD SWAP1 KECCAK256 SLOAD PUSH1 0x40 MLOAD PUSH1 0x1 PUSH1 0x1 PUSH1 0xA0 SHL SUB SWAP1 SWAP2 AND DUP2 MSTORE RETURN JUMPDEST CALLVALUE PUSH2 0x3DB JUMPI PUSH1 0x20 CALLDATASIZE PUSH1 0x3 NOT ADD SLT PUSH2 0x3DB JUMPI PUSH2 0x79F PUSH2 0x32C4 JUMP JUMPDEST PUSH2 0x7A7 PUSH2 0x3C5F JUMP JUMPDEST PUSH1 0x1 PUSH1 0x1 PUSH1 0xA0 SHL SUB DUP2 AND SWAP1 DUP2 ISZERO PUSH2 0x80D JUMPI PUSH1 0x1 DUP1 SLOAD PUSH2 0x100 PUSH1 0x1 PUSH1 0xA8 SHL SUB NOT DUP2 AND PUSH1 0x8 SWAP4 DUP5 SHL PUSH2 0x100 PUSH1 0x1 PUSH1 0xA8 SHL SUB AND OR SWAP1 SWAP2 SSTORE SWAP1 SHR PUSH1 0x1 PUSH1 0x1 PUSH1 0xA0 SHL SUB AND PUSH32 0x8BE0079C531659141344CD1FD0A4F28419497F9722A3DAAFE3B4186F6B6457E0 PUSH1 0x0 DUP1 LOG3 STOP JUMPDEST PUSH4 0x1E4FBDF7 PUSH1 0xE0 SHL PUSH1 0x0 MSTORE PUSH1 0x0 PUSH1 0x4 MSTORE PUSH1 0x24 PUSH1 0x0 REVERT JUMPDEST CALLVALUE PUSH2 0x3DB JUMPI PUSH1 0x0 CALLDATASIZE PUSH1 0x3 NOT ADD SLT PUSH2 0x3DB JUMPI PUSH1 0x20 PUSH1 0xF SLOAD PUSH1 0x40 MLOAD SWAP1 DUP2 MSTORE RETURN JUMPDEST CALLVALUE PUSH2 0x3DB JUMPI PUSH1 0x0 CALLDATASIZE PUSH1 0x3 NOT ADD SLT PUSH2 0x3DB JUMPI PUSH1 0x20 PUSH1 0x8 SLOAD PUSH1 0x40 MLOAD SWAP1 DUP2 MSTORE RETURN JUMPDEST CALLVALUE PUSH2 0x3DB JUMPI PUSH2 0x86D CALLDATASIZE PUSH2 0x35F6 JUMP JUMPDEST SWAP2 PUSH2 0x876 PUSH2 0x3C5F JUMP JUMPDEST DUP1 ISZERO ISZERO DUP1 PUSH2 0x969 JUMPI JUMPDEST ISZERO PUSH2 0x931 JUMPI DUP2 ISZERO ISZERO DUP1 PUSH2 0x925 JUMPI JUMPDEST ISZERO PUSH2 0x8ED JUMPI DUP3 ISZERO ISZERO DUP1 PUSH2 0x8E2 JUMPI JUMPDEST ISZERO PUSH2 0x8AB JUMPI PUSH1 0x3 SSTORE PUSH1 0x4 SSTORE PUSH1 0x5 SSTORE STOP JUMPDEST PUSH1 0x40 MLOAD PUSH3 0x461BCD PUSH1 0xE5 SHL DUP2 MSTORE PUSH1 0x20 PUSH1 0x4 DUP3 ADD MSTORE PUSH1 0xF PUSH1 0x24 DUP3 ADD MSTORE PUSH15 0x496E76616C69642070656E616C7479 PUSH1 0x88 SHL PUSH1 0x44 DUP3 ADD MSTORE PUSH1 0x64 SWAP1 REVERT JUMPDEST POP PUSH1 0x64 DUP4 GT ISZERO PUSH2 0x89B JUMP JUMPDEST PUSH1 0x40 MLOAD PUSH3 0x461BCD PUSH1 0xE5 SHL DUP2 MSTORE PUSH1 0x20 PUSH1 0x4 DUP3 ADD MSTORE PUSH1 0x10 PUSH1 0x24 DUP3 ADD MSTORE PUSH16 0x496E76616C6964206465637265617365 PUSH1 0x80 SHL PUSH1 0x44 DUP3 ADD MSTORE PUSH1 0x64 SWAP1 REVERT JUMPDEST POP PUSH2 0x1F4 DUP3 GT ISZERO PUSH2 0x88D JUMP JUMPDEST PUSH1 0x40 MLOAD PUSH3 0x461BCD PUSH1 0xE5 SHL DUP2 MSTORE PUSH1 0x20 PUSH1 0x4 DUP3 ADD MSTORE PUSH1 0x10 PUSH1 0x24 DUP3 ADD MSTORE PUSH16 0x496E76616C696420696E637265617365 PUSH1 0x80 SHL PUSH1 0x44 DUP3 ADD MSTORE PUSH1 0x64 SWAP1 REVERT JUMPDEST POP PUSH1 0x64 DUP2 GT ISZERO PUSH2 0x87F JUMP JUMPDEST CALLVALUE PUSH2 0x3DB JUMPI PUSH1 0x0 CALLDATASIZE PUSH1 0x3 NOT ADD SLT PUSH2 0x3DB JUMPI PUSH1 0x20 PUSH1 0x40 MLOAD PUSH3 0x93A80 DUP2 MSTORE RETURN JUMPDEST CALLVALUE PUSH2 0x3DB JUMPI PUSH1 0x20 CALLDATASIZE PUSH1 0x3 NOT ADD SLT PUSH2 0x3DB JUMPI PUSH1 0x1 PUSH1 0x1 PUSH1 0xA0 SHL SUB PUSH2 0x9B3 PUSH2 0x32C4 JUMP JUMPDEST AND PUSH1 0x0 MSTORE PUSH1 0x1D PUSH1 0x20 MSTORE PUSH1 0x40 PUSH1 0x0 KECCAK256 PUSH1 0x40 MLOAD SWAP1 DUP2 PUSH1 0x20 DUP3 SLOAD SWAP2 DUP3 DUP2 MSTORE ADD SWAP2 PUSH1 0x0 MSTORE PUSH1 0x20 PUSH1 0x0 KECCAK256 SWAP1 PUSH1 0x0 JUMPDEST DUP2 DUP2 LT PUSH2 0xA03 JUMPI PUSH2 0x9FF DUP6 PUSH2 0x9F3 DUP2 DUP8 SUB DUP3 PUSH2 0x3414 JUMP JUMPDEST PUSH1 0x40 MLOAD SWAP2 DUP3 SWAP2 DUP3 PUSH2 0x35B3 JUMP JUMPDEST SUB SWAP1 RETURN JUMPDEST DUP3 SLOAD PUSH1 0x1 PUSH1 0x1 PUSH1 0xA0 SHL SUB AND DUP5 MSTORE PUSH1 0x20 SWAP1 SWAP4 ADD SWAP3 PUSH1 0x1 SWAP3 DUP4 ADD SWAP3 ADD PUSH2 0x9DC JUMP JUMPDEST CALLVALUE PUSH2 0x3DB JUMPI PUSH1 0x0 CALLDATASIZE PUSH1 0x3 NOT ADD SLT PUSH2 0x3DB JUMPI PUSH1 0x20 PUSH1 0x14 SLOAD PUSH1 0x40 MLOAD SWAP1 DUP2 MSTORE RETURN JUMPDEST CALLVALUE PUSH2 0x3DB JUMPI PUSH1 0x0 CALLDATASIZE PUSH1 0x3 NOT ADD SLT PUSH2 0x3DB JUMPI PUSH1 0x20 PUSH1 0x10 SLOAD PUSH1 0x40 MLOAD SWAP1 DUP2 MSTORE RETURN JUMPDEST CALLVALUE PUSH2 0x3DB JUMPI PUSH1 0x0 CALLDATASIZE PUSH1 0x3 NOT ADD SLT PUSH2 0x3DB JUMPI PUSH1 0x20 PUSH1 0x7 SLOAD PUSH1 0x40 MLOAD SWAP1 DUP2 MSTORE RETURN JUMPDEST CALLVALUE PUSH2 0x3DB JUMPI PUSH1 0x20 CALLDATASIZE PUSH1 0x3 NOT ADD SLT PUSH2 0x3DB JUMPI PUSH2 0xA95 PUSH2 0x32C4 JUMP JUMPDEST PUSH2 0xA9D PUSH2 0x3C20 JUMP JUMPDEST PUSH1 0x1 DUP1 PUSH1 0xA0 SHL SUB AND DUP1 PUSH1 0x0 MSTORE PUSH1 0x18 PUSH1 0x20 MSTORE PUSH1 0x40 PUSH1 0x0 KECCAK256 DUP2 PUSH1 0x0 MSTORE PUSH1 0x15 PUSH1 0x20 MSTORE PUSH1 0x40 PUSH1 0x0 KECCAK256 SWAP1 PUSH1 0x5 DUP3 ADD SWAP1 PUSH2 0xAD4 PUSH1 0xFF DUP4 SLOAD AND PUSH2 0x3AB6 JUMP JUMPDEST PUSH1 0x7 DUP2 ADD SWAP2 DUP3 SLOAD SWAP3 PUSH2 0xAEC PUSH1 0xFF DUP6 AND PUSH2 0x476 DUP2 PUSH2 0x332B JUMP JUMPDEST PUSH2 0xAFD PUSH1 0x5 DUP5 ADD SLOAD PUSH1 0x10 SLOAD SWAP1 PUSH2 0x36B6 JUMP JUMPDEST TIMESTAMP GT ISZERO PUSH2 0xD98 JUMPI PUSH2 0xB27 PUSH1 0xFF PUSH1 0x1 DUP6 ADD SLOAD SWAP6 PUSH1 0x8 SHR AND SWAP4 DUP8 PUSH1 0x0 MSTORE PUSH1 0x19 PUSH1 0x20 MSTORE PUSH1 0x40 PUSH1 0x0 KECCAK256 PUSH2 0x3B50 JUMP JUMPDEST PUSH1 0x2 PUSH1 0xFF NOT DUP3 SLOAD AND OR SWAP1 SSTORE DUP5 PUSH1 0x0 MSTORE PUSH1 0x18 PUSH1 0x20 MSTORE PUSH2 0xB73 PUSH1 0x40 PUSH1 0x0 KECCAK256 PUSH1 0x7 PUSH1 0x0 SWAP2 DUP3 DUP2 SSTORE DUP3 PUSH1 0x1 DUP3 ADD SSTORE DUP3 PUSH1 0x2 DUP3 ADD SSTORE DUP3 PUSH1 0x3 DUP3 ADD SSTORE DUP3 PUSH1 0x4 DUP3 ADD SSTORE DUP3 PUSH1 0x5 DUP3 ADD SSTORE DUP3 PUSH1 0x6 DUP3 ADD SSTORE ADD SSTORE JUMP JUMPDEST PUSH1 0xFF NOT DUP2 SLOAD AND SWAP1 SSTORE PUSH1 0x4 DUP4 ADD PUSH2 0xB89 DUP2 SLOAD PUSH2 0x3610 JUMP JUMPDEST SWAP1 SSTORE TIMESTAMP PUSH1 0x6 DUP5 ADD SSTORE PUSH2 0xB9A DUP2 PUSH2 0x332B JUMP JUMPDEST DUP1 PUSH1 0x0 MSTORE PUSH1 0x1E PUSH1 0x20 MSTORE PUSH1 0x2 PUSH1 0x40 PUSH1 0x0 KECCAK256 PUSH1 0x1 DUP2 ADD PUSH2 0xBB9 DUP6 DUP3 SLOAD PUSH2 0x36C3 JUMP JUMPDEST SWAP1 SSTORE DUP1 SLOAD DUP5 GT PUSH2 0xD8F JUMPI PUSH2 0xBCE DUP5 DUP3 SLOAD PUSH2 0x36C3 JUMP JUMPDEST DUP2 SSTORE JUMPDEST ADD PUSH2 0xBDD DUP4 DUP3 SLOAD PUSH2 0x36B6 JUMP JUMPDEST SWAP1 SSTORE DUP4 PUSH1 0x0 MSTORE PUSH1 0x1C PUSH1 0x20 MSTORE PUSH1 0x40 PUSH1 0x0 KECCAK256 SWAP2 PUSH1 0x0 JUMPDEST DUP6 DUP5 SLOAD DUP3 LT ISZERO PUSH2 0xC89 JUMPI SWAP1 PUSH1 0x1 SWAP2 PUSH2 0xC09 DUP3 DUP8 PUSH2 0x359B JUMP JUMPDEST DUP5 DUP1 PUSH1 0xA0 SHL SUB SWAP2 SLOAD SWAP1 PUSH1 0x3 SHL SHR AND DUP1 PUSH1 0x0 MSTORE PUSH1 0x15 PUSH1 0x20 MSTORE PUSH32 0x7CAEC860ECFF1E31964884E0CC93EE9F08887814ABAF9A298B2464D774FAC8F2 PUSH1 0x20 PUSH2 0xC73 DUP7 PUSH1 0x40 PUSH1 0x0 KECCAK256 ADD DUP1 SLOAD SWAP1 PUSH1 0x5 SLOAD DUP3 GT PUSH1 0x0 EQ PUSH2 0xC80 JUMPI PUSH2 0xC69 PUSH1 0x5 SLOAD DUP3 SLOAD PUSH2 0x36C3 JUMP JUMPDEST DUP2 SSTORE JUMPDEST SLOAD SWAP1 PUSH2 0x36C3 JUMP JUMPDEST PUSH1 0x40 MLOAD SWAP1 DUP2 MSTORE LOG3 ADD PUSH2 0xBF1 JUMP JUMPDEST PUSH1 0x32 DUP2 SSTORE PUSH2 0xC6C JUMP JUMPDEST DUP4 DUP4 DUP3 PUSH1 0x1 DUP10 ADD DUP1 SLOAD SWAP1 DUP3 PUSH1 0x0 MSTORE PUSH1 0x15 PUSH1 0x20 MSTORE PUSH1 0x40 PUSH1 0x0 KECCAK256 PUSH1 0x4 SLOAD SWAP1 PUSH1 0x1 PUSH1 0x4 DUP3 ADD SLOAD GT PUSH2 0xD71 JUMPI JUMPDEST PUSH32 0xA370A9B28903C6D9B1887A18EB1851893F025FD122E73AA883CD77D080AB831A SWAP7 SWAP4 PUSH1 0x40 SWAP7 SWAP6 SWAP4 PUSH32 0x61E207E3BAE74A62E24453D64A564D920B61F71211E255D085D78B5EB2DAF136 SWAP4 PUSH1 0x1 PUSH1 0xA0 SWAP5 ADD SWAP1 DUP1 DUP3 SLOAD GT PUSH1 0x0 EQ PUSH2 0xD67 JUMPI PUSH2 0xD19 SWAP1 DUP3 SLOAD PUSH2 0x36C3 JUMP JUMPDEST SWAP1 SSTORE JUMPDEST SLOAD DUP8 MLOAD SWAP2 DUP3 MSTORE PUSH1 0x20 DUP3 ADD MSTORE PUSH1 0x60 DUP8 DUP3 ADD MSTORE PUSH1 0xE PUSH1 0x60 DUP3 ADD MSTORE PUSH14 0x131BD85B88191959985D5B1D1959 PUSH1 0x92 SHL PUSH1 0x80 DUP3 ADD MSTORE LOG2 DUP3 MLOAD SWAP2 DUP3 MSTORE PUSH2 0xD5A DUP2 PUSH2 0x332B JUMP JUMPDEST PUSH1 0x20 DUP3 ADD MSTORE LOG2 PUSH1 0x1 PUSH1 0x0 SSTORE STOP JUMPDEST POP PUSH1 0x32 SWAP1 SSTORE PUSH2 0xD1C JUMP JUMPDEST SWAP1 SWAP6 SWAP3 SWAP5 SWAP4 POP PUSH1 0x64 DUP7 ADD DUP1 SWAP7 GT PUSH2 0x3B2 JUMPI SWAP2 SWAP5 SWAP3 SWAP4 DUP7 SWAP4 SWAP1 SWAP3 PUSH2 0xCB2 JUMP JUMPDEST PUSH1 0x0 DUP2 SSTORE PUSH2 0xBD1 JUMP JUMPDEST PUSH1 0x40 MLOAD PUSH3 0x461BCD PUSH1 0xE5 SHL DUP2 MSTORE PUSH1 0x20 PUSH1 0x4 DUP3 ADD MSTORE PUSH1 0x15 PUSH1 0x24 DUP3 ADD MSTORE PUSH21 0x23B930B1B2903832B934B7B2103737BA1037BB32B9 PUSH1 0x59 SHL PUSH1 0x44 DUP3 ADD MSTORE PUSH1 0x64 SWAP1 REVERT JUMPDEST CALLVALUE PUSH2 0x3DB JUMPI PUSH1 0x0 CALLDATASIZE PUSH1 0x3 NOT ADD SLT PUSH2 0x3DB JUMPI PUSH1 0x20 PUSH1 0x40 MLOAD PUSH2 0x12C DUP2 MSTORE RETURN JUMPDEST CALLVALUE PUSH2 0x3DB JUMPI PUSH1 0x20 CALLDATASIZE PUSH1 0x3 NOT ADD SLT PUSH2 0x3DB JUMPI PUSH1 0x1 PUSH1 0x1 PUSH1 0xA0 SHL SUB PUSH2 0xE13 PUSH2 0x32C4 JUMP JUMPDEST AND PUSH1 0x0 MSTORE PUSH1 0x18 PUSH1 0x20 MSTORE PUSH1 0x40 PUSH1 0x0 KECCAK256 PUSH1 0x1 DUP1 PUSH1 0xA0 SHL SUB DUP2 SLOAD AND SWAP1 PUSH2 0x9FF PUSH1 0x1 DUP3 ADD SLOAD SWAP2 PUSH1 0x2 DUP2 ADD SLOAD SWAP4 PUSH1 0x3 DUP3 ADD SLOAD SWAP2 PUSH1 0x4 DUP2 ADD SLOAD PUSH1 0x5 DUP3 ADD SLOAD SWAP1 PUSH1 0x7 PUSH1 0x6 DUP5 ADD SLOAD SWAP4 ADD SLOAD SWAP5 PUSH1 0x40 MLOAD SWAP9 DUP10 SWAP9 PUSH1 0xFF DUP1 DUP10 PUSH1 0x8 SHR AND SWAP9 AND SWAP7 DUP11 PUSH2 0x334B JUMP JUMPDEST CALLVALUE PUSH2 0x3DB JUMPI PUSH2 0xE7C CALLDATASIZE PUSH2 0x3522 JUMP JUMPDEST CALLER PUSH1 0x0 MSTORE PUSH1 0x15 PUSH1 0x20 MSTORE PUSH1 0x40 PUSH1 0x0 KECCAK256 PUSH1 0x7 DUP2 ADD DUP1 SLOAD ISZERO PUSH2 0x1207 JUMPI JUMPDEST POP PUSH1 0x8 DUP2 ADD PUSH2 0xEA5 DUP2 SLOAD PUSH2 0x3610 JUMP JUMPDEST SWAP1 SSTORE PUSH1 0xA TIMESTAMP SWAP2 ADD SSTORE CALLER PUSH1 0x0 MSTORE PUSH1 0x17 PUSH1 0x20 MSTORE PUSH2 0xEC7 PUSH1 0xFF PUSH1 0x40 PUSH1 0x0 KECCAK256 SLOAD AND PUSH2 0x3918 JUMP JUMPDEST PUSH1 0x20 PUSH2 0xEDC PUSH1 0x40 MLOAD SWAP3 DUP4 DUP2 MLOAD SWAP4 DUP5 SWAP3 ADD PUSH2 0x34DA JUMP JUMPDEST PUSH1 0x16 SWAP1 DUP3 ADD SWAP1 DUP2 MSTORE DUP2 SWAP1 SUB PUSH1 0x20 ADD SWAP1 KECCAK256 SLOAD PUSH1 0x1 PUSH1 0x1 PUSH1 0xA0 SHL SUB AND DUP1 ISZERO PUSH2 0x11CD JUMPI CALLER DUP2 EQ PUSH2 0x1190 JUMPI CALLER PUSH1 0x0 MSTORE PUSH1 0x15 PUSH1 0x20 MSTORE PUSH1 0x40 PUSH1 0x0 KECCAK256 DUP2 PUSH1 0x0 MSTORE PUSH1 0x15 PUSH1 0x20 MSTORE PUSH1 0x40 PUSH1 0x0 KECCAK256 SWAP1 PUSH2 0x1F4 PUSH1 0x1 DUP3 ADD SLOAD LT PUSH2 0x1156 JUMPI PUSH1 0x2 PUSH1 0x3 DUP3 ADD SLOAD LT PUSH2 0x111C JUMPI CALLER PUSH1 0x0 MSTORE PUSH1 0x1B PUSH1 0x20 MSTORE PUSH1 0x40 PUSH1 0x0 KECCAK256 PUSH1 0x1 DUP1 PUSH1 0xA0 SHL SUB DUP5 AND PUSH1 0x0 MSTORE PUSH1 0x20 MSTORE PUSH1 0xFF PUSH1 0x40 PUSH1 0x0 KECCAK256 SLOAD AND PUSH2 0x10E5 JUMPI PUSH1 0x9 DUP2 ADD DUP1 SLOAD PUSH1 0x14 SLOAD GT ISZERO PUSH2 0x10AA JUMPI CALLER PUSH1 0x0 MSTORE PUSH1 0x1B PUSH1 0x20 MSTORE PUSH1 0x40 PUSH1 0x0 KECCAK256 PUSH1 0x1 DUP1 PUSH1 0xA0 SHL SUB DUP6 AND PUSH1 0x0 MSTORE PUSH1 0x20 MSTORE PUSH1 0x40 PUSH1 0x0 KECCAK256 PUSH1 0x1 PUSH1 0xFF NOT DUP3 SLOAD AND OR SWAP1 SSTORE DUP4 PUSH1 0x0 MSTORE PUSH1 0x1C PUSH1 0x20 MSTORE PUSH2 0xFB6 CALLER PUSH1 0x40 PUSH1 0x0 KECCAK256 PUSH2 0x3A75 JUMP JUMPDEST CALLER PUSH1 0x0 MSTORE PUSH1 0x1D PUSH1 0x20 MSTORE PUSH2 0xFCD DUP5 PUSH1 0x40 PUSH1 0x0 KECCAK256 PUSH2 0x3A75 JUMP JUMPDEST PUSH2 0xFD7 DUP2 SLOAD PUSH2 0x3610 JUMP JUMPDEST SWAP1 SSTORE PUSH1 0x1 DUP3 ADD DUP1 SLOAD DUP1 PUSH2 0x103A JUMPI POP PUSH32 0xA5345FB1E72426F31AEB07E97F01DEAAE907F89C6EAFD33EF8E31520E7032E24 SWAP2 PUSH1 0x96 PUSH2 0x1026 SWAP3 SSTORE JUMPDEST PUSH2 0x1035 PUSH1 0x40 MLOAD SWAP3 DUP4 SWAP3 PUSH1 0x40 DUP5 MSTORE PUSH1 0x40 DUP5 ADD SWAP1 PUSH2 0x398B JUMP JUMPDEST DUP3 DUP2 SUB PUSH1 0x20 DUP5 ADD MSTORE CALLER SWAP6 PUSH2 0x398B JUMP JUMPDEST SUB SWAP1 LOG3 STOP JUMPDEST SWAP1 PUSH2 0x12C DUP3 LT PUSH2 0x1071 JUMPI JUMPDEST POP POP PUSH2 0x1026 PUSH32 0xA5345FB1E72426F31AEB07E97F01DEAAE907F89C6EAFD33EF8E31520E7032E24 SWAP2 PUSH2 0x100F JUMP JUMPDEST SWAP1 SWAP2 PUSH1 0x1E DUP4 ADD DUP1 SWAP4 GT PUSH2 0x3B2 JUMPI SWAP2 SWAP1 SSTORE PUSH2 0x1026 PUSH32 0xA5345FB1E72426F31AEB07E97F01DEAAE907F89C6EAFD33EF8E31520E7032E24 PUSH2 0x1045 JUMP JUMPDEST PUSH1 0x40 MLOAD PUSH3 0x461BCD PUSH1 0xE5 SHL DUP2 MSTORE PUSH1 0x20 PUSH1 0x4 DUP3 ADD MSTORE PUSH1 0x13 PUSH1 0x24 DUP3 ADD MSTORE PUSH19 0x159BDD58DA081B1A5B5A5D081C995858DA1959 PUSH1 0x6A SHL PUSH1 0x44 DUP3 ADD MSTORE PUSH1 0x64 SWAP1 REVERT JUMPDEST PUSH1 0x40 MLOAD PUSH3 0x461BCD PUSH1 0xE5 SHL DUP2 MSTORE PUSH1 0x20 PUSH1 0x4 DUP3 ADD MSTORE PUSH1 0xF PUSH1 0x24 DUP3 ADD MSTORE PUSH15 0x105B1C9958591E481D9BDD58DA1959 PUSH1 0x8A SHL PUSH1 0x44 DUP3 ADD MSTORE PUSH1 0x64 SWAP1 REVERT JUMPDEST PUSH1 0x40 MLOAD PUSH3 0x461BCD PUSH1 0xE5 SHL DUP2 MSTORE PUSH1 0x20 PUSH1 0x4 DUP3 ADD MSTORE PUSH1 0x12 PUSH1 0x24 DUP3 ADD MSTORE PUSH18 0x4E65656420322B2072657061796D656E7473 PUSH1 0x70 SHL PUSH1 0x44 DUP3 ADD MSTORE PUSH1 0x64 SWAP1 REVERT JUMPDEST PUSH1 0x40 MLOAD PUSH3 0x461BCD PUSH1 0xE5 SHL DUP2 MSTORE PUSH1 0x20 PUSH1 0x4 DUP3 ADD MSTORE PUSH1 0x12 PUSH1 0x24 DUP3 ADD MSTORE PUSH18 0x125B9CDD59999A58DA595B9D081D1C9D5CDD PUSH1 0x72 SHL PUSH1 0x44 DUP3 ADD MSTORE PUSH1 0x64 SWAP1 REVERT JUMPDEST PUSH1 0x40 MLOAD PUSH3 0x461BCD PUSH1 0xE5 SHL DUP2 MSTORE PUSH1 0x20 PUSH1 0x4 DUP3 ADD MSTORE PUSH1 0x15 PUSH1 0x24 DUP3 ADD MSTORE PUSH21 0x21B0B73737BA103B37BAB1B4103CB7BAB939B2B633 PUSH1 0x59 SHL PUSH1 0x44 DUP3 ADD MSTORE PUSH1 0x64 SWAP1 REVERT JUMPDEST PUSH1 0x40 MLOAD PUSH3 0x461BCD PUSH1 0xE5 SHL DUP2 MSTORE PUSH1 0x20 PUSH1 0x4 DUP3 ADD MSTORE PUSH1 0x12 PUSH1 0x24 DUP3 ADD MSTORE PUSH18 0x155CD95C9B985B59481B9BDD08199BDD5B99 PUSH1 0x72 SHL PUSH1 0x44 DUP3 ADD MSTORE PUSH1 0x64 SWAP1 REVERT JUMPDEST TIMESTAMP SWAP1 SSTORE DUP3 PUSH2 0xE96 JUMP JUMPDEST CALLVALUE PUSH2 0x3DB JUMPI PUSH1 0x0 CALLDATASIZE PUSH1 0x3 NOT ADD SLT PUSH2 0x3DB JUMPI PUSH1 0x20 PUSH1 0x40 MLOAD PUSH2 0x258 DUP2 MSTORE RETURN JUMPDEST CALLVALUE PUSH2 0x3DB JUMPI PUSH1 0x0 CALLDATASIZE PUSH1 0x3 NOT ADD SLT PUSH2 0x3DB JUMPI PUSH2 0x1246 PUSH2 0x3A4A JUMP JUMPDEST POP PUSH2 0x124F PUSH2 0x3A4A JUMP JUMPDEST POP PUSH2 0x1258 PUSH2 0x3A4A JUMP JUMPDEST POP PUSH1 0x1E PUSH1 0x20 MSTORE PUSH1 0x2 PUSH1 0x0 MSTORE PUSH2 0x1E0 PUSH32 0x873299C6A6C39B8B92F01922BB622DF4A3236EA2876AAC2DA76F6C092CF7E98F PUSH2 0x1386 PUSH32 0x8A1EA6CCFDF9F988BDC16303C81231F9B192785454B34880C28E5C30362354C5 PUSH2 0x1351 PUSH2 0x12E9 PUSH2 0x12E3 PUSH2 0x12DD PUSH32 0x65CE8396B736F5DA9D881CC6FBCB11EF9721292DC41EC8C40879FD9EDEA5744D PUSH2 0x3A0E JUMP JUMPDEST SWAP6 PUSH2 0x3A0E JUMP JUMPDEST SWAP3 PUSH2 0x3A0E JUMP JUMPDEST SWAP2 PUSH2 0x131F PUSH1 0x40 MLOAD DUP1 SWAP7 PUSH1 0x80 DUP1 SWAP2 DUP1 MLOAD DUP5 MSTORE PUSH1 0x20 DUP2 ADD MLOAD PUSH1 0x20 DUP6 ADD MSTORE PUSH1 0x40 DUP2 ADD MLOAD PUSH1 0x40 DUP6 ADD MSTORE PUSH1 0x60 DUP2 ADD MLOAD PUSH1 0x60 DUP6 ADD MSTORE ADD MLOAD SWAP2 ADD MSTORE JUMP JUMPDEST DUP1 MLOAD PUSH1 0xA0 DUP7 ADD MSTORE PUSH1 0x20 DUP2 ADD MLOAD PUSH1 0xC0 DUP7 ADD MSTORE PUSH1 0x40 DUP2 ADD MLOAD PUSH1 0xE0 DUP7 ADD MSTORE PUSH1 0x60 DUP2 ADD MLOAD PUSH2 0x100 DUP7 ADD MSTORE PUSH1 0x80 ADD MLOAD PUSH2 0x120 DUP6 ADD MSTORE JUMP JUMPDEST DUP1 MLOAD PUSH2 0x140 DUP5 ADD MSTORE PUSH1 0x20 DUP2 ADD MLOAD PUSH2 0x160 DUP5 ADD MSTORE PUSH1 0x40 DUP2 ADD MLOAD PUSH2 0x180 DUP5 ADD MSTORE PUSH1 0x60 DUP2 ADD MLOAD PUSH2 0x1A0 DUP5 ADD MSTORE PUSH1 0x80 ADD MLOAD PUSH2 0x1C0 DUP4 ADD MSTORE JUMP JUMPDEST RETURN JUMPDEST CALLVALUE PUSH2 0x3DB JUMPI PUSH1 0x0 CALLDATASIZE PUSH1 0x3 NOT ADD SLT PUSH2 0x3DB JUMPI PUSH1 0x20 PUSH1 0x12 SLOAD PUSH1 0x40 MLOAD SWAP1 DUP2 MSTORE RETURN JUMPDEST CALLVALUE PUSH2 0x3DB JUMPI PUSH1 0x0 CALLDATASIZE PUSH1 0x3 NOT ADD SLT PUSH2 0x3DB JUMPI PUSH1 0x20 PUSH1 0x3 SLOAD PUSH1 0x40 MLOAD SWAP1 DUP2 MSTORE RETURN JUMPDEST CALLVALUE PUSH2 0x3DB JUMPI PUSH1 0x20 CALLDATASIZE PUSH1 0x3 NOT ADD SLT PUSH2 0x3DB JUMPI PUSH1 0xE0 PUSH2 0x13DF PUSH2 0x32C4 JUMP JUMPDEST PUSH1 0x1 PUSH1 0x1 PUSH1 0xA0 SHL SUB DUP2 AND PUSH1 0x0 SWAP1 DUP2 MSTORE PUSH1 0x1A PUSH1 0x20 MSTORE PUSH1 0x40 SWAP1 KECCAK256 PUSH2 0x1400 SWAP1 PUSH2 0x3A0E JUMP JUMPDEST DUP1 MLOAD SWAP2 PUSH1 0x20 DUP3 ADD MLOAD SWAP2 PUSH1 0x60 PUSH1 0x40 DUP3 ADD MLOAD SWAP2 ADD MLOAD PUSH2 0x141C DUP4 PUSH2 0x3C8B JUMP JUMPDEST SWAP2 PUSH2 0x142F PUSH2 0x1429 DUP6 PUSH2 0x3D21 JUMP JUMPDEST SWAP5 PUSH2 0x3D96 JUMP JUMPDEST SWAP5 PUSH1 0x40 MLOAD SWAP7 DUP8 MSTORE PUSH1 0x20 DUP8 ADD MSTORE PUSH1 0x40 DUP7 ADD MSTORE PUSH1 0x60 DUP6 ADD MSTORE PUSH1 0x80 DUP5 ADD MSTORE PUSH1 0xA0 DUP4 ADD MSTORE PUSH1 0xC0 DUP3 ADD MSTORE RETURN JUMPDEST CALLVALUE PUSH2 0x3DB JUMPI PUSH1 0x0 CALLDATASIZE PUSH1 0x3 NOT ADD SLT PUSH2 0x3DB JUMPI PUSH1 0x2 SLOAD PUSH1 0x40 MLOAD PUSH1 0x1 PUSH1 0x1 PUSH1 0xA0 SHL SUB SWAP1 SWAP2 AND DUP2 MSTORE PUSH1 0x20 SWAP1 RETURN JUMPDEST CALLVALUE PUSH2 0x3DB JUMPI PUSH1 0x40 CALLDATASIZE PUSH1 0x3 NOT ADD SLT PUSH2 0x3DB JUMPI PUSH1 0x4 CALLDATALOAD PUSH1 0x24 CALLDATALOAD PUSH2 0x149E PUSH2 0x3C20 JUMP JUMPDEST PUSH2 0x14A6 PUSH2 0x3C42 JUMP JUMPDEST CALLER PUSH1 0x0 MSTORE PUSH1 0x15 PUSH1 0x20 MSTORE PUSH1 0x40 PUSH1 0x0 KECCAK256 PUSH1 0x7 DUP2 ADD DUP1 SLOAD ISZERO PUSH2 0x1B68 JUMPI JUMPDEST POP PUSH1 0x8 DUP2 ADD PUSH2 0x14CF DUP2 SLOAD PUSH2 0x3610 JUMP JUMPDEST SWAP1 SSTORE PUSH1 0xA TIMESTAMP SWAP2 ADD SSTORE CALLER PUSH1 0x0 MSTORE PUSH1 0x17 PUSH1 0x20 MSTORE PUSH2 0x14F1 PUSH1 0xFF PUSH1 0x40 PUSH1 0x0 KECCAK256 SLOAD AND PUSH2 0x3918 JUMP JUMPDEST CALLER PUSH1 0x0 MSTORE PUSH1 0x15 PUSH1 0x20 MSTORE PUSH1 0x40 PUSH1 0x0 KECCAK256 SWAP1 PUSH1 0x1 DUP3 ADD DUP1 SLOAD ISZERO PUSH2 0x1B5F JUMPI JUMPDEST PUSH2 0x1515 CALLER PUSH2 0x3F1C JUMP JUMPDEST PUSH1 0xFF PUSH1 0x5 DUP5 ADD SLOAD AND PUSH2 0x1B1A JUMPI PUSH1 0xC SLOAD DUP5 LT PUSH2 0x1ADE JUMPI DUP2 ISZERO PUSH2 0x1A99 JUMPI PUSH1 0xD SLOAD DUP3 LT PUSH2 0x1A5F JUMPI PUSH1 0xE SLOAD DUP3 GT PUSH2 0x1A26 JUMPI PUSH1 0x4 DUP4 ADD SLOAD PUSH2 0x19CA JUMPI JUMPDEST PUSH2 0x1555 CALLER PUSH2 0x37DD JUMP JUMPDEST PUSH2 0x159C PUSH1 0x40 PUSH1 0x20 DUP4 ADD SWAP4 DUP5 MLOAD DUP5 MLOAD DUP4 MLOAD SWAP2 DUP3 MSTORE PUSH1 0x20 DUP3 ADD MSTORE PUSH32 0x8EA4F9AEE84985EA9687E32C710743B7FDB33BCCD7C22F11E49355BAEA378D3D DUP4 CALLER SWAP3 LOG2 SLOAD SWAP3 ADD MLOAD DUP3 PUSH2 0x3EC4 JUMP JUMPDEST DUP6 GT PUSH2 0x1979 JUMPI PUSH2 0x15AB SWAP1 PUSH2 0x3EFB JUMP JUMPDEST SWAP3 PUSH2 0x15B5 DUP5 PUSH2 0x332B JUMP JUMPDEST DUP4 PUSH1 0x0 MSTORE PUSH1 0x1E PUSH1 0x20 MSTORE PUSH2 0x15D3 PUSH1 0x40 PUSH1 0x0 KECCAK256 PUSH1 0x1 DUP2 SLOAD SWAP2 ADD SLOAD SWAP1 PUSH2 0x36C3 JUMP JUMPDEST PUSH2 0x1F4 DUP7 MUL SWAP1 DUP7 DUP3 DIV PUSH2 0x1F4 EQ DUP8 ISZERO OR ISZERO PUSH2 0x3B2 JUMPI PUSH2 0x15F9 PUSH2 0x2710 PUSH2 0x1600 SWAP4 DIV DUP9 PUSH2 0x36B6 JUMP JUMPDEST GT ISZERO PUSH2 0x3761 JUMP JUMPDEST PUSH32 0xF4CC78C04780A7253FDFAD7EAF22BEE9B5899D532292B8CEC625ED2F1B83EA64 PUSH2 0x1636 PUSH1 0x40 MLOAD SWAP3 PUSH1 0x80 DUP5 MSTORE PUSH1 0x80 DUP5 ADD SWAP1 PUSH2 0x398B JUMP JUMPDEST SWAP2 DUP7 PUSH1 0x20 DUP3 ADD MSTORE DUP5 PUSH1 0x40 DUP3 ADD MSTORE PUSH2 0x164C DUP7 PUSH2 0x332B JUMP JUMPDEST DUP6 PUSH1 0x60 DUP3 ADD MSTORE DUP1 CALLER SWAP4 SUB SWAP1 LOG2 MLOAD CALLER PUSH1 0x0 MSTORE PUSH1 0x15 PUSH1 0x20 MSTORE PUSH1 0x40 PUSH1 0x0 KECCAK256 PUSH2 0x1670 DUP5 PUSH2 0x332B JUMP JUMPDEST DUP4 PUSH1 0x0 MSTORE PUSH1 0x1E PUSH1 0x20 MSTORE PUSH1 0x40 PUSH1 0x0 KECCAK256 SWAP2 PUSH1 0x1 DUP3 ADD SLOAD SWAP1 PUSH1 0x0 PUSH2 0x1690 DUP8 PUSH2 0x332B JUMP JUMPDEST DUP7 PUSH2 0x194B JUMPI POP PUSH1 0x6 SLOAD SWAP2 DUP6 PUSH1 0x7 SLOAD SWAP4 JUMPDEST DUP1 SWAP3 PUSH2 0x16AB DUP11 PUSH2 0x332B JUMP JUMPDEST PUSH1 0x2 DUP11 EQ PUSH2 0x18F8 JUMPI JUMPDEST POP POP SWAP1 SWAP2 DUP1 ISZERO PUSH1 0x0 EQ PUSH2 0x18D6 JUMPI POP POP PUSH2 0x12C DUP2 ADD DUP1 SWAP2 GT PUSH2 0x3B2 JUMPI DUP5 SWAP1 SWAP2 JUMPDEST PUSH2 0x16DC DUP8 PUSH2 0x332B JUMP JUMPDEST DUP7 PUSH1 0x0 MSTORE PUSH1 0x1E PUSH1 0x20 MSTORE PUSH2 0x16F2 PUSH1 0x40 PUSH1 0x0 KECCAK256 PUSH2 0x3A0E JUMP JUMPDEST DUP1 MLOAD PUSH2 0x1886 JUMPI JUMPDEST POP PUSH5 0x496CEBB800 SWAP2 PUSH2 0x171A DUP5 DUP4 PUSH2 0x171F SWAP5 PUSH1 0x1 SWAP8 GT PUSH2 0x187E JUMPI JUMPDEST POP DUP11 PUSH2 0x3958 JUMP JUMPDEST PUSH2 0x3958 JUMP JUMPDEST DIV SWAP3 PUSH1 0x2 PUSH2 0x172D DUP6 DUP10 PUSH2 0x36B6 JUMP JUMPDEST SWAP4 CALLER PUSH1 0x0 MSTORE PUSH1 0x18 PUSH1 0x20 MSTORE PUSH1 0x40 PUSH1 0x0 KECCAK256 SWAP5 DUP5 DUP1 PUSH1 0xA0 SHL SUB CALLER AND PUSH1 0x1 PUSH1 0x1 PUSH1 0x60 SHL SUB PUSH1 0xA0 SHL DUP8 SLOAD AND OR DUP7 SSTORE DUP10 DUP6 DUP8 ADD SSTORE DUP7 DUP4 DUP8 ADD SSTORE PUSH1 0x3 DUP7 ADD SSTORE TIMESTAMP PUSH1 0x4 DUP7 ADD SSTORE PUSH2 0x1797 DUP9 PUSH1 0x7 PUSH2 0x177B DUP11 TIMESTAMP PUSH2 0x36B6 JUMP JUMPDEST SWAP8 PUSH1 0x5 DUP2 ADD SWAP9 DUP10 SSTORE DUP11 PUSH1 0x6 DUP3 ADD SSTORE ADD PUSH1 0xFF NOT DUP2 SLOAD AND DUP2 SSTORE PUSH2 0x3B31 JUMP JUMPDEST PUSH1 0x5 DUP2 ADD DUP5 PUSH1 0xFF NOT DUP3 SLOAD AND OR SWAP1 SSTORE ADD PUSH2 0x17B0 DUP2 SLOAD PUSH2 0x3610 JUMP JUMPDEST SWAP1 SSTORE ADD PUSH2 0x17BE DUP7 DUP3 SLOAD PUSH2 0x36B6 JUMP JUMPDEST SWAP1 SSTORE PUSH1 0x2 SLOAD PUSH1 0x40 MLOAD PUSH4 0xA9059CBB PUSH1 0xE0 SHL DUP2 MSTORE CALLER PUSH1 0x4 DUP3 ADD MSTORE PUSH1 0x24 DUP2 ADD DUP8 SWAP1 MSTORE SWAP1 PUSH1 0x20 SWAP1 DUP3 SWAP1 PUSH1 0x44 SWAP1 DUP3 SWAP1 PUSH1 0x0 SWAP1 PUSH1 0x1 PUSH1 0x1 PUSH1 0xA0 SHL SUB AND GAS CALL DUP1 ISZERO PUSH2 0x72B JUMPI PUSH2 0x180D SWAP2 PUSH1 0x0 SWAP2 PUSH2 0x185F JUMPI POP PUSH2 0x3678 JUMP JUMPDEST SLOAD SWAP1 PUSH1 0x40 MLOAD SWAP5 DUP6 MSTORE PUSH1 0x20 DUP6 ADD MSTORE PUSH1 0x40 DUP5 ADD MSTORE PUSH1 0x60 DUP4 ADD MSTORE PUSH2 0x182D DUP2 PUSH2 0x332B JUMP JUMPDEST PUSH1 0x80 DUP3 ADD MSTORE PUSH32 0x954BB6121734BA1E4A413BE1C773173A1ABE362C66F47FB0953CE91C49019AA7 PUSH1 0xA0 CALLER SWAP3 LOG2 PUSH1 0x1 PUSH1 0x0 SSTORE STOP JUMPDEST PUSH2 0x1878 SWAP2 POP PUSH1 0x20 RETURNDATASIZE PUSH1 0x20 GT PUSH2 0x724 JUMPI PUSH2 0x716 DUP2 DUP4 PUSH2 0x3414 JUMP JUMPDEST DUP8 PUSH2 0x519 JUMP JUMPDEST SWAP1 POP DUP12 PUSH2 0x1713 JUMP JUMPDEST SWAP1 SWAP2 POP PUSH1 0x20 DUP2 ADD MLOAD SWAP3 PUSH1 0x64 DUP5 MUL SWAP4 DUP1 DUP6 DIV PUSH1 0x64 EQ SWAP1 ISZERO OR ISZERO PUSH2 0x3B2 JUMPI PUSH2 0x171A PUSH5 0x496CEBB800 SWAP4 PUSH2 0x18CB DUP10 SWAP4 PUSH1 0x5 PUSH2 0x18C4 PUSH1 0x1 SWAP10 PUSH2 0x171F SWAP9 MLOAD SWAP1 PUSH2 0x396B JUMP JUMPDEST DIV SWAP1 PUSH2 0x36B6 JUMP JUMPDEST SWAP6 POP SWAP3 POP POP SWAP2 PUSH2 0x16F9 JUMP JUMPDEST SWAP2 SWAP3 SWAP1 SWAP2 PUSH1 0x0 NOT ADD PUSH2 0x16D3 JUMPI SWAP2 SWAP1 POP PUSH1 0x96 DUP2 ADD DUP1 SWAP2 GT PUSH2 0x3B2 JUMPI DUP5 SWAP1 SWAP2 PUSH2 0x16D3 JUMP JUMPDEST PUSH1 0xC8 DUP2 LT ISZERO PUSH2 0x191D JUMPI POP POP POP PUSH2 0x1F4 DUP2 ADD DUP1 SWAP2 GT PUSH2 0x3B2 JUMPI DUP6 SWAP1 SWAP2 JUMPDEST SWAP2 SWAP1 DUP10 DUP1 PUSH2 0x16B4 JUMP JUMPDEST PUSH2 0x12C SWAP1 SWAP5 SWAP3 SWAP4 SWAP5 LT PUSH2 0x1931 JUMPI JUMPDEST POP PUSH2 0x1914 JUMP JUMPDEST PUSH2 0x12C SWAP2 SWAP4 POP DUP1 SWAP3 POP ADD DUP1 SWAP2 GT PUSH2 0x3B2 JUMPI DUP6 SWAP1 SWAP2 DUP10 PUSH2 0x192B JUMP JUMPDEST POP PUSH2 0x1955 DUP7 PUSH2 0x332B JUMP JUMPDEST PUSH1 0x1 DUP7 SUB PUSH2 0x196B JUMPI PUSH1 0x8 SLOAD SWAP2 DUP6 PUSH1 0x9 SLOAD SWAP4 PUSH2 0x16A0 JUMP JUMPDEST PUSH1 0xA SLOAD SWAP2 DUP6 PUSH1 0xB SLOAD SWAP4 PUSH2 0x16A0 JUMP JUMPDEST PUSH1 0x40 MLOAD PUSH3 0x461BCD PUSH1 0xE5 SHL DUP2 MSTORE PUSH1 0x20 PUSH1 0x4 DUP3 ADD MSTORE PUSH1 0x23 PUSH1 0x24 DUP3 ADD MSTORE PUSH32 0x416D6F756E7420657863656564732074727573742F6D61747572697479206C69 PUSH1 0x44 DUP3 ADD MSTORE PUSH3 0x1B5A5D PUSH1 0xEA SHL PUSH1 0x64 DUP3 ADD MSTORE PUSH1 0x84 SWAP1 REVERT JUMPDEST PUSH2 0x19DB PUSH1 0x6 DUP5 ADD SLOAD PUSH1 0xF SLOAD SWAP1 PUSH2 0x36B6 JUMP JUMPDEST TIMESTAMP GT PUSH2 0x154C JUMPI PUSH1 0x40 MLOAD PUSH3 0x461BCD PUSH1 0xE5 SHL DUP2 MSTORE PUSH1 0x20 PUSH1 0x4 DUP3 ADD MSTORE PUSH1 0x1D PUSH1 0x24 DUP3 ADD MSTORE PUSH32 0x426C6F636B65642064756520746F20726563656E742064656661756C74000000 PUSH1 0x44 DUP3 ADD MSTORE PUSH1 0x64 SWAP1 REVERT JUMPDEST PUSH1 0x40 MLOAD PUSH3 0x461BCD PUSH1 0xE5 SHL DUP2 MSTORE PUSH1 0x20 PUSH1 0x4 DUP3 ADD MSTORE PUSH1 0x11 PUSH1 0x24 DUP3 ADD MSTORE PUSH17 0x4475726174696F6E20746F6F206C6F6E67 PUSH1 0x78 SHL PUSH1 0x44 DUP3 ADD MSTORE PUSH1 0x64 SWAP1 REVERT JUMPDEST PUSH1 0x40 MLOAD PUSH3 0x461BCD PUSH1 0xE5 SHL DUP2 MSTORE PUSH1 0x20 PUSH1 0x4 DUP3 ADD MSTORE PUSH1 0x12 PUSH1 0x24 DUP3 ADD MSTORE PUSH18 0x111D5C985D1A5BDB881D1BDBC81CDA1BDC9D PUSH1 0x72 SHL PUSH1 0x44 DUP3 ADD MSTORE PUSH1 0x64 SWAP1 REVERT JUMPDEST PUSH1 0x40 MLOAD PUSH3 0x461BCD PUSH1 0xE5 SHL DUP2 MSTORE PUSH1 0x20 PUSH1 0x4 DUP3 ADD MSTORE PUSH1 0x17 PUSH1 0x24 DUP3 ADD MSTORE PUSH32 0x4475726174696F6E2063616E6E6F74206265207A65726F000000000000000000 PUSH1 0x44 DUP3 ADD MSTORE PUSH1 0x64 SWAP1 REVERT JUMPDEST PUSH1 0x40 MLOAD PUSH3 0x461BCD PUSH1 0xE5 SHL DUP2 MSTORE PUSH1 0x20 PUSH1 0x4 DUP3 ADD MSTORE PUSH1 0x14 PUSH1 0x24 DUP3 ADD MSTORE PUSH20 0x416D6F756E742062656C6F77206D696E696D756D PUSH1 0x60 SHL PUSH1 0x44 DUP3 ADD MSTORE PUSH1 0x64 SWAP1 REVERT JUMPDEST PUSH1 0x40 MLOAD PUSH3 0x461BCD PUSH1 0xE5 SHL DUP2 MSTORE PUSH1 0x20 PUSH1 0x4 DUP3 ADD MSTORE PUSH1 0x17 PUSH1 0x24 DUP3 ADD MSTORE PUSH32 0x416C72656164792068617320616374697665206C6F616E000000000000000000 PUSH1 0x44 DUP3 ADD MSTORE PUSH1 0x64 SWAP1 REVERT JUMPDEST PUSH1 0x64 DUP2 SSTORE PUSH2 0x150C JUMP JUMPDEST TIMESTAMP SWAP1 SSTORE DUP4 PUSH2 0x14C0 JUMP JUMPDEST CALLVALUE PUSH2 0x3DB JUMPI PUSH1 0x0 CALLDATASIZE PUSH1 0x3 NOT ADD SLT PUSH2 0x3DB JUMPI PUSH1 0x20 PUSH1 0x13 SLOAD PUSH1 0x40 MLOAD SWAP1 DUP2 MSTORE RETURN JUMPDEST CALLVALUE PUSH2 0x3DB JUMPI PUSH1 0x0 CALLDATASIZE PUSH1 0x3 NOT ADD SLT PUSH2 0x3DB JUMPI PUSH1 0x20 PUSH1 0x40 MLOAD PUSH1 0x64 DUP2 MSTORE RETURN JUMPDEST CALLVALUE PUSH2 0x3DB JUMPI PUSH1 0x20 CALLDATASIZE PUSH1 0x3 NOT ADD SLT PUSH2 0x3DB JUMPI PUSH1 0x1 PUSH1 0x1 PUSH1 0xA0 SHL SUB PUSH2 0x1BCC PUSH2 0x32C4 JUMP JUMPDEST AND PUSH1 0x0 MSTORE PUSH1 0x17 PUSH1 0x20 MSTORE PUSH1 0x20 PUSH1 0xFF PUSH1 0x40 PUSH1 0x0 KECCAK256 SLOAD AND PUSH1 0x40 MLOAD SWAP1 ISZERO ISZERO DUP2 MSTORE RETURN JUMPDEST CALLVALUE PUSH2 0x3DB JUMPI PUSH1 0x0 CALLDATASIZE PUSH1 0x3 NOT ADD SLT PUSH2 0x3DB JUMPI PUSH1 0x20 PUSH1 0x40 MLOAD PUSH1 0x32 DUP2 MSTORE RETURN JUMPDEST CALLVALUE PUSH2 0x3DB JUMPI PUSH1 0x0 CALLDATASIZE PUSH1 0x3 NOT ADD SLT PUSH2 0x3DB JUMPI PUSH1 0x20 PUSH1 0x4 SLOAD PUSH1 0x40 MLOAD SWAP1 DUP2 MSTORE RETURN JUMPDEST CALLVALUE PUSH2 0x3DB JUMPI PUSH1 0x20 CALLDATASIZE PUSH1 0x3 NOT ADD SLT PUSH2 0x3DB JUMPI PUSH1 0x60 PUSH2 0x1C47 PUSH2 0x1C42 PUSH2 0x32C4 JUMP JUMPDEST PUSH2 0x37DD JUMP JUMPDEST PUSH1 0x40 DUP1 MLOAD SWAP2 DUP1 MLOAD DUP4 MSTORE PUSH1 0x20 DUP2 ADD MLOAD PUSH1 0x20 DUP5 ADD MSTORE ADD MLOAD PUSH1 0x40 DUP3 ADD MSTORE RETURN JUMPDEST CALLVALUE PUSH2 0x3DB JUMPI PUSH1 0x0 CALLDATASIZE PUSH1 0x3 NOT ADD SLT PUSH2 0x3DB JUMPI PUSH1 0x20 PUSH1 0x11 SLOAD PUSH1 0x40 MLOAD SWAP1 DUP2 MSTORE RETURN JUMPDEST CALLVALUE PUSH2 0x3DB JUMPI PUSH1 0x20 CALLDATASIZE PUSH1 0x3 NOT ADD SLT PUSH2 0x3DB JUMPI PUSH2 0x1D9B PUSH2 0x1C9D PUSH2 0x32C4 JUMP JUMPDEST PUSH1 0x1 DUP1 PUSH1 0xA0 SHL SUB DUP2 AND PUSH1 0x0 MSTORE PUSH1 0x15 PUSH1 0x20 MSTORE PUSH1 0x40 PUSH1 0x0 KECCAK256 PUSH1 0x40 MLOAD SWAP1 PUSH2 0x1CC0 DUP3 PUSH2 0x33DB JUMP JUMPDEST PUSH2 0x1CC9 DUP2 PUSH2 0x3436 JUMP JUMPDEST DUP3 MSTORE PUSH1 0x1 DUP2 ADD SLOAD SWAP3 PUSH1 0x20 DUP4 ADD SWAP4 DUP5 MSTORE PUSH1 0x2 DUP3 ADD SLOAD SWAP4 PUSH1 0x40 DUP5 ADD SWAP5 DUP6 MSTORE PUSH1 0x3 DUP4 ADD SLOAD SWAP3 PUSH1 0x60 DUP6 ADD SWAP4 DUP5 MSTORE PUSH2 0x1D4D PUSH1 0x4 DUP3 ADD SLOAD SWAP4 PUSH1 0x80 DUP8 ADD SWAP5 DUP6 MSTORE PUSH1 0xA PUSH1 0xFF PUSH1 0x5 DUP6 ADD SLOAD AND SWAP4 PUSH1 0xA0 DUP10 ADD SWAP5 ISZERO ISZERO DUP6 MSTORE PUSH1 0x6 DUP2 ADD SLOAD PUSH1 0xC0 DUP11 ADD MSTORE PUSH1 0x7 DUP2 ADD SLOAD PUSH1 0xE0 DUP11 ADD MSTORE PUSH1 0x8 DUP2 ADD SLOAD PUSH2 0x100 DUP11 ADD MSTORE PUSH1 0x9 DUP2 ADD SLOAD PUSH2 0x120 DUP11 ADD MSTORE ADD SLOAD PUSH2 0x140 DUP9 ADD MSTORE PUSH2 0x37DD JUMP JUMPDEST SWAP2 MLOAD DUP1 PUSH2 0x1DD8 JUMPI POP PUSH1 0x64 SWAP5 JUMPDEST MLOAD SWAP6 MLOAD SWAP4 MLOAD SWAP3 MLOAD SWAP1 MLOAD ISZERO ISZERO DUP3 MLOAD SWAP2 PUSH2 0x1D7A PUSH1 0x40 PUSH1 0x20 DUP7 ADD MLOAD SWAP6 ADD MLOAD DUP9 PUSH2 0x3EC4 JUMP JUMPDEST SWAP5 PUSH2 0x1D84 DUP9 PUSH2 0x3EFB JUMP JUMPDEST SWAP7 PUSH1 0x40 MLOAD SWAP11 DUP12 SWAP11 PUSH2 0x140 DUP13 MSTORE PUSH2 0x140 DUP13 ADD SWAP1 PUSH2 0x34FD JUMP JUMPDEST SWAP9 PUSH1 0x20 DUP12 ADD MSTORE PUSH1 0x40 DUP11 ADD MSTORE PUSH1 0x60 DUP10 ADD MSTORE PUSH1 0x80 DUP9 ADD MSTORE PUSH1 0xA0 DUP8 ADD MSTORE PUSH1 0xC0 DUP7 ADD MSTORE PUSH1 0xE0 DUP6 ADD MSTORE PUSH2 0x100 DUP5 ADD MSTORE PUSH2 0x1DCE DUP2 PUSH2 0x332B JUMP JUMPDEST PUSH2 0x120 DUP4 ADD MSTORE SUB SWAP1 RETURN JUMPDEST SWAP5 PUSH2 0x1D59 JUMP JUMPDEST CALLVALUE PUSH2 0x3DB JUMPI PUSH1 0x0 CALLDATASIZE PUSH1 0x3 NOT ADD SLT PUSH2 0x3DB JUMPI PUSH1 0x20 PUSH1 0xC SLOAD PUSH1 0x40 MLOAD SWAP1 DUP2 MSTORE RETURN JUMPDEST CALLVALUE PUSH2 0x3DB JUMPI PUSH1 0x40 CALLDATASIZE PUSH1 0x3 NOT ADD SLT PUSH2 0x3DB JUMPI PUSH2 0x1E15 PUSH2 0x32C4 JUMP JUMPDEST PUSH2 0x1E63 PUSH1 0x24 CALLDATALOAD SWAP2 PUSH2 0x1E24 PUSH2 0x3C5F JUMP JUMPDEST PUSH1 0x1 SLOAD PUSH1 0x40 MLOAD PUSH4 0xA9059CBB PUSH1 0xE0 SHL DUP2 MSTORE PUSH1 0x1 PUSH1 0x1 PUSH1 0xA0 SHL SUB PUSH1 0x8 SWAP3 SWAP1 SWAP3 SHR DUP3 AND PUSH1 0x4 DUP3 ADD MSTORE PUSH1 0x24 DUP2 ADD DUP6 SWAP1 MSTORE SWAP2 AND SWAP3 SWAP1 SWAP2 PUSH1 0x20 SWAP1 DUP4 SWAP1 DUP2 SWAP1 PUSH1 0x44 DUP3 ADD SWAP1 JUMP JUMPDEST SUB DUP2 PUSH1 0x0 DUP8 GAS CALL SWAP1 DUP2 ISZERO PUSH2 0x72B JUMPI PUSH2 0x1EA6 PUSH1 0x20 SWAP3 PUSH32 0x5FAFA99D0643513820BE26656B45130B01E1C03062E1266BF36F88CBD3BD9695 SWAP5 PUSH1 0x0 SWAP2 PUSH2 0x1EAF JUMPI POP PUSH2 0x3678 JUMP JUMPDEST PUSH1 0x40 MLOAD SWAP1 DUP2 MSTORE LOG2 STOP JUMPDEST PUSH2 0x1EC6 SWAP2 POP DUP5 RETURNDATASIZE DUP7 GT PUSH2 0x724 JUMPI PUSH2 0x716 DUP2 DUP4 PUSH2 0x3414 JUMP JUMPDEST DUP7 PUSH2 0x519 JUMP JUMPDEST CALLVALUE PUSH2 0x3DB JUMPI PUSH2 0x1EDA CALLDATASIZE PUSH2 0x35F6 JUMP JUMPDEST SWAP2 PUSH2 0x1EE3 PUSH2 0x3C5F JUMP JUMPDEST DUP2 DUP2 LT DUP1 PUSH2 0x1F37 JUMPI JUMPDEST ISZERO PUSH2 0x1EFC JUMPI PUSH1 0x11 SSTORE PUSH1 0x12 SSTORE PUSH1 0x13 SSTORE STOP JUMPDEST PUSH1 0x40 MLOAD PUSH3 0x461BCD PUSH1 0xE5 SHL DUP2 MSTORE PUSH1 0x20 PUSH1 0x4 DUP3 ADD MSTORE PUSH1 0x13 PUSH1 0x24 DUP3 ADD MSTORE PUSH19 0x24B73B30B634B210383937B3B932B9B9B4B7B7 PUSH1 0x69 SHL PUSH1 0x44 DUP3 ADD MSTORE PUSH1 0x64 SWAP1 REVERT JUMPDEST POP DUP3 DUP3 LT PUSH2 0x1EEC JUMP JUMPDEST CALLVALUE PUSH2 0x3DB JUMPI PUSH1 0x0 CALLDATASIZE PUSH1 0x3 NOT ADD SLT PUSH2 0x3DB JUMPI PUSH1 0x1 SLOAD PUSH1 0x40 MLOAD PUSH1 0x8 SWAP2 SWAP1 SWAP2 SHR PUSH1 0x1 PUSH1 0x1 PUSH1 0xA0 SHL SUB AND DUP2 MSTORE PUSH1 0x20 SWAP1 RETURN JUMPDEST CALLVALUE PUSH2 0x3DB JUMPI PUSH1 0x0 CALLDATASIZE PUSH1 0x3 NOT ADD SLT PUSH2 0x3DB JUMPI PUSH1 0x20 PUSH1 0xD SLOAD PUSH1 0x40 MLOAD SWAP1 DUP2 MSTORE RETURN JUMPDEST CALLVALUE PUSH2 0x3DB JUMPI PUSH1 0x0 CALLDATASIZE PUSH1 0x3 NOT ADD SLT PUSH2 0x3DB JUMPI PUSH1 0x20 PUSH1 0xB SLOAD PUSH1 0x40 MLOAD SWAP1 DUP2 MSTORE RETURN JUMPDEST CALLVALUE PUSH2 0x3DB JUMPI PUSH1 0x20 CALLDATASIZE PUSH1 0x3 NOT ADD SLT PUSH2 0x3DB JUMPI PUSH1 0x1 PUSH1 0x1 PUSH1 0xA0 SHL SUB PUSH2 0x1FCA PUSH2 0x32C4 JUMP JUMPDEST AND PUSH1 0x0 MSTORE PUSH1 0x19 PUSH1 0x20 MSTORE PUSH1 0x40 PUSH1 0x0 KECCAK256 DUP1 SLOAD SWAP1 PUSH8 0xFFFFFFFFFFFFFFFF DUP3 GT PUSH2 0x20EC JUMPI PUSH1 0x40 MLOAD SWAP2 PUSH2 0x1FFE PUSH1 0x20 DUP3 PUSH1 0x5 SHL ADD DUP5 PUSH2 0x3414 JUMP JUMPDEST DUP1 DUP4 MSTORE PUSH1 0x20 DUP4 ADD DUP1 SWAP3 PUSH1 0x0 MSTORE PUSH1 0x20 PUSH1 0x0 KECCAK256 PUSH1 0x0 SWAP2 JUMPDEST DUP4 DUP4 LT PUSH2 0x20CE JUMPI DUP5 DUP7 PUSH1 0x40 MLOAD SWAP2 DUP3 SWAP2 PUSH1 0x20 DUP4 ADD SWAP1 PUSH1 0x20 DUP5 MSTORE MLOAD DUP1 SWAP2 MSTORE PUSH1 0x40 DUP4 ADD SWAP2 SWAP1 PUSH1 0x0 JUMPDEST DUP2 DUP2 LT PUSH2 0x2046 JUMPI POP POP POP SUB SWAP1 RETURN JUMPDEST SWAP2 SWAP4 POP SWAP2 PUSH1 0x20 PUSH2 0x120 PUSH1 0x1 SWAP3 PUSH2 0x100 DUP8 MLOAD DUP6 DUP1 PUSH1 0xA0 SHL SUB DUP2 MLOAD AND DUP4 MSTORE DUP5 DUP2 ADD MLOAD DUP6 DUP5 ADD MSTORE PUSH1 0x40 DUP2 ADD MLOAD PUSH1 0x40 DUP5 ADD MSTORE PUSH1 0x60 DUP2 ADD MLOAD PUSH1 0x60 DUP5 ADD MSTORE PUSH1 0x80 DUP2 ADD MLOAD PUSH1 0x80 DUP5 ADD MSTORE PUSH1 0xA0 DUP2 ADD MLOAD PUSH1 0xA0 DUP5 ADD MSTORE PUSH1 0xC0 DUP2 ADD MLOAD PUSH1 0xC0 DUP5 ADD MSTORE PUSH1 0xE0 DUP2 ADD MLOAD PUSH2 0x20AA DUP2 PUSH2 0x332B JUMP JUMPDEST PUSH1 0xE0 DUP5 ADD MSTORE ADD MLOAD PUSH2 0x20BA DUP2 PUSH2 0x332B JUMP JUMPDEST PUSH2 0x100 DUP3 ADD MSTORE ADD SWAP5 ADD SWAP2 ADD SWAP2 DUP5 SWAP4 SWAP3 PUSH2 0x2038 JUMP JUMPDEST PUSH1 0x8 PUSH1 0x20 PUSH1 0x1 SWAP3 PUSH2 0x20DE DUP6 PUSH2 0x36D0 JUMP JUMPDEST DUP2 MSTORE ADD SWAP3 ADD SWAP3 ADD SWAP2 SWAP1 PUSH2 0x2013 JUMP JUMPDEST PUSH4 0x4E487B71 PUSH1 0xE0 SHL PUSH1 0x0 MSTORE PUSH1 0x41 PUSH1 0x4 MSTORE PUSH1 0x24 PUSH1 0x0 REVERT JUMPDEST CALLVALUE PUSH2 0x3DB JUMPI PUSH1 0x0 CALLDATASIZE PUSH1 0x3 NOT ADD SLT PUSH2 0x3DB JUMPI PUSH2 0x211B PUSH2 0x3C5F JUMP JUMPDEST PUSH2 0x2123 PUSH2 0x3C42 JUMP JUMPDEST PUSH1 0x1 PUSH1 0xFF NOT DUP2 SLOAD AND OR PUSH1 0x1 SSTORE PUSH32 0x62E78CEA01BEE320CD4E420270B5EA74000D11B0C9F74754EBDBFC544B05A258 PUSH1 0x20 PUSH1 0x40 MLOAD CALLER DUP2 MSTORE LOG1 STOP JUMPDEST CALLVALUE PUSH2 0x3DB JUMPI PUSH1 0x40 CALLDATASIZE PUSH1 0x3 NOT ADD SLT PUSH2 0x3DB JUMPI PUSH2 0x2174 PUSH2 0x32C4 JUMP JUMPDEST PUSH1 0x1 PUSH1 0x1 PUSH1 0xA0 SHL SUB AND PUSH1 0x0 SWAP1 DUP2 MSTORE PUSH1 0x1D PUSH1 0x20 MSTORE PUSH1 0x40 SWAP1 KECCAK256 DUP1 SLOAD PUSH1 0x24 CALLDATALOAD SWAP2 SWAP1 DUP3 LT ISZERO PUSH2 0x3DB JUMPI PUSH1 0x20 SWAP2 PUSH2 0x21A5 SWAP2 PUSH2 0x359B JUMP JUMPDEST SWAP1 SLOAD PUSH1 0x40 MLOAD PUSH1 0x3 SWAP3 SWAP1 SWAP3 SHL SHR PUSH1 0x1 PUSH1 0x1 PUSH1 0xA0 SHL SUB AND DUP2 MSTORE RETURN JUMPDEST CALLVALUE PUSH2 0x3DB JUMPI PUSH1 0x0 CALLDATASIZE PUSH1 0x3 NOT ADD SLT PUSH2 0x3DB JUMPI PUSH1 0x20 PUSH1 0x40 MLOAD PUSH3 0xED4E00 DUP2 MSTORE RETURN JUMPDEST CALLVALUE PUSH2 0x3DB JUMPI PUSH1 0x0 CALLDATASIZE PUSH1 0x3 NOT ADD SLT PUSH2 0x3DB JUMPI PUSH1 0x20 PUSH1 0xA SLOAD PUSH1 0x40 MLOAD SWAP1 DUP2 MSTORE RETURN JUMPDEST CALLVALUE PUSH2 0x3DB JUMPI PUSH1 0x0 CALLDATASIZE PUSH1 0x3 NOT ADD SLT PUSH2 0x3DB JUMPI PUSH1 0x20 PUSH1 0x40 MLOAD PUSH2 0x1F4 DUP2 MSTORE RETURN JUMPDEST CALLVALUE PUSH2 0x3DB JUMPI PUSH1 0x0 CALLDATASIZE PUSH1 0x3 NOT ADD SLT PUSH2 0x3DB JUMPI PUSH1 0x20 PUSH1 0x40 MLOAD PUSH2 0x3E8 DUP2 MSTORE RETURN JUMPDEST CALLVALUE PUSH2 0x3DB JUMPI PUSH1 0x0 CALLDATASIZE PUSH1 0x3 NOT ADD SLT PUSH2 0x3DB JUMPI PUSH2 0x224D PUSH2 0x3C5F JUMP JUMPDEST PUSH1 0x1 DUP1 SLOAD PUSH2 0x100 PUSH1 0x1 PUSH1 0xA8 SHL SUB NOT DUP2 AND SWAP1 SWAP2 SSTORE PUSH1 0x0 SWAP1 PUSH1 0x8 SHR PUSH1 0x1 PUSH1 0x1 PUSH1 0xA0 SHL SUB AND PUSH32 0x8BE0079C531659141344CD1FD0A4F28419497F9722A3DAAFE3B4186F6B6457E0 DUP3 DUP1 LOG3 STOP JUMPDEST CALLVALUE PUSH2 0x3DB JUMPI PUSH1 0x0 CALLDATASIZE PUSH1 0x3 NOT ADD SLT PUSH2 0x3DB JUMPI PUSH1 0x20 PUSH1 0x40 MLOAD PUSH3 0x76A700 DUP2 MSTORE RETURN JUMPDEST CALLVALUE PUSH2 0x3DB JUMPI PUSH1 0x20 CALLDATASIZE PUSH1 0x3 NOT ADD SLT PUSH2 0x3DB JUMPI PUSH1 0x1 PUSH1 0x1 PUSH1 0xA0 SHL SUB PUSH2 0x22D4 PUSH2 0x32C4 JUMP JUMPDEST AND PUSH1 0x0 MSTORE PUSH1 0x1C PUSH1 0x20 MSTORE PUSH1 0x40 PUSH1 0x0 KECCAK256 PUSH1 0x40 MLOAD SWAP1 DUP2 PUSH1 0x20 DUP3 SLOAD SWAP2 DUP3 DUP2 MSTORE ADD SWAP2 PUSH1 0x0 MSTORE PUSH1 0x20 PUSH1 0x0 KECCAK256 SWAP1 PUSH1 0x0 JUMPDEST DUP2 DUP2 LT PUSH2 0x2314 JUMPI PUSH2 0x9FF DUP6 PUSH2 0x9F3 DUP2 DUP8 SUB DUP3 PUSH2 0x3414 JUMP JUMPDEST DUP3 SLOAD PUSH1 0x1 PUSH1 0x1 PUSH1 0xA0 SHL SUB AND DUP5 MSTORE PUSH1 0x20 SWAP1 SWAP4 ADD SWAP3 PUSH1 0x1 SWAP3 DUP4 ADD SWAP3 ADD PUSH2 0x22FD JUMP JUMPDEST CALLVALUE PUSH2 0x3DB JUMPI PUSH1 0x40 CALLDATASIZE PUSH1 0x3 NOT ADD SLT PUSH2 0x3DB JUMPI PUSH2 0x234C PUSH2 0x32C4 JUMP JUMPDEST PUSH1 0x1 PUSH1 0x1 PUSH1 0xA0 SHL SUB AND PUSH1 0x0 SWAP1 DUP2 MSTORE PUSH1 0x1C PUSH1 0x20 MSTORE PUSH1 0x40 SWAP1 KECCAK256 DUP1 SLOAD PUSH1 0x24 CALLDATALOAD SWAP2 SWAP1 DUP3 LT ISZERO PUSH2 0x3DB JUMPI PUSH1 0x20 SWAP2 PUSH2 0x21A5 SWAP2 PUSH2 0x359B JUMP JUMPDEST CALLVALUE PUSH2 0x3DB JUMPI PUSH1 0x20 CALLDATASIZE PUSH1 0x3 NOT ADD SLT PUSH2 0x3DB JUMPI PUSH1 0x4 CALLDATALOAD PUSH1 0x3 DUP2 LT ISZERO PUSH2 0x3DB JUMPI PUSH2 0x23A3 DUP2 PUSH2 0x332B JUMP JUMPDEST PUSH1 0x0 MSTORE PUSH1 0x1E PUSH1 0x20 MSTORE PUSH1 0x40 PUSH1 0x0 KECCAK256 DUP1 SLOAD PUSH2 0x9FF PUSH1 0x1 DUP4 ADD SLOAD SWAP3 PUSH1 0x2 DUP2 ADD SLOAD SWAP1 PUSH1 0x4 PUSH1 0x3 DUP3 ADD SLOAD SWAP2 ADD SLOAD SWAP2 PUSH1 0x40 MLOAD SWAP6 DUP7 SWAP6 DUP7 SWAP2 SWAP3 PUSH1 0x80 SWAP4 SWAP7 SWAP6 SWAP5 SWAP2 SWAP7 PUSH1 0xA0 DUP5 ADD SWAP8 DUP5 MSTORE PUSH1 0x20 DUP5 ADD MSTORE PUSH1 0x40 DUP4 ADD MSTORE PUSH1 0x60 DUP3 ADD MSTORE ADD MSTORE JUMP JUMPDEST CALLVALUE PUSH2 0x3DB JUMPI PUSH2 0x2405 CALLDATASIZE PUSH2 0x32DA JUMP JUMPDEST PUSH2 0x240D PUSH2 0x3C20 JUMP JUMPDEST PUSH2 0x2415 PUSH2 0x3C42 JUMP JUMPDEST CALLER PUSH1 0x0 MSTORE PUSH1 0x15 PUSH1 0x20 MSTORE PUSH1 0x40 PUSH1 0x0 KECCAK256 PUSH1 0x7 DUP2 ADD DUP1 SLOAD ISZERO PUSH2 0x2633 JUMPI JUMPDEST POP PUSH1 0x8 DUP2 ADD PUSH2 0x243E DUP2 SLOAD PUSH2 0x3610 JUMP JUMPDEST SWAP1 SSTORE PUSH1 0xA TIMESTAMP SWAP2 ADD SSTORE CALLER PUSH1 0x0 MSTORE PUSH1 0x1A PUSH1 0x20 MSTORE PUSH1 0x40 PUSH1 0x0 KECCAK256 PUSH2 0x245D DUP3 PUSH2 0x332B JUMP JUMPDEST DUP2 PUSH1 0x0 MSTORE PUSH1 0x1E PUSH1 0x20 MSTORE PUSH1 0x40 PUSH1 0x0 KECCAK256 PUSH2 0x2476 DUP5 ISZERO ISZERO PUSH2 0x361F JUMP JUMPDEST PUSH2 0x247F DUP4 PUSH2 0x332B JUMP JUMPDEST DUP3 ISZERO SWAP2 DUP3 ISZERO PUSH2 0x260C JUMPI DUP5 DUP2 SLOAD JUMPDEST LT PUSH2 0x25C7 JUMPI PUSH1 0x4 SWAP3 PUSH2 0x24AF DUP7 PUSH2 0x24A8 DUP6 SLOAD PUSH1 0x1 DUP8 ADD SLOAD SWAP1 PUSH2 0x36C3 JUMP JUMPDEST LT ISZERO PUSH2 0x3761 JUMP JUMPDEST PUSH2 0x24B8 DUP6 PUSH2 0x332B JUMP JUMPDEST ISZERO PUSH2 0x2593 JUMPI PUSH2 0x24C8 DUP6 DUP3 SLOAD PUSH2 0x36C3 JUMP JUMPDEST SWAP1 SSTORE JUMPDEST PUSH2 0x24D6 DUP5 DUP3 SLOAD PUSH2 0x36C3 JUMP JUMPDEST DUP2 SSTORE ADD PUSH2 0x24E4 DUP4 DUP3 SLOAD PUSH2 0x36C3 JUMP JUMPDEST SWAP1 SSTORE PUSH1 0x2 SLOAD PUSH1 0x40 MLOAD PUSH4 0xA9059CBB PUSH1 0xE0 SHL DUP2 MSTORE CALLER PUSH1 0x4 DUP3 ADD MSTORE PUSH1 0x24 DUP2 ADD DUP5 SWAP1 MSTORE SWAP1 PUSH1 0x20 SWAP1 DUP3 SWAP1 PUSH1 0x44 SWAP1 DUP3 SWAP1 PUSH1 0x0 SWAP1 PUSH1 0x1 PUSH1 0x1 PUSH1 0xA0 SHL SUB AND GAS CALL DUP1 ISZERO PUSH2 0x72B JUMPI PUSH2 0x2533 SWAP2 PUSH1 0x0 SWAP2 PUSH2 0x2574 JUMPI POP PUSH2 0x3678 JUMP JUMPDEST PUSH1 0x40 MLOAD SWAP2 DUP3 MSTORE PUSH2 0x2542 DUP2 PUSH2 0x332B JUMP JUMPDEST PUSH1 0x20 DUP3 ADD MSTORE PUSH32 0xF6CE689BC8E4650B120DB9A6F0DE41E34D40C67B5EF3FB1D47A40AA5099057C7 PUSH1 0x40 CALLER SWAP3 LOG2 PUSH1 0x1 PUSH1 0x0 SSTORE STOP JUMPDEST PUSH2 0x258D SWAP2 POP PUSH1 0x20 RETURNDATASIZE PUSH1 0x20 GT PUSH2 0x724 JUMPI PUSH2 0x716 DUP2 DUP4 PUSH2 0x3414 JUMP JUMPDEST DUP5 PUSH2 0x519 JUMP JUMPDEST PUSH2 0x259C DUP5 PUSH2 0x332B JUMP JUMPDEST PUSH1 0x1 DUP5 SUB PUSH2 0x25B9 JUMPI PUSH1 0x1 ADD PUSH2 0x25B2 DUP6 DUP3 SLOAD PUSH2 0x36C3 JUMP JUMPDEST SWAP1 SSTORE PUSH2 0x24CB JUMP JUMPDEST PUSH1 0x2 ADD PUSH2 0x25B2 DUP6 DUP3 SLOAD PUSH2 0x36C3 JUMP JUMPDEST PUSH1 0x40 MLOAD PUSH3 0x461BCD PUSH1 0xE5 SHL DUP2 MSTORE PUSH1 0x20 PUSH1 0x4 DUP3 ADD MSTORE PUSH1 0x1C PUSH1 0x24 DUP3 ADD MSTORE PUSH32 0x496E73756666696369656E742062616C616E636520696E20706F6F6C00000000 PUSH1 0x44 DUP3 ADD MSTORE PUSH1 0x64 SWAP1 REVERT JUMPDEST PUSH2 0x2615 DUP5 PUSH2 0x332B JUMP JUMPDEST PUSH1 0x1 DUP5 SUB PUSH2 0x2628 JUMPI DUP5 PUSH1 0x1 DUP3 ADD SLOAD PUSH2 0x248C JUMP JUMPDEST DUP5 PUSH1 0x2 DUP3 ADD SLOAD PUSH2 0x248C JUMP JUMPDEST TIMESTAMP SWAP1 SSTORE DUP4 PUSH2 0x242F JUMP JUMPDEST CALLVALUE PUSH2 0x3DB JUMPI PUSH1 0x20 CALLDATASIZE PUSH1 0x3 NOT ADD SLT PUSH2 0x3DB JUMPI PUSH1 0x1 PUSH1 0x1 PUSH1 0xA0 SHL SUB PUSH2 0x265D PUSH2 0x32C4 JUMP JUMPDEST AND PUSH1 0x0 MSTORE PUSH1 0x18 PUSH1 0x20 MSTORE PUSH2 0x100 PUSH2 0x2676 PUSH1 0x40 PUSH1 0x0 KECCAK256 PUSH2 0x36D0 JUMP JUMPDEST PUSH1 0x20 DUP2 ADD MLOAD SWAP1 PUSH1 0x40 DUP2 ADD MLOAD SWAP1 PUSH1 0x60 DUP2 ADD MLOAD SWAP1 PUSH1 0xA0 DUP2 ADD SWAP2 DUP3 MLOAD PUSH1 0xC0 DUP4 ADD MLOAD SWAP2 PUSH1 0xE0 DUP5 ADD SWAP6 PUSH2 0x26C0 DUP10 DUP9 MLOAD SWAP7 PUSH2 0x26AA DUP9 PUSH2 0x332B JUMP JUMPDEST ADD MLOAD SWAP7 PUSH2 0x26B6 DUP9 PUSH2 0x332B JUMP JUMPDEST MLOAD PUSH1 0x10 SLOAD SWAP1 PUSH2 0x36B6 JUMP JUMPDEST TIMESTAMP GT SWAP7 DUP8 PUSH2 0x2709 JUMPI JUMPDEST POP PUSH1 0x40 MLOAD SWAP8 DUP9 MSTORE PUSH1 0x20 DUP9 ADD MSTORE PUSH1 0x40 DUP8 ADD MSTORE PUSH1 0x60 DUP7 ADD MSTORE PUSH1 0x80 DUP6 ADD MSTORE PUSH2 0x26ED DUP2 PUSH2 0x332B JUMP JUMPDEST PUSH1 0xA0 DUP5 ADD MSTORE PUSH2 0x26FB DUP2 PUSH2 0x332B JUMP JUMPDEST PUSH1 0xC0 DUP4 ADD MSTORE ISZERO ISZERO PUSH1 0xE0 DUP3 ADD MSTORE RETURN JUMPDEST SWAP1 SWAP7 POP MLOAD PUSH2 0x2716 DUP2 PUSH2 0x332B JUMP JUMPDEST PUSH2 0x271F DUP2 PUSH2 0x332B JUMP JUMPDEST ISZERO SWAP6 DUP10 PUSH2 0x26C9 JUMP JUMPDEST CALLVALUE PUSH2 0x3DB JUMPI PUSH1 0x0 CALLDATASIZE PUSH1 0x3 NOT ADD SLT PUSH2 0x3DB JUMPI PUSH1 0x20 PUSH1 0xFF PUSH1 0x1 SLOAD AND PUSH1 0x40 MLOAD SWAP1 ISZERO ISZERO DUP2 MSTORE RETURN JUMPDEST CALLVALUE PUSH2 0x3DB JUMPI PUSH1 0x0 CALLDATASIZE PUSH1 0x3 NOT ADD SLT PUSH2 0x3DB JUMPI PUSH2 0x2763 PUSH2 0x3C5F JUMP JUMPDEST PUSH1 0x1 SLOAD PUSH1 0xFF DUP2 AND ISZERO PUSH2 0x27A2 JUMPI PUSH1 0xFF NOT AND PUSH1 0x1 SSTORE PUSH32 0x5DB9EE0A495BF2E6FF9C91A7834C1BA4FDD244A5E8AA4E537BD38AEAE4B073AA PUSH1 0x20 PUSH1 0x40 MLOAD CALLER DUP2 MSTORE LOG1 STOP JUMPDEST PUSH4 0x8DFC202B PUSH1 0xE0 SHL PUSH1 0x0 MSTORE PUSH1 0x4 PUSH1 0x0 REVERT JUMPDEST CALLVALUE PUSH2 0x3DB JUMPI PUSH1 0x0 CALLDATASIZE PUSH1 0x3 NOT ADD SLT PUSH2 0x3DB JUMPI PUSH1 0x20 PUSH1 0x40 MLOAD PUSH3 0x278D00 DUP2 MSTORE RETURN JUMPDEST CALLVALUE PUSH2 0x3DB JUMPI PUSH2 0x27DF CALLDATASIZE PUSH2 0x3522 JUMP JUMPDEST CALLER PUSH1 0x0 MSTORE PUSH1 0x15 PUSH1 0x20 MSTORE PUSH1 0x40 PUSH1 0x0 KECCAK256 PUSH1 0x7 DUP2 ADD DUP1 SLOAD ISZERO PUSH2 0x2B33 JUMPI JUMPDEST POP PUSH1 0x8 DUP2 ADD PUSH2 0x2808 DUP2 SLOAD PUSH2 0x3610 JUMP JUMPDEST SWAP1 SSTORE PUSH1 0xA TIMESTAMP SWAP2 ADD SSTORE CALLER PUSH1 0x0 MSTORE PUSH1 0x17 PUSH1 0x20 MSTORE PUSH1 0xFF PUSH1 0x40 PUSH1 0x0 KECCAK256 SLOAD AND PUSH2 0x2AEE JUMPI DUP1 MLOAD PUSH1 0x3 DUP2 LT ISZERO SWAP1 DUP2 PUSH2 0x2AE2 JUMPI JUMPDEST POP ISZERO PUSH2 0x2AA6 JUMPI PUSH1 0x40 MLOAD DUP2 MLOAD SWAP1 PUSH1 0x20 DUP4 ADD SWAP2 PUSH2 0x2850 DUP2 DUP4 DUP6 PUSH2 0x34DA JUMP JUMPDEST PUSH1 0x16 SWAP1 DUP3 ADD SWAP1 DUP2 MSTORE DUP2 SWAP1 SUB PUSH1 0x20 ADD SWAP1 KECCAK256 SLOAD PUSH1 0x1 PUSH1 0x1 PUSH1 0xA0 SHL SUB AND PUSH2 0x2A70 JUMPI PUSH2 0x2877 DUP3 PUSH2 0x3E04 JUMP JUMPDEST ISZERO PUSH2 0x2A2B JUMPI CALLER PUSH1 0x0 MSTORE PUSH1 0x15 PUSH1 0x20 MSTORE PUSH1 0x40 PUSH1 0x0 KECCAK256 DUP3 MLOAD PUSH8 0xFFFFFFFFFFFFFFFF DUP2 GT PUSH2 0x20EC JUMPI PUSH2 0x28A5 DUP3 SLOAD PUSH2 0x33A1 JUMP JUMPDEST PUSH1 0x1F DUP2 GT PUSH2 0x29E3 JUMPI JUMPDEST POP PUSH1 0x20 PUSH1 0x1F DUP3 GT PUSH1 0x1 EQ PUSH2 0x2978 JUMPI SWAP2 DUP2 PUSH2 0x28F3 SWAP5 SWAP3 PUSH1 0x20 SWAP5 PUSH1 0x0 SWAP2 PUSH2 0x296D JUMPI JUMPDEST POP DUP2 PUSH1 0x1 SHL SWAP2 PUSH1 0x0 NOT SWAP1 PUSH1 0x3 SHL SHR NOT AND OR SWAP1 SSTORE JUMPDEST PUSH1 0x40 MLOAD DUP1 SWAP4 DUP2 SWAP3 DUP7 MLOAD SWAP3 DUP4 SWAP2 PUSH2 0x34DA JUMP JUMPDEST DUP2 ADD PUSH1 0x16 DUP2 MSTORE SUB ADD SWAP1 KECCAK256 PUSH1 0x1 DUP1 PUSH1 0xA0 SHL SUB CALLER AND PUSH1 0x1 PUSH1 0x1 PUSH1 0x60 SHL SUB PUSH1 0xA0 SHL DUP3 SLOAD AND OR SWAP1 SSTORE CALLER PUSH1 0x0 MSTORE PUSH1 0x17 PUSH1 0x20 MSTORE PUSH1 0x40 PUSH1 0x0 KECCAK256 PUSH1 0x1 PUSH1 0xFF NOT DUP3 SLOAD AND OR SWAP1 SSTORE PUSH32 0x4AFE13536E3149CDDD8C9A8DF1580CD5E909FD13C41E7DFEAD2E38D1141DAD5D PUSH1 0x40 MLOAD PUSH1 0x20 DUP2 MSTORE DUP1 PUSH2 0x2968 CALLER SWAP5 PUSH1 0x20 DUP4 ADD SWAP1 PUSH2 0x34FD JUMP JUMPDEST SUB SWAP1 LOG2 STOP JUMPDEST SWAP1 POP DUP7 ADD MLOAD DUP8 PUSH2 0x28CE JUMP JUMPDEST PUSH1 0x1F NOT DUP3 AND SWAP1 DUP4 PUSH1 0x0 MSTORE DUP1 PUSH1 0x0 KECCAK256 SWAP2 PUSH1 0x0 JUMPDEST DUP2 DUP2 LT PUSH2 0x29CB JUMPI POP SWAP3 PUSH1 0x20 SWAP5 SWAP3 PUSH1 0x1 SWAP3 DUP3 PUSH2 0x28F3 SWAP9 SWAP7 LT PUSH2 0x29B2 JUMPI JUMPDEST POP POP DUP2 SHL ADD SWAP1 SSTORE PUSH2 0x28E2 JUMP JUMPDEST DUP9 ADD MLOAD PUSH1 0x0 NOT PUSH1 0xF8 DUP5 PUSH1 0x3 SHL AND SHR NOT AND SWAP1 SSTORE DUP8 DUP1 PUSH2 0x29A6 JUMP JUMPDEST SWAP2 SWAP3 PUSH1 0x20 PUSH1 0x1 DUP2 SWAP3 DUP7 DUP12 ADD MLOAD DUP2 SSTORE ADD SWAP5 ADD SWAP3 ADD PUSH2 0x298A JUMP JUMPDEST DUP3 PUSH1 0x0 MSTORE PUSH1 0x20 PUSH1 0x0 KECCAK256 PUSH1 0x1F DUP4 ADD PUSH1 0x5 SHR DUP2 ADD SWAP2 PUSH1 0x20 DUP5 LT PUSH2 0x2A21 JUMPI JUMPDEST PUSH1 0x1F ADD PUSH1 0x5 SHR ADD SWAP1 JUMPDEST DUP2 DUP2 LT PUSH2 0x2A15 JUMPI POP PUSH2 0x28AE JUMP JUMPDEST PUSH1 0x0 DUP2 SSTORE PUSH1 0x1 ADD PUSH2 0x2A08 JUMP JUMPDEST SWAP1 SWAP2 POP DUP2 SWAP1 PUSH2 0x29FF JUMP JUMPDEST PUSH1 0x40 MLOAD PUSH3 0x461BCD PUSH1 0xE5 SHL DUP2 MSTORE PUSH1 0x20 PUSH1 0x4 DUP3 ADD MSTORE PUSH1 0x17 PUSH1 0x24 DUP3 ADD MSTORE PUSH32 0x496E76616C696420757365726E616D6520666F726D6174000000000000000000 PUSH1 0x44 DUP3 ADD MSTORE PUSH1 0x64 SWAP1 REVERT JUMPDEST PUSH1 0x40 MLOAD PUSH3 0x461BCD PUSH1 0xE5 SHL DUP2 MSTORE PUSH1 0x20 PUSH1 0x4 DUP3 ADD MSTORE PUSH1 0xE PUSH1 0x24 DUP3 ADD MSTORE PUSH14 0x2AB9B2B93730B6B2903A30B5B2B7 PUSH1 0x91 SHL PUSH1 0x44 DUP3 ADD MSTORE PUSH1 0x64 SWAP1 REVERT JUMPDEST PUSH1 0x40 MLOAD PUSH3 0x461BCD PUSH1 0xE5 SHL DUP2 MSTORE PUSH1 0x20 PUSH1 0x4 DUP3 ADD MSTORE PUSH1 0x14 PUSH1 0x24 DUP3 ADD MSTORE PUSH20 0x557365726E616D65206C656E67746820332D323 PUSH1 0x64 SHL PUSH1 0x44 DUP3 ADD MSTORE PUSH1 0x64 SWAP1 REVERT JUMPDEST PUSH1 0x14 SWAP2 POP GT ISZERO DUP3 PUSH2 0x2834 JUMP JUMPDEST PUSH1 0x40 MLOAD PUSH3 0x461BCD PUSH1 0xE5 SHL DUP2 MSTORE PUSH1 0x20 PUSH1 0x4 DUP3 ADD MSTORE PUSH1 0x1B PUSH1 0x24 DUP3 ADD MSTORE PUSH32 0x557365726E616D6520616C726561647920726567697374657265640000000000 PUSH1 0x44 DUP3 ADD MSTORE PUSH1 0x64 SWAP1 REVERT JUMPDEST TIMESTAMP SWAP1 SSTORE DUP3 PUSH2 0x27F9 JUMP JUMPDEST CALLVALUE PUSH2 0x3DB JUMPI PUSH1 0x0 CALLDATASIZE PUSH1 0x3 NOT ADD SLT PUSH2 0x3DB JUMPI PUSH2 0x2B55 PUSH2 0x3C20 JUMP JUMPDEST PUSH2 0x2B5D PUSH2 0x3C42 JUMP JUMPDEST CALLER PUSH1 0x0 MSTORE PUSH1 0x15 PUSH1 0x20 MSTORE PUSH1 0x40 PUSH1 0x0 KECCAK256 PUSH1 0x7 DUP2 ADD DUP1 SLOAD ISZERO PUSH2 0x2D9B JUMPI JUMPDEST POP PUSH1 0x8 DUP2 ADD PUSH2 0x2B86 DUP2 SLOAD PUSH2 0x3610 JUMP JUMPDEST SWAP1 SSTORE PUSH1 0xA TIMESTAMP SWAP2 ADD SSTORE CALLER PUSH1 0x0 MSTORE PUSH1 0x1A PUSH1 0x20 MSTORE PUSH1 0x40 PUSH1 0x0 KECCAK256 PUSH2 0x2BA5 CALLER PUSH2 0x3C8B JUMP JUMPDEST SWAP1 PUSH2 0x2BAF CALLER PUSH2 0x3D21 JUMP JUMPDEST PUSH2 0x2BB8 CALLER PUSH2 0x3D96 JUMP JUMPDEST SWAP1 PUSH2 0x2BCC DUP3 PUSH2 0x2BC7 DUP4 DUP8 PUSH2 0x36B6 JUMP JUMPDEST PUSH2 0x36B6 JUMP JUMPDEST SWAP4 DUP5 ISZERO PUSH2 0x2D5F JUMPI DUP1 PUSH2 0x2D20 JUMPI JUMPDEST POP DUP1 PUSH2 0x2CE0 JUMPI JUMPDEST POP DUP1 PUSH2 0x2CA0 JUMPI JUMPDEST POP PUSH1 0x3 DUP2 ADD PUSH2 0x2BF7 DUP4 DUP3 SLOAD PUSH2 0x36B6 JUMP JUMPDEST SWAP1 SSTORE TIMESTAMP PUSH1 0x4 SWAP2 DUP3 ADD SSTORE PUSH1 0x2 SLOAD PUSH1 0x40 MLOAD PUSH4 0xA9059CBB PUSH1 0xE0 SHL DUP2 MSTORE CALLER SWAP3 DUP2 ADD SWAP3 SWAP1 SWAP3 MSTORE PUSH1 0x24 DUP3 ADD DUP4 SWAP1 MSTORE PUSH1 0x20 SWAP1 DUP3 SWAP1 PUSH1 0x44 SWAP1 DUP3 SWAP1 PUSH1 0x0 SWAP1 PUSH1 0x1 PUSH1 0x1 PUSH1 0xA0 SHL SUB AND GAS CALL DUP1 ISZERO PUSH2 0x72B JUMPI PUSH2 0x2C4E SWAP2 PUSH1 0x0 SWAP2 PUSH2 0x2C81 JUMPI POP PUSH2 0x3678 JUMP JUMPDEST PUSH1 0x40 MLOAD SWAP1 DUP2 MSTORE PUSH32 0xF9984C8173C4B4FF9CC454F76ED19C053F4490CCB224FD9DDFFEB4EF4BEA3530 PUSH1 0x20 CALLER SWAP3 LOG2 PUSH1 0x1 PUSH1 0x0 SSTORE STOP JUMPDEST PUSH2 0x2C9A SWAP2 POP PUSH1 0x20 RETURNDATASIZE PUSH1 0x20 GT PUSH2 0x724 JUMPI PUSH2 0x716 DUP2 DUP4 PUSH2 0x3414 JUMP JUMPDEST DUP4 PUSH2 0x519 JUMP JUMPDEST PUSH1 0x2 PUSH1 0x0 MSTORE PUSH1 0x1E PUSH1 0x20 MSTORE PUSH32 0x8A1EA6CCFDF9F988BDC16303C81231F9B192785454B34880C28E5C30362354C8 DUP1 SLOAD SWAP1 SWAP2 PUSH2 0x2CD8 SWAP2 PUSH2 0x36C3 JUMP JUMPDEST SWAP1 SSTORE DUP3 PUSH2 0x2BE7 JUMP JUMPDEST PUSH1 0x1 PUSH1 0x0 MSTORE PUSH1 0x1E PUSH1 0x20 MSTORE PUSH32 0x873299C6A6C39B8B92F01922BB622DF4A3236EA2876AAC2DA76F6C092CF7E992 DUP1 SLOAD SWAP1 SWAP2 PUSH2 0x2D18 SWAP2 PUSH2 0x36C3 JUMP JUMPDEST SWAP1 SSTORE DUP4 PUSH2 0x2BE0 JUMP JUMPDEST PUSH1 0x0 DUP1 MSTORE PUSH1 0x1E PUSH1 0x20 MSTORE PUSH32 0x65CE8396B736F5DA9D881CC6FBCB11EF9721292DC41EC8C40879FD9EDEA57450 DUP1 SLOAD SWAP1 SWAP2 PUSH2 0x2D57 SWAP2 PUSH2 0x36C3 JUMP JUMPDEST SWAP1 SSTORE DUP5 PUSH2 0x2BD9 JUMP JUMPDEST PUSH1 0x40 MLOAD PUSH3 0x461BCD PUSH1 0xE5 SHL DUP2 MSTORE PUSH1 0x20 PUSH1 0x4 DUP3 ADD MSTORE PUSH1 0x14 PUSH1 0x24 DUP3 ADD MSTORE PUSH20 0x4E6F20696E74657265737420746F20636C61696D PUSH1 0x60 SHL PUSH1 0x44 DUP3 ADD MSTORE PUSH1 0x64 SWAP1 REVERT JUMPDEST TIMESTAMP SWAP1 SSTORE DUP2 PUSH2 0x2B77 JUMP JUMPDEST CALLVALUE PUSH2 0x3DB JUMPI PUSH1 0x20 CALLDATASIZE PUSH1 0x3 NOT ADD SLT PUSH2 0x3DB JUMPI PUSH1 0x1 PUSH1 0x1 PUSH1 0xA0 SHL SUB PUSH2 0x2DC5 PUSH2 0x32C4 JUMP JUMPDEST AND PUSH1 0x0 MSTORE PUSH1 0x15 PUSH1 0x20 MSTORE PUSH2 0x2E31 PUSH1 0x40 PUSH1 0x0 KECCAK256 PUSH2 0x2DDF DUP2 PUSH2 0x3436 JUMP JUMPDEST SWAP1 PUSH1 0x1 DUP2 ADD SLOAD SWAP1 PUSH1 0x2 DUP2 ADD SLOAD SWAP1 PUSH1 0x3 DUP2 ADD SLOAD PUSH1 0x4 DUP3 ADD SLOAD PUSH1 0xFF PUSH1 0x5 DUP5 ADD SLOAD AND PUSH1 0x6 DUP5 ADD SLOAD SWAP1 PUSH1 0x7 DUP6 ADD SLOAD SWAP3 PUSH1 0x8 DUP7 ADD SLOAD SWAP5 PUSH1 0xA PUSH1 0x9 DUP9 ADD SLOAD SWAP8 ADD SLOAD SWAP8 PUSH1 0x40 MLOAD SWAP12 DUP13 SWAP12 PUSH2 0x160 DUP14 MSTORE PUSH2 0x160 DUP14 ADD SWAP1 PUSH2 0x34FD JUMP JUMPDEST SWAP10 PUSH1 0x20 DUP13 ADD MSTORE PUSH1 0x40 DUP12 ADD MSTORE PUSH1 0x60 DUP11 ADD MSTORE PUSH1 0x80 DUP10 ADD MSTORE ISZERO ISZERO PUSH1 0xA0 DUP9 ADD MSTORE PUSH1 0xC0 DUP8 ADD MSTORE PUSH1 0xE0 DUP7 ADD MSTORE PUSH2 0x100 DUP6 ADD MSTORE PUSH2 0x120 DUP5 ADD MSTORE PUSH2 0x140 DUP4 ADD MSTORE SUB SWAP1 RETURN JUMPDEST CALLVALUE PUSH2 0x3DB JUMPI PUSH1 0x0 CALLDATASIZE PUSH1 0x3 NOT ADD SLT PUSH2 0x3DB JUMPI PUSH1 0x20 PUSH1 0x5 SLOAD PUSH1 0x40 MLOAD SWAP1 DUP2 MSTORE RETURN JUMPDEST CALLVALUE PUSH2 0x3DB JUMPI PUSH1 0x20 CALLDATASIZE PUSH1 0x3 NOT ADD SLT PUSH2 0x3DB JUMPI PUSH1 0x1 PUSH1 0x1 PUSH1 0xA0 SHL SUB PUSH2 0x2EAC PUSH2 0x32C4 JUMP JUMPDEST AND PUSH1 0x0 MSTORE PUSH1 0x1A PUSH1 0x20 MSTORE PUSH1 0x40 PUSH1 0x0 KECCAK256 DUP1 SLOAD PUSH2 0x9FF PUSH1 0x1 DUP4 ADD SLOAD SWAP3 PUSH1 0x2 DUP2 ADD SLOAD SWAP1 PUSH1 0x4 PUSH1 0x3 DUP3 ADD SLOAD SWAP2 ADD SLOAD SWAP2 PUSH1 0x40 MLOAD SWAP6 DUP7 SWAP6 DUP7 SWAP2 SWAP3 PUSH1 0x80 SWAP4 SWAP7 SWAP6 SWAP5 SWAP2 SWAP7 PUSH1 0xA0 DUP5 ADD SWAP8 DUP5 MSTORE PUSH1 0x20 DUP5 ADD MSTORE PUSH1 0x40 DUP4 ADD MSTORE PUSH1 0x60 DUP3 ADD MSTORE ADD MSTORE JUMP JUMPDEST CALLVALUE PUSH2 0x3DB JUMPI PUSH1 0x0 CALLDATASIZE PUSH1 0x3 NOT ADD SLT PUSH2 0x3DB JUMPI PUSH1 0x20 PUSH1 0x6 SLOAD PUSH1 0x40 MLOAD SWAP1 DUP2 MSTORE RETURN JUMPDEST CALLVALUE PUSH2 0x3DB JUMPI PUSH1 0x0 CALLDATASIZE PUSH1 0x3 NOT ADD SLT PUSH2 0x3DB JUMPI PUSH1 0x20 PUSH1 0x9 SLOAD PUSH1 0x40 MLOAD SWAP1 DUP2 MSTORE RETURN JUMPDEST CALLVALUE PUSH2 0x3DB JUMPI PUSH1 0x60 CALLDATASIZE PUSH1 0x3 NOT ADD SLT PUSH2 0x3DB JUMPI PUSH1 0x4 CALLDATALOAD PUSH1 0x3 DUP2 LT ISZERO PUSH2 0x3DB JUMPI PUSH1 0x24 CALLDATALOAD PUSH1 0x44 CALLDATALOAD SWAP2 PUSH2 0x2F69 PUSH2 0x3C5F JUMP JUMPDEST DUP3 DUP3 LT ISZERO PUSH2 0x2FE6 JUMPI PUSH2 0x1388 DUP4 GT PUSH2 0x2FB2 JUMPI PUSH2 0x2F83 DUP2 PUSH2 0x332B JUMP JUMPDEST DUP1 PUSH2 0x2F91 JUMPI POP PUSH1 0x6 SSTORE PUSH1 0x7 SSTORE STOP JUMPDEST PUSH1 0x1 SWAP1 PUSH2 0x2F9D DUP2 PUSH2 0x332B JUMP JUMPDEST SUB PUSH2 0x2FAA JUMPI PUSH1 0x8 SSTORE PUSH1 0x9 SSTORE STOP JUMPDEST PUSH1 0xA SSTORE PUSH1 0xB SSTORE STOP JUMPDEST PUSH1 0x40 MLOAD PUSH3 0x461BCD PUSH1 0xE5 SHL DUP2 MSTORE PUSH1 0x20 PUSH1 0x4 DUP3 ADD MSTORE PUSH1 0xC PUSH1 0x24 DUP3 ADD MSTORE PUSH12 0x9AC2F040E8DEDE40D0D2CED PUSH1 0xA3 SHL PUSH1 0x44 DUP3 ADD MSTORE PUSH1 0x64 SWAP1 REVERT JUMPDEST PUSH1 0x40 MLOAD PUSH3 0x461BCD PUSH1 0xE5 SHL DUP2 MSTORE PUSH1 0x20 PUSH1 0x4 DUP3 ADD MSTORE PUSH1 0xA PUSH1 0x24 DUP3 ADD MSTORE PUSH10 0x84C2E6CA407840DAC2F PUSH1 0xB3 SHL PUSH1 0x44 DUP3 ADD MSTORE PUSH1 0x64 SWAP1 REVERT JUMPDEST CALLVALUE PUSH2 0x3DB JUMPI PUSH1 0x40 CALLDATASIZE PUSH1 0x3 NOT ADD SLT PUSH2 0x3DB JUMPI PUSH2 0x3031 PUSH2 0x32C4 JUMP JUMPDEST PUSH1 0x1 PUSH1 0x1 PUSH1 0xA0 SHL SUB AND PUSH1 0x0 SWAP1 DUP2 MSTORE PUSH1 0x19 PUSH1 0x20 MSTORE PUSH1 0x40 SWAP1 KECCAK256 DUP1 SLOAD PUSH1 0x24 CALLDATALOAD SWAP1 DUP2 LT ISZERO PUSH2 0x3DB JUMPI PUSH2 0x305E SWAP2 PUSH2 0x32F9 JUMP JUMPDEST POP DUP1 SLOAD PUSH1 0x1 DUP3 ADD SLOAD PUSH1 0x2 DUP4 ADD SLOAD PUSH1 0x3 DUP5 ADD SLOAD PUSH1 0x4 DUP6 ADD SLOAD PUSH1 0x5 DUP7 ADD SLOAD PUSH1 0x6 DUP8 ADD SLOAD PUSH1 0x7 SWAP1 SWAP8 ADD SLOAD PUSH1 0x40 MLOAD SWAP8 DUP9 SWAP8 PUSH2 0x9FF SWAP8 PUSH1 0xFF PUSH1 0x8 DUP6 SWAP1 SHR DUP2 AND SWAP9 SWAP5 AND SWAP7 SWAP3 SWAP6 SWAP4 SWAP2 PUSH1 0x1 PUSH1 0x1 PUSH1 0xA0 SHL SUB AND DUP11 PUSH2 0x334B JUMP JUMPDEST CALLVALUE PUSH2 0x3DB JUMPI PUSH1 0x0 CALLDATASIZE PUSH1 0x3 NOT ADD SLT PUSH2 0x3DB JUMPI PUSH1 0x20 PUSH1 0xE SLOAD PUSH1 0x40 MLOAD SWAP1 DUP2 MSTORE RETURN JUMPDEST CALLVALUE PUSH2 0x3DB JUMPI PUSH2 0x30DB CALLDATASIZE PUSH2 0x32DA JUMP JUMPDEST PUSH2 0x30E3 PUSH2 0x3C20 JUMP JUMPDEST PUSH2 0x30EB PUSH2 0x3C42 JUMP JUMPDEST CALLER PUSH1 0x0 MSTORE PUSH1 0x15 PUSH1 0x20 MSTORE PUSH1 0x40 PUSH1 0x0 KECCAK256 PUSH1 0x7 DUP2 ADD DUP1 SLOAD ISZERO PUSH2 0x3255 JUMPI JUMPDEST POP PUSH1 0x8 DUP2 ADD PUSH2 0x3114 DUP2 SLOAD PUSH2 0x3610 JUMP JUMPDEST SWAP1 SSTORE PUSH1 0xA TIMESTAMP SWAP2 ADD SSTORE PUSH2 0x3127 DUP3 ISZERO ISZERO PUSH2 0x361F JUMP JUMPDEST PUSH1 0x2 SLOAD PUSH1 0x40 MLOAD PUSH4 0x23B872DD PUSH1 0xE0 SHL DUP2 MSTORE CALLER PUSH1 0x4 DUP3 ADD MSTORE ADDRESS PUSH1 0x24 DUP3 ADD MSTORE PUSH1 0x44 DUP2 ADD DUP5 SWAP1 MSTORE SWAP1 PUSH1 0x20 SWAP1 DUP3 SWAP1 PUSH1 0x64 SWAP1 DUP3 SWAP1 PUSH1 0x0 SWAP1 PUSH1 0x1 PUSH1 0x1 PUSH1 0xA0 SHL SUB AND GAS CALL DUP1 ISZERO PUSH2 0x72B JUMPI PUSH2 0x317A SWAP2 PUSH1 0x0 SWAP2 PUSH2 0x2574 JUMPI POP PUSH2 0x3678 JUMP JUMPDEST CALLER PUSH1 0x0 MSTORE PUSH1 0x1A PUSH1 0x20 MSTORE PUSH1 0x4 PUSH1 0x40 PUSH1 0x0 KECCAK256 PUSH2 0x3193 DUP4 PUSH2 0x332B JUMP JUMPDEST DUP3 PUSH1 0x0 MSTORE PUSH1 0x1E PUSH1 0x20 MSTORE PUSH1 0x40 PUSH1 0x0 KECCAK256 SWAP1 PUSH2 0x31AB DUP5 PUSH2 0x332B JUMP JUMPDEST DUP4 PUSH2 0x321F JUMPI PUSH2 0x31BB DUP6 DUP3 SLOAD PUSH2 0x36B6 JUMP JUMPDEST DUP2 SSTORE JUMPDEST DUP3 TIMESTAMP SWAP2 ADD SSTORE PUSH2 0x31CE DUP5 DUP3 SLOAD PUSH2 0x36B6 JUMP JUMPDEST DUP2 SSTORE ADD PUSH2 0x31DC DUP4 DUP3 SLOAD PUSH2 0x36B6 JUMP JUMPDEST SWAP1 SSTORE PUSH1 0x40 MLOAD SWAP2 DUP3 MSTORE PUSH2 0x31ED DUP2 PUSH2 0x332B JUMP JUMPDEST PUSH1 0x20 DUP3 ADD MSTORE PUSH32 0x9ABEC3FD8102EC4F27EC2E0653AAA0B3E91D8291780C0CD5FA27C15967761393 PUSH1 0x40 CALLER SWAP3 LOG2 PUSH1 0x1 PUSH1 0x0 SSTORE STOP JUMPDEST PUSH2 0x3228 DUP5 PUSH2 0x332B JUMP JUMPDEST PUSH1 0x1 DUP5 SUB PUSH2 0x3246 JUMPI PUSH1 0x1 DUP2 ADD PUSH2 0x323F DUP7 DUP3 SLOAD PUSH2 0x36B6 JUMP JUMPDEST SWAP1 SSTORE PUSH2 0x31BE JUMP JUMPDEST PUSH1 0x2 DUP2 ADD PUSH2 0x323F DUP7 DUP3 SLOAD PUSH2 0x36B6 JUMP JUMPDEST TIMESTAMP SWAP1 SSTORE DUP4 PUSH2 0x3105 JUMP JUMPDEST CALLVALUE PUSH2 0x3DB JUMPI PUSH1 0x40 CALLDATASIZE PUSH1 0x3 NOT ADD SLT PUSH2 0x3DB JUMPI PUSH2 0x3277 PUSH2 0x32C4 JUMP JUMPDEST PUSH1 0x24 CALLDATALOAD SWAP1 PUSH1 0x1 PUSH1 0x1 PUSH1 0xA0 SHL SUB DUP3 AND DUP3 SUB PUSH2 0x3DB JUMPI PUSH1 0x1 DUP1 PUSH1 0xA0 SHL SUB AND PUSH1 0x0 MSTORE PUSH1 0x1B PUSH1 0x20 MSTORE PUSH1 0x40 PUSH1 0x0 KECCAK256 SWAP1 PUSH1 0x1 DUP1 PUSH1 0xA0 SHL SUB AND PUSH1 0x0 MSTORE PUSH1 0x20 MSTORE PUSH1 0x20 PUSH1 0xFF PUSH1 0x40 PUSH1 0x0 KECCAK256 SLOAD AND PUSH1 0x40 MLOAD SWAP1 ISZERO ISZERO DUP2 MSTORE RETURN JUMPDEST PUSH1 0x4 CALLDATALOAD SWAP1 PUSH1 0x1 PUSH1 0x1 PUSH1 0xA0 SHL SUB DUP3 AND DUP3 SUB PUSH2 0x3DB JUMPI JUMP JUMPDEST PUSH1 0x40 SWAP1 PUSH1 0x3 NOT ADD SLT PUSH2 0x3DB JUMPI PUSH1 0x4 CALLDATALOAD SWAP1 PUSH1 0x24 CALLDATALOAD PUSH1 0x3 DUP2 LT ISZERO PUSH2 0x3DB JUMPI SWAP1 JUMP JUMPDEST DUP1 SLOAD DUP3 LT ISZERO PUSH2 0x3315 JUMPI PUSH1 0x0 MSTORE PUSH1 0x20 PUSH1 0x0 KECCAK256 SWAP1 PUSH1 0x3 SHL ADD SWAP1 PUSH1 0x0 SWAP1 JUMP JUMPDEST PUSH4 0x4E487B71 PUSH1 0xE0 SHL PUSH1 0x0 MSTORE PUSH1 0x32 PUSH1 0x4 MSTORE PUSH1 0x24 PUSH1 0x0 REVERT JUMPDEST PUSH1 0x3 GT ISZERO PUSH2 0x3335 JUMPI JUMP JUMPDEST PUSH4 0x4E487B71 PUSH1 0xE0 SHL PUSH1 0x0 MSTORE PUSH1 0x21 PUSH1 0x4 MSTORE PUSH1 0x24 PUSH1 0x0 REVERT JUMPDEST SWAP6 SWAP3 PUSH2 0x100 SWAP8 SWAP5 SWAP2 SWAP11 SWAP10 SWAP9 SWAP6 SWAP3 PUSH2 0x120 DUP9 ADD SWAP12 PUSH1 0x1 DUP1 PUSH1 0xA0 SHL SUB AND DUP9 MSTORE PUSH1 0x20 DUP9 ADD MSTORE PUSH1 0x40 DUP8 ADD MSTORE PUSH1 0x60 DUP7 ADD MSTORE PUSH1 0x80 DUP6 ADD MSTORE PUSH1 0xA0 DUP5 ADD MSTORE PUSH1 0xC0 DUP4 ADD MSTORE PUSH2 0x338F DUP2 PUSH2 0x332B JUMP JUMPDEST PUSH1 0xE0 DUP3 ADD MSTORE PUSH2 0x339D DUP4 PUSH2 0x332B JUMP JUMPDEST ADD MSTORE JUMP JUMPDEST SWAP1 PUSH1 0x1 DUP3 DUP2 SHR SWAP3 AND DUP1 ISZERO PUSH2 0x33D1 JUMPI JUMPDEST PUSH1 0x20 DUP4 LT EQ PUSH2 0x33BB JUMPI JUMP JUMPDEST PUSH4 0x4E487B71 PUSH1 0xE0 SHL PUSH1 0x0 MSTORE PUSH1 0x22 PUSH1 0x4 MSTORE PUSH1 0x24 PUSH1 0x0 REVERT JUMPDEST SWAP2 PUSH1 0x7F AND SWAP2 PUSH2 0x33B0 JUMP JUMPDEST PUSH2 0x160 DUP2 ADD SWAP1 DUP2 LT PUSH8 0xFFFFFFFFFFFFFFFF DUP3 GT OR PUSH2 0x20EC JUMPI PUSH1 0x40 MSTORE JUMP JUMPDEST PUSH1 0xA0 DUP2 ADD SWAP1 DUP2 LT PUSH8 0xFFFFFFFFFFFFFFFF DUP3 GT OR PUSH2 0x20EC JUMPI PUSH1 0x40 MSTORE JUMP JUMPDEST SWAP1 PUSH1 0x1F DUP1 NOT SWAP2 ADD AND DUP2 ADD SWAP1 DUP2 LT PUSH8 0xFFFFFFFFFFFFFFFF DUP3 GT OR PUSH2 0x20EC JUMPI PUSH1 0x40 MSTORE JUMP JUMPDEST SWAP1 PUSH1 0x40 MLOAD SWAP2 DUP3 PUSH1 0x0 DUP3 SLOAD SWAP3 PUSH2 0x344A DUP5 PUSH2 0x33A1 JUMP JUMPDEST DUP1 DUP5 MSTORE SWAP4 PUSH1 0x1 DUP2 AND SWAP1 DUP2 ISZERO PUSH2 0x34B8 JUMPI POP PUSH1 0x1 EQ PUSH2 0x3471 JUMPI JUMPDEST POP PUSH2 0x346F SWAP3 POP SUB DUP4 PUSH2 0x3414 JUMP JUMPDEST JUMP JUMPDEST SWAP1 POP PUSH1 0x0 SWAP3 SWAP2 SWAP3 MSTORE PUSH1 0x20 PUSH1 0x0 KECCAK256 SWAP1 PUSH1 0x0 SWAP2 JUMPDEST DUP2 DUP4 LT PUSH2 0x349C JUMPI POP POP SWAP1 PUSH1 0x20 PUSH2 0x346F SWAP3 DUP3 ADD ADD CODESIZE PUSH2 0x3462 JUMP JUMPDEST PUSH1 0x20 SWAP2 SWAP4 POP DUP1 PUSH1 0x1 SWAP2 SLOAD DUP4 DUP6 DUP10 ADD ADD MSTORE ADD SWAP2 ADD SWAP1 SWAP2 DUP5 SWAP3 PUSH2 0x3483 JUMP JUMPDEST SWAP1 POP PUSH1 0x20 SWAP3 POP PUSH2 0x346F SWAP5 SWAP2 POP PUSH1 0xFF NOT AND DUP3 DUP5 ADD MSTORE ISZERO ISZERO PUSH1 0x5 SHL DUP3 ADD ADD CODESIZE PUSH2 0x3462 JUMP JUMPDEST PUSH1 0x0 JUMPDEST DUP4 DUP2 LT PUSH2 0x34ED JUMPI POP POP PUSH1 0x0 SWAP2 ADD MSTORE JUMP JUMPDEST DUP2 DUP2 ADD MLOAD DUP4 DUP3 ADD MSTORE PUSH1 0x20 ADD PUSH2 0x34DD JUMP JUMPDEST SWAP1 PUSH1 0x20 SWAP2 PUSH2 0x3516 DUP2 MLOAD DUP1 SWAP3 DUP2 DUP6 MSTORE DUP6 DUP1 DUP7 ADD SWAP2 ADD PUSH2 0x34DA JUMP JUMPDEST PUSH1 0x1F ADD PUSH1 0x1F NOT AND ADD ADD SWAP1 JUMP JUMPDEST PUSH1 0x20 PUSH1 0x3 NOT DUP3 ADD SLT PUSH2 0x3DB JUMPI PUSH1 0x4 CALLDATALOAD PUSH8 0xFFFFFFFFFFFFFFFF DUP2 GT PUSH2 0x3DB JUMPI DUP2 PUSH1 0x23 DUP3 ADD SLT ISZERO PUSH2 0x3DB JUMPI DUP1 PUSH1 0x4 ADD CALLDATALOAD SWAP1 PUSH8 0xFFFFFFFFFFFFFFFF DUP3 GT PUSH2 0x20EC JUMPI PUSH1 0x40 MLOAD SWAP3 PUSH2 0x3578 PUSH1 0x1F DUP5 ADD PUSH1 0x1F NOT AND PUSH1 0x20 ADD DUP6 PUSH2 0x3414 JUMP JUMPDEST DUP3 DUP5 MSTORE PUSH1 0x24 DUP4 DUP4 ADD ADD GT PUSH2 0x3DB JUMPI DUP2 PUSH1 0x0 SWAP3 PUSH1 0x24 PUSH1 0x20 SWAP4 ADD DUP4 DUP7 ADD CALLDATACOPY DUP4 ADD ADD MSTORE SWAP1 JUMP JUMPDEST DUP1 SLOAD DUP3 LT ISZERO PUSH2 0x3315 JUMPI PUSH1 0x0 MSTORE PUSH1 0x20 PUSH1 0x0 KECCAK256 ADD SWAP1 PUSH1 0x0 SWAP1 JUMP JUMPDEST PUSH1 0x20 PUSH1 0x40 DUP2 DUP4 ADD SWAP3 DUP3 DUP2 MSTORE DUP5 MLOAD DUP1 SWAP5 MSTORE ADD SWAP3 ADD SWAP1 PUSH1 0x0 JUMPDEST DUP2 DUP2 LT PUSH2 0x35D7 JUMPI POP POP POP SWAP1 JUMP JUMPDEST DUP3 MLOAD PUSH1 0x1 PUSH1 0x1 PUSH1 0xA0 SHL SUB AND DUP5 MSTORE PUSH1 0x20 SWAP4 DUP5 ADD SWAP4 SWAP1 SWAP3 ADD SWAP2 PUSH1 0x1 ADD PUSH2 0x35CA JUMP JUMPDEST PUSH1 0x60 SWAP1 PUSH1 0x3 NOT ADD SLT PUSH2 0x3DB JUMPI PUSH1 0x4 CALLDATALOAD SWAP1 PUSH1 0x24 CALLDATALOAD SWAP1 PUSH1 0x44 CALLDATALOAD SWAP1 JUMP JUMPDEST PUSH1 0x0 NOT DUP2 EQ PUSH2 0x3B2 JUMPI PUSH1 0x1 ADD SWAP1 JUMP JUMPDEST ISZERO PUSH2 0x3626 JUMPI JUMP JUMPDEST PUSH1 0x40 MLOAD PUSH3 0x461BCD PUSH1 0xE5 SHL DUP2 MSTORE PUSH1 0x20 PUSH1 0x4 DUP3 ADD MSTORE PUSH1 0x12 PUSH1 0x24 DUP3 ADD MSTORE PUSH18 0x416D6F756E74206D757374206265203E203 PUSH1 0x74 SHL PUSH1 0x44 DUP3 ADD MSTORE PUSH1 0x64 SWAP1 REVERT JUMPDEST SWAP1 DUP2 PUSH1 0x20 SWAP2 SUB SLT PUSH2 0x3DB JUMPI MLOAD DUP1 ISZERO ISZERO DUP2 SUB PUSH2 0x3DB JUMPI SWAP1 JUMP JUMPDEST ISZERO PUSH2 0x367F JUMPI JUMP JUMPDEST PUSH1 0x40 MLOAD PUSH3 0x461BCD PUSH1 0xE5 SHL DUP2 MSTORE PUSH1 0x20 PUSH1 0x4 DUP3 ADD MSTORE PUSH1 0xF PUSH1 0x24 DUP3 ADD MSTORE PUSH15 0x151C985B9CD9995C8819985A5B1959 PUSH1 0x8A SHL PUSH1 0x44 DUP3 ADD MSTORE PUSH1 0x64 SWAP1 REVERT JUMPDEST SWAP2 SWAP1 DUP3 ADD DUP1 SWAP3 GT PUSH2 0x3B2 JUMPI JUMP JUMPDEST SWAP2 SWAP1 DUP3 SUB SWAP2 DUP3 GT PUSH2 0x3B2 JUMPI JUMP JUMPDEST SWAP1 PUSH1 0x40 MLOAD PUSH2 0x120 DUP2 ADD DUP2 DUP2 LT PUSH8 0xFFFFFFFFFFFFFFFF DUP3 GT OR PUSH2 0x20EC JUMPI PUSH1 0x40 MSTORE PUSH2 0x100 PUSH1 0xFF PUSH1 0x7 DUP4 SWAP6 PUSH1 0x1 DUP1 PUSH1 0xA0 SHL SUB DUP2 SLOAD AND DUP6 MSTORE PUSH1 0x1 DUP2 ADD SLOAD PUSH1 0x20 DUP7 ADD MSTORE PUSH1 0x2 DUP2 ADD SLOAD PUSH1 0x40 DUP7 ADD MSTORE PUSH1 0x3 DUP2 ADD SLOAD PUSH1 0x60 DUP7 ADD MSTORE PUSH1 0x4 DUP2 ADD SLOAD PUSH1 0x80 DUP7 ADD MSTORE PUSH1 0x5 DUP2 ADD SLOAD PUSH1 0xA0 DUP7 ADD MSTORE PUSH1 0x6 DUP2 ADD SLOAD PUSH1 0xC0 DUP7 ADD MSTORE ADD SLOAD DUP2 DUP2 AND PUSH2 0x374E DUP2 PUSH2 0x332B JUMP JUMPDEST PUSH1 0xE0 DUP6 ADD MSTORE PUSH1 0x8 SHR AND SWAP2 PUSH2 0x339D DUP4 PUSH2 0x332B JUMP JUMPDEST ISZERO PUSH2 0x3768 JUMPI JUMP JUMPDEST PUSH1 0x40 MLOAD PUSH3 0x461BCD PUSH1 0xE5 SHL DUP2 MSTORE PUSH1 0x20 PUSH1 0x4 DUP3 ADD MSTORE PUSH1 0x1B PUSH1 0x24 DUP3 ADD MSTORE PUSH32 0x496E73756666696369656E7420706F6F6C206C69717569646974790000000000 PUSH1 0x44 DUP3 ADD MSTORE PUSH1 0x64 SWAP1 REVERT JUMPDEST PUSH1 0x40 MLOAD SWAP1 PUSH1 0x60 DUP3 ADD DUP3 DUP2 LT PUSH8 0xFFFFFFFFFFFFFFFF DUP3 GT OR PUSH2 0x20EC JUMPI PUSH1 0x40 MSTORE PUSH1 0x0 PUSH1 0x40 DUP4 DUP3 DUP2 MSTORE DUP3 PUSH1 0x20 DUP3 ADD MSTORE ADD MSTORE JUMP JUMPDEST PUSH2 0x37E5 PUSH2 0x37AD JUMP JUMPDEST POP PUSH1 0x1 DUP1 PUSH1 0xA0 SHL SUB AND PUSH1 0x0 MSTORE PUSH1 0x15 PUSH1 0x20 MSTORE PUSH1 0x40 PUSH1 0x0 KECCAK256 PUSH1 0x40 MLOAD PUSH2 0x3807 DUP2 PUSH2 0x33DB JUMP JUMPDEST PUSH2 0x3810 DUP3 PUSH2 0x3436 JUMP JUMPDEST DUP2 MSTORE PUSH1 0x1 DUP3 ADD SLOAD PUSH1 0x20 DUP3 ADD MSTORE PUSH1 0x2 DUP3 ADD SLOAD PUSH1 0x40 DUP3 ADD MSTORE PUSH1 0x3 DUP3 ADD SLOAD PUSH1 0x60 DUP3 ADD MSTORE PUSH1 0x4 DUP3 ADD SLOAD PUSH1 0x80 DUP3 ADD MSTORE PUSH1 0xFF PUSH1 0x5 DUP4 ADD SLOAD AND ISZERO ISZERO PUSH1 0xA0 DUP3 ADD MSTORE PUSH1 0x6 DUP3 ADD SLOAD PUSH1 0xC0 DUP3 ADD MSTORE PUSH2 0x140 PUSH1 0xA PUSH1 0x7 DUP5 ADD SLOAD SWAP4 PUSH1 0xE0 DUP5 ADD SWAP5 DUP6 MSTORE PUSH1 0x8 DUP2 ADD SLOAD PUSH2 0x100 DUP6 ADD MSTORE PUSH1 0x9 DUP2 ADD SLOAD PUSH2 0x120 DUP6 ADD MSTORE ADD SLOAD SWAP2 ADD MSTORE PUSH2 0x3888 PUSH2 0x37AD JUMP JUMPDEST SWAP1 DUP1 MLOAD ISZERO PUSH2 0x3902 JUMPI PUSH2 0x389B SWAP1 MLOAD TIMESTAMP PUSH2 0x36C3 JUMP JUMPDEST DUP1 DUP3 MSTORE PUSH3 0x76A700 DUP2 LT PUSH2 0x38BB JUMPI POP PUSH1 0x3 PUSH1 0x20 DUP3 ADD MSTORE PUSH1 0x96 PUSH1 0x40 DUP3 ADD MSTORE JUMPDEST SWAP1 JUMP JUMPDEST PUSH3 0x278D00 DUP2 LT PUSH2 0x38D7 JUMPI POP PUSH1 0x2 PUSH1 0x20 DUP3 ADD MSTORE PUSH1 0x64 PUSH1 0x40 DUP3 ADD MSTORE SWAP1 JUMP JUMPDEST PUSH3 0x93A80 GT PUSH2 0x38F1 JUMPI PUSH1 0x1 PUSH1 0x20 DUP3 ADD MSTORE PUSH1 0x32 PUSH1 0x40 DUP3 ADD MSTORE SWAP1 JUMP JUMPDEST PUSH1 0x0 PUSH1 0x20 DUP3 ADD MSTORE PUSH1 0x1E PUSH1 0x40 DUP3 ADD MSTORE SWAP1 JUMP JUMPDEST POP PUSH1 0x0 DUP2 MSTORE PUSH1 0x0 PUSH1 0x20 DUP3 ADD MSTORE PUSH1 0x1E PUSH1 0x40 DUP3 ADD MSTORE SWAP1 JUMP JUMPDEST ISZERO PUSH2 0x391F JUMPI JUMP JUMPDEST PUSH1 0x40 MLOAD PUSH3 0x461BCD PUSH1 0xE5 SHL DUP2 MSTORE PUSH1 0x20 PUSH1 0x4 DUP3 ADD MSTORE PUSH1 0x11 PUSH1 0x24 DUP3 ADD MSTORE PUSH17 0x155CD95C9B985B59481C995C5D5A5C9959 PUSH1 0x7A SHL PUSH1 0x44 DUP3 ADD MSTORE PUSH1 0x64 SWAP1 REVERT JUMPDEST DUP2 DUP2 MUL SWAP3 SWAP2 DUP2 ISZERO SWAP2 DUP5 DIV EQ OR ISZERO PUSH2 0x3B2 JUMPI JUMP JUMPDEST DUP2 ISZERO PUSH2 0x3975 JUMPI DIV SWAP1 JUMP JUMPDEST PUSH4 0x4E487B71 PUSH1 0xE0 SHL PUSH1 0x0 MSTORE PUSH1 0x12 PUSH1 0x4 MSTORE PUSH1 0x24 PUSH1 0x0 REVERT JUMPDEST PUSH1 0x0 SWAP3 SWAP2 DUP2 SLOAD SWAP2 PUSH2 0x399B DUP4 PUSH2 0x33A1 JUMP JUMPDEST DUP1 DUP4 MSTORE SWAP3 PUSH1 0x1 DUP2 AND SWAP1 DUP2 ISZERO PUSH2 0x39F1 JUMPI POP PUSH1 0x1 EQ PUSH2 0x39B7 JUMPI POP POP POP JUMP JUMPDEST PUSH1 0x0 SWAP1 DUP2 MSTORE PUSH1 0x20 DUP2 KECCAK256 SWAP4 SWAP5 POP SWAP2 SWAP3 JUMPDEST DUP4 DUP4 LT PUSH2 0x39D7 JUMPI POP PUSH1 0x20 SWAP3 POP ADD ADD SWAP1 JUMP JUMPDEST PUSH1 0x1 DUP2 PUSH1 0x20 SWAP3 SWAP5 SWAP4 SWAP5 SLOAD DUP4 DUP6 DUP8 ADD ADD MSTORE ADD SWAP2 ADD SWAP2 SWAP1 PUSH2 0x39C6 JUMP JUMPDEST SWAP2 POP POP PUSH1 0x20 SWAP4 SWAP5 POP PUSH1 0xFF SWAP3 SWAP2 SWAP3 NOT AND DUP4 DUP4 ADD MSTORE ISZERO ISZERO PUSH1 0x5 SHL ADD ADD SWAP1 JUMP JUMPDEST SWAP1 PUSH1 0x40 MLOAD PUSH2 0x3A1B DUP2 PUSH2 0x33F8 JUMP JUMPDEST PUSH1 0x80 PUSH1 0x4 DUP3 SWAP5 DUP1 SLOAD DUP5 MSTORE PUSH1 0x1 DUP2 ADD SLOAD PUSH1 0x20 DUP6 ADD MSTORE PUSH1 0x2 DUP2 ADD SLOAD PUSH1 0x40 DUP6 ADD MSTORE PUSH1 0x3 DUP2 ADD SLOAD PUSH1 0x60 DUP6 ADD MSTORE ADD SLOAD SWAP2 ADD MSTORE JUMP JUMPDEST PUSH1 0x40 MLOAD SWAP1 PUSH2 0x3A57 DUP3 PUSH2 0x33F8 JUMP JUMPDEST PUSH1 0x0 PUSH1 0x80 DUP4 DUP3 DUP2 MSTORE DUP3 PUSH1 0x20 DUP3 ADD MSTORE DUP3 PUSH1 0x40 DUP3 ADD MSTORE DUP3 PUSH1 0x60 DUP3 ADD MSTORE ADD MSTORE JUMP JUMPDEST DUP1 SLOAD PUSH1 0x1 PUSH1 0x40 SHL DUP2 LT ISZERO PUSH2 0x20EC JUMPI PUSH2 0x3A92 SWAP2 PUSH1 0x1 DUP3 ADD DUP2 SSTORE PUSH2 0x359B JUMP JUMPDEST DUP2 SLOAD PUSH1 0x1 PUSH1 0x1 PUSH1 0xA0 SHL SUB SWAP4 DUP5 AND PUSH1 0x3 SWAP3 SWAP1 SWAP3 SHL SWAP2 DUP3 SHL SWAP4 SWAP1 SWAP2 SHL NOT AND SWAP2 SWAP1 SWAP2 OR SWAP1 SSTORE JUMP JUMPDEST ISZERO PUSH2 0x3ABD JUMPI JUMP JUMPDEST PUSH1 0x40 MLOAD PUSH3 0x461BCD PUSH1 0xE5 SHL DUP2 MSTORE PUSH1 0x20 PUSH1 0x4 DUP3 ADD MSTORE PUSH1 0xE PUSH1 0x24 DUP3 ADD MSTORE PUSH14 0x27379030B1BA34BB32903637B0B7 PUSH1 0x91 SHL PUSH1 0x44 DUP3 ADD MSTORE PUSH1 0x64 SWAP1 REVERT JUMPDEST ISZERO PUSH2 0x3AFA JUMPI JUMP JUMPDEST PUSH1 0x40 MLOAD PUSH3 0x461BCD PUSH1 0xE5 SHL DUP2 MSTORE PUSH1 0x20 PUSH1 0x4 DUP3 ADD MSTORE PUSH1 0xF PUSH1 0x24 DUP3 ADD MSTORE PUSH15 0x4C6F616E206E6F7420616374697665 PUSH1 0x88 SHL PUSH1 0x44 DUP3 ADD MSTORE PUSH1 0x64 SWAP1 REVERT JUMPDEST SWAP1 PUSH2 0x3B3B DUP2 PUSH2 0x332B JUMP JUMPDEST PUSH2 0xFF00 DUP3 SLOAD SWAP2 PUSH1 0x8 SHL AND SWAP1 PUSH2 0xFF00 NOT AND OR SWAP1 SSTORE JUMP JUMPDEST DUP1 SLOAD PUSH1 0x1 PUSH1 0x40 SHL DUP2 LT ISZERO PUSH2 0x20EC JUMPI PUSH2 0x3B6D SWAP2 PUSH1 0x1 DUP3 ADD DUP2 SSTORE PUSH2 0x32F9 JUMP JUMPDEST SWAP2 SWAP1 SWAP2 PUSH2 0x3C0A JUMPI DUP1 DUP3 SUB PUSH2 0x3B7F JUMPI POP POP JUMP JUMPDEST PUSH1 0xFF PUSH1 0x7 DUP1 PUSH2 0x346F SWAP5 PUSH1 0x1 DUP1 PUSH1 0xA0 SHL SUB PUSH1 0x1 DUP1 PUSH1 0xA0 SHL SUB DUP7 SLOAD AND AND PUSH1 0x1 PUSH1 0x1 PUSH1 0x60 SHL SUB PUSH1 0xA0 SHL DUP3 SLOAD AND OR DUP2 SSTORE PUSH1 0x1 DUP6 ADD SLOAD PUSH1 0x1 DUP3 ADD SSTORE PUSH1 0x2 DUP6 ADD SLOAD PUSH1 0x2 DUP3 ADD SSTORE PUSH1 0x3 DUP6 ADD SLOAD PUSH1 0x3 DUP3 ADD SSTORE PUSH1 0x4 DUP6 ADD SLOAD PUSH1 0x4 DUP3 ADD SSTORE PUSH1 0x5 DUP6 ADD SLOAD PUSH1 0x5 DUP3 ADD SSTORE PUSH1 0x6 DUP6 ADD SLOAD PUSH1 0x6 DUP3 ADD SSTORE ADD SWAP3 ADD DUP2 DUP2 SLOAD AND PUSH2 0x3BF7 DUP2 PUSH2 0x332B JUMP JUMPDEST DUP3 NOT DUP5 SLOAD AND OR DUP4 SSTORE SLOAD PUSH1 0x8 SHR AND SWAP1 PUSH2 0x3B31 JUMP JUMPDEST PUSH4 0x4E487B71 PUSH1 0xE0 SHL PUSH1 0x0 MSTORE PUSH1 0x0 PUSH1 0x4 MSTORE PUSH1 0x24 PUSH1 0x0 REVERT JUMPDEST PUSH1 0x2 PUSH1 0x0 SLOAD EQ PUSH2 0x3C31 JUMPI PUSH1 0x2 PUSH1 0x0 SSTORE JUMP JUMPDEST PUSH4 0x3EE5AEB5 PUSH1 0xE0 SHL PUSH1 0x0 MSTORE PUSH1 0x4 PUSH1 0x0 REVERT JUMPDEST PUSH1 0xFF PUSH1 0x1 SLOAD AND PUSH2 0x3C4E JUMPI JUMP JUMPDEST PUSH4 0xD93C0665 PUSH1 0xE0 SHL PUSH1 0x0 MSTORE PUSH1 0x4 PUSH1 0x0 REVERT JUMPDEST PUSH1 0x1 SLOAD PUSH1 0x8 SHR PUSH1 0x1 PUSH1 0x1 PUSH1 0xA0 SHL SUB AND CALLER SUB PUSH2 0x3C76 JUMPI JUMP JUMPDEST PUSH4 0x118CDAA7 PUSH1 0xE0 SHL PUSH1 0x0 MSTORE CALLER PUSH1 0x4 MSTORE PUSH1 0x24 PUSH1 0x0 REVERT JUMPDEST PUSH1 0x1 PUSH1 0x1 PUSH1 0xA0 SHL SUB AND PUSH1 0x0 SWAP1 DUP2 MSTORE PUSH1 0x1A PUSH1 0x20 MSTORE PUSH1 0x40 SWAP1 KECCAK256 PUSH2 0x3CAB SWAP1 PUSH2 0x3A0E JUMP JUMPDEST PUSH1 0x0 DUP1 MSTORE PUSH1 0x1E PUSH1 0x20 MSTORE PUSH2 0x3CDD PUSH32 0x65CE8396B736F5DA9D881CC6FBCB11EF9721292DC41EC8C40879FD9EDEA5744D PUSH2 0x3A0E JUMP JUMPDEST PUSH1 0x80 DUP2 ADD SWAP2 DUP3 MLOAD ISZERO DUP1 ISZERO PUSH2 0x3D15 JUMPI JUMPDEST PUSH2 0x3D0D JUMPI PUSH2 0x38B8 SWAP3 SWAP2 PUSH1 0x60 PUSH2 0x3D05 SWAP3 MLOAD SWAP2 ADD MLOAD SWAP1 PUSH2 0x3958 JUMP JUMPDEST SWAP1 MLOAD SWAP1 PUSH2 0x396B JUMP JUMPDEST POP POP POP PUSH1 0x0 SWAP1 JUMP JUMPDEST POP PUSH1 0x60 DUP3 ADD MLOAD ISZERO PUSH2 0x3CEC JUMP JUMPDEST PUSH1 0x1 PUSH1 0x1 PUSH1 0xA0 SHL SUB AND PUSH1 0x0 SWAP1 DUP2 MSTORE PUSH1 0x1A PUSH1 0x20 MSTORE PUSH1 0x40 DUP2 KECCAK256 PUSH2 0x3D41 SWAP1 PUSH2 0x3A0E JUMP JUMPDEST SWAP1 PUSH1 0x1 DUP2 MSTORE PUSH1 0x1E PUSH1 0x20 MSTORE PUSH2 0x3D57 PUSH1 0x40 DUP3 KECCAK256 PUSH2 0x3A0E JUMP JUMPDEST SWAP2 PUSH1 0x80 DUP4 ADD SWAP2 DUP3 MLOAD ISZERO DUP1 ISZERO PUSH2 0x3D8A JUMPI JUMPDEST PUSH2 0x3D83 JUMPI POP PUSH2 0x38B8 SWAP3 PUSH1 0x60 PUSH1 0x20 PUSH2 0x3D05 SWAP4 ADD MLOAD SWAP2 ADD MLOAD SWAP1 PUSH2 0x3958 JUMP JUMPDEST SWAP3 POP POP POP SWAP1 JUMP JUMPDEST POP PUSH1 0x60 DUP5 ADD MLOAD ISZERO PUSH2 0x3D67 JUMP JUMPDEST PUSH1 0x1 PUSH1 0x1 PUSH1 0xA0 SHL SUB AND PUSH1 0x0 SWAP1 DUP2 MSTORE PUSH1 0x1A PUSH1 0x20 MSTORE PUSH1 0x40 DUP2 KECCAK256 PUSH2 0x3DB6 SWAP1 PUSH2 0x3A0E JUMP JUMPDEST SWAP1 PUSH1 0x2 DUP2 MSTORE PUSH1 0x1E PUSH1 0x20 MSTORE PUSH2 0x3DCC PUSH1 0x40 DUP3 KECCAK256 PUSH2 0x3A0E JUMP JUMPDEST SWAP2 PUSH1 0x80 DUP4 ADD SWAP2 DUP3 MLOAD ISZERO DUP1 ISZERO PUSH2 0x3DF8 JUMPI JUMPDEST PUSH2 0x3D83 JUMPI POP PUSH2 0x38B8 SWAP3 PUSH1 0x60 PUSH1 0x40 PUSH2 0x3D05 SWAP4 ADD MLOAD SWAP2 ADD MLOAD SWAP1 PUSH2 0x3958 JUMP JUMPDEST POP PUSH1 0x60 DUP5 ADD MLOAD ISZERO PUSH2 0x3DDC JUMP JUMPDEST PUSH1 0x0 JUMPDEST DUP2 MLOAD DUP2 LT ISZERO PUSH2 0x3EBD JUMPI PUSH1 0x0 PUSH1 0xFF PUSH1 0xF8 SHL PUSH1 0x20 DUP4 DUP6 ADD ADD MLOAD AND PUSH1 0x3 PUSH1 0xFC SHL DUP2 LT ISZERO SWAP1 DUP2 PUSH2 0x3EAE JUMPI JUMPDEST DUP2 ISZERO PUSH2 0x3E8A JUMPI JUMPDEST DUP2 ISZERO PUSH2 0x3E66 JUMPI JUMPDEST DUP2 ISZERO PUSH2 0x3E58 JUMPI JUMPDEST POP ISZERO PUSH2 0x3E52 JUMPI POP PUSH1 0x1 ADD PUSH2 0x3E07 JUMP JUMPDEST SWAP2 POP POP SWAP1 JUMP JUMPDEST PUSH1 0x5F PUSH1 0xF8 SHL EQ SWAP1 POP CODESIZE PUSH2 0x3E43 JUMP JUMPDEST SWAP1 POP PUSH1 0x61 PUSH1 0xF8 SHL DUP2 LT ISZERO DUP1 PUSH2 0x3E7C JUMPI JUMPDEST SWAP1 PUSH2 0x3E3C JUMP JUMPDEST POP PUSH1 0x3D PUSH1 0xF9 SHL DUP2 GT ISZERO PUSH2 0x3E76 JUMP JUMPDEST SWAP1 POP PUSH1 0x41 PUSH1 0xF8 SHL DUP2 LT ISZERO DUP1 PUSH2 0x3EA0 JUMPI JUMPDEST SWAP1 PUSH2 0x3E35 JUMP JUMPDEST POP PUSH1 0x2D PUSH1 0xF9 SHL DUP2 GT ISZERO PUSH2 0x3E9A JUMP JUMPDEST PUSH1 0x39 PUSH1 0xF8 SHL DUP2 GT ISZERO SWAP2 POP PUSH2 0x3E2E JUMP JUMPDEST POP POP PUSH1 0x1 SWAP1 JUMP JUMPDEST PUSH1 0x64 SWAP2 PUSH2 0x3EDE SWAP2 PUSH2 0x12C DUP2 LT ISZERO PUSH2 0x3EE2 JUMPI POP PUSH1 0x11 SLOAD PUSH2 0x3958 JUMP JUMPDEST DIV SWAP1 JUMP JUMPDEST PUSH2 0x258 GT ISZERO PUSH2 0x3EF3 JUMPI PUSH1 0x12 SLOAD PUSH2 0x3958 JUMP JUMPDEST PUSH1 0x13 SLOAD PUSH2 0x3958 JUMP JUMPDEST PUSH2 0x258 DUP2 LT PUSH2 0x3F0A JUMPI POP PUSH1 0x0 SWAP1 JUMP JUMPDEST PUSH2 0x12C GT PUSH2 0x3F17 JUMPI PUSH1 0x1 SWAP1 JUMP JUMPDEST PUSH1 0x2 SWAP1 JUMP JUMPDEST PUSH1 0x1 PUSH1 0x1 PUSH1 0xA0 SHL SUB AND PUSH1 0x0 DUP2 DUP2 MSTORE PUSH1 0x15 PUSH1 0x20 MSTORE PUSH1 0x40 SWAP1 KECCAK256 PUSH1 0xA DUP2 ADD SLOAD DUP1 ISZERO DUP1 ISZERO PUSH2 0x3FE3 JUMPI JUMPDEST PUSH2 0x3FDE JUMPI PUSH2 0x3F53 PUSH3 0xED4E00 SWAP2 TIMESTAMP PUSH2 0x36C3 JUMP JUMPDEST LT ISZERO PUSH2 0x3F5D JUMPI POP POP JUMP JUMPDEST PUSH1 0x1 ADD DUP1 SLOAD PUSH1 0x32 DUP2 GT ISZERO PUSH2 0x3FB0 JUMPI DUP2 SLOAD PUSH1 0x31 NOT DUP2 ADD SWAP2 SWAP1 DUP3 GT PUSH2 0x3B2 JUMPI DUP3 PUSH1 0x40 SWAP3 PUSH32 0x6F01342A57A245A77A3189F561E580B7CA4A2F9EF9795ADBEDFED33C35ACD8B2 SWAP5 SSTORE JUMPDEST SLOAD DUP3 MLOAD SWAP2 DUP3 MSTORE PUSH1 0x20 DUP3 ADD MSTORE LOG2 JUMP JUMPDEST PUSH1 0x40 SWAP1 DUP3 PUSH1 0x64 PUSH32 0x6F01342A57A245A77A3189F561E580B7CA4A2F9EF9795ADBEDFED33C35ACD8B2 SWAP5 SSTORE PUSH2 0x3FA2 JUMP JUMPDEST POP POP POP JUMP JUMPDEST POP PUSH1 0x64 PUSH1 0x1 DUP4 ADD SLOAD GT ISZERO PUSH2 0x3F41 JUMP INVALID LOG2 PUSH5 0x6970667358 0x22 SLT KECCAK256 0x23 PUSH12 0xC725FE36E068C4257C3D7A60 PUSH30 0x185B1769C36DE6213BC7198A687FF03B4664736F6C634300081C00330000 "},"methodIdentifiers":{"BASE_INTEREST_RATE_HIGH()":"7b8c6ab9","BASE_INTEREST_RATE_LOW()":"23df015d","BASE_INTEREST_RATE_MED()":"f1bbad48","DEFAULT_COOLDOWN_PERIOD()":"f20b2be0","GRACE_PERIOD()":"c1a287e2","HIGH_TRUST_LIMIT()":"a9a58578","INITIAL_TRUST_SCORE()":"a91a36e9","LOW_RISK_THRESHOLD()":"b7591080","LOW_TRUST_LIMIT()":"9a70327d","MATURITY_LEVEL_1()":"e1493c23","MATURITY_LEVEL_2()":"3a28d680","MATURITY_LEVEL_3()":"6f474ab0","MAX_INTEREST_RATE_HIGH()":"89871aac","MAX_INTEREST_RATE_LOW()":"c01fa452","MAX_INTEREST_RATE_MED()":"1dd057ef","MAX_LOAN_DURATION()":"0d0b2ca6","MAX_TRUST_SCORE()":"74c8d377","MAX_VOUCHES_PER_USER()":"cf8f2d37","MEDIUM_RISK_THRESHOLD()":"bbcf9fee","MED_TRUST_LIMIT()":"b3402bed","MIN_LOAN_AMOUNT()":"96fa212f","MIN_LOAN_DURATION()":"89d99a05","POOL_SAFETY_BUFFER()":"772c80d3","REPUTATION_DECAY_AMOUNT()":"9d0194fb","REPUTATION_DECAY_PERIOD()":"8257886d","TRUST_DECREASE_ON_DEFAULT()":"9c847f74","TRUST_INCREASE_PER_REPAYMENT()":"ac03411d","VOUCH_PENALTY_ON_DEFAULT()":"3271eb65","activeLoans(address)":"ba649839","claimInterest()":"35981fd8","depositToPool(uint256,uint8)":"0c2b2176","emergencyWithdraw(address,uint256)":"95ccea67","getActiveLoan(address)":"6010ba64","getAddressByUsername(string)":"6322961d","getAllPoolStats()":"b3de6981","getLenderInfo(address)":"ab19f095","getLoanHistory(address)":"888f057f","getPoolStatsForRisk(uint8)":"fdb4d046","getUserProfile(address)":"987ee156","getUserVouches(address)":"6e2ce3b0","getVouchesGiven(address)":"d8ce1c9c","getWalletMaturity(address)":"9af81969","hasUsername(address)":"a5c2fb82","lenders(address)":"28fd10d7","lendingToken()":"aaaca558","loanHistory(address,uint256)":"0de4f25c","markDefault(address)":"be81c4d4","owner()":"8da5cb5b","pause()":"8456cb59","paused()":"5c975abb","poolStats(uint8)":"64b7ae0e","registerUsername(string)":"36a94134","renounceOwnership()":"715018a6","repayLoan()":"f966ade7","requestLoan(uint256,uint256)":"aa452fa6","transferOwnership(address)":"f2fde38b","unpause()":"3f4ba83a","updateBorrowingLimits(uint256,uint256,uint256)":"9549e682","updatePoolInterestRates(uint8,uint256,uint256)":"1c9ab0eb","updateTrustParameters(uint256,uint256,uint256)":"ef5ed81a","userProfiles(address)":"332d56d7","usernameToAddress(string)":"f825f143","vouchForUser(string)":"ba1b1f89","vouchedBy(address,uint256)":"6d7867de","vouches(address,address)":"0b337be6","vouchesGiven(address,uint256)":"83abf414","withdrawFromPool(uint256,uint8)":"612eadb9"}}}}}