{
  "_format": "hh-sol-artifact-1",
  "contractName": "TFXReserveVault",
  "sourceName": "contracts/TFXReserveVault.sol",
  "abi": [
    {
      "inputs": [
        {
          "internalType": "address",
          "name": "_usdc",
          "type": "address"
        },
        {
          "internalType": "address",
          "name": "_tfx",
          "type": "address"
        }
      ],
      "stateMutability": "nonpayable",
      "type": "constructor"
    },
    {
      "inputs": [],
      "name": "EnforcedPause",
      "type": "error"
    },
    {
      "inputs": [],
      "name": "ExpectedPause",
      "type": "error"
    },
    {
      "inputs": [
        {
          "internalType": "address",
          "name": "owner",
          "type": "address"
        }
      ],
      "name": "OwnableInvalidOwner",
      "type": "error"
    },
    {
      "inputs": [
        {
          "internalType": "address",
          "name": "account",
          "type": "address"
        }
      ],
      "name": "OwnableUnauthorizedAccount",
      "type": "error"
    },
    {
      "inputs": [],
      "name": "ReentrancyGuardReentrantCall",
      "type": "error"
    },
    {
      "anonymous": false,
      "inputs": [
        {
          "indexed": true,
          "internalType": "address",
          "name": "user",
          "type": "address"
        },
        {
          "indexed": false,
          "internalType": "uint256",
          "name": "usdcAmount",
          "type": "uint256"
        },
        {
          "indexed": false,
          "internalType": "uint256",
          "name": "tfxAmount",
          "type": "uint256"
        },
        {
          "indexed": false,
          "internalType": "uint256",
          "name": "fee",
          "type": "uint256"
        },
        {
          "indexed": false,
          "internalType": "uint256",
          "name": "timestamp",
          "type": "uint256"
        }
      ],
      "name": "BoughtTFX",
      "type": "event"
    },
    {
      "anonymous": false,
      "inputs": [
        {
          "indexed": true,
          "internalType": "address",
          "name": "token",
          "type": "address"
        },
        {
          "indexed": false,
          "internalType": "uint256",
          "name": "amount",
          "type": "uint256"
        },
        {
          "indexed": true,
          "internalType": "address",
          "name": "to",
          "type": "address"
        }
      ],
      "name": "EmergencyWithdraw",
      "type": "event"
    },
    {
      "anonymous": false,
      "inputs": [
        {
          "indexed": true,
          "internalType": "address",
          "name": "collector",
          "type": "address"
        },
        {
          "indexed": false,
          "internalType": "uint256",
          "name": "usdcFees",
          "type": "uint256"
        },
        {
          "indexed": false,
          "internalType": "uint256",
          "name": "tfxFees",
          "type": "uint256"
        }
      ],
      "name": "FeesCollected",
      "type": "event"
    },
    {
      "anonymous": false,
      "inputs": [
        {
          "indexed": false,
          "internalType": "uint256",
          "name": "newBuyFee",
          "type": "uint256"
        },
        {
          "indexed": false,
          "internalType": "uint256",
          "name": "newSellFee",
          "type": "uint256"
        }
      ],
      "name": "FeesUpdated",
      "type": "event"
    },
    {
      "anonymous": false,
      "inputs": [
        {
          "indexed": false,
          "internalType": "uint256",
          "name": "oldMin",
          "type": "uint256"
        },
        {
          "indexed": false,
          "internalType": "uint256",
          "name": "newMin",
          "type": "uint256"
        }
      ],
      "name": "MinTransactionUpdated",
      "type": "event"
    },
    {
      "anonymous": false,
      "inputs": [
        {
          "indexed": true,
          "internalType": "address",
          "name": "previousOwner",
          "type": "address"
        },
        {
          "indexed": true,
          "internalType": "address",
          "name": "newOwner",
          "type": "address"
        }
      ],
      "name": "OwnershipTransferred",
      "type": "event"
    },
    {
      "anonymous": false,
      "inputs": [
        {
          "indexed": false,
          "internalType": "address",
          "name": "account",
          "type": "address"
        }
      ],
      "name": "Paused",
      "type": "event"
    },
    {
      "anonymous": false,
      "inputs": [
        {
          "indexed": false,
          "internalType": "uint256",
          "name": "oldRate",
          "type": "uint256"
        },
        {
          "indexed": false,
          "internalType": "uint256",
          "name": "newRate",
          "type": "uint256"
        }
      ],
      "name": "RateUpdated",
      "type": "event"
    },
    {
      "anonymous": false,
      "inputs": [
        {
          "indexed": true,
          "internalType": "address",
          "name": "user",
          "type": "address"
        },
        {
          "indexed": false,
          "internalType": "uint256",
          "name": "tfxAmount",
          "type": "uint256"
        },
        {
          "indexed": false,
          "internalType": "uint256",
          "name": "usdcAmount",
          "type": "uint256"
        },
        {
          "indexed": false,
          "internalType": "uint256",
          "name": "fee",
          "type": "uint256"
        },
        {
          "indexed": false,
          "internalType": "uint256",
          "name": "timestamp",
          "type": "uint256"
        }
      ],
      "name": "SoldTFX",
      "type": "event"
    },
    {
      "anonymous": false,
      "inputs": [
        {
          "indexed": false,
          "internalType": "address",
          "name": "account",
          "type": "address"
        }
      ],
      "name": "Unpaused",
      "type": "event"
    },
    {
      "inputs": [],
      "name": "MAX_FEE",
      "outputs": [
        {
          "internalType": "uint256",
          "name": "",
          "type": "uint256"
        }
      ],
      "stateMutability": "view",
      "type": "function"
    },
    {
      "inputs": [],
      "name": "RATE_PRECISION",
      "outputs": [
        {
          "internalType": "uint256",
          "name": "",
          "type": "uint256"
        }
      ],
      "stateMutability": "view",
      "type": "function"
    },
    {
      "inputs": [
        {
          "internalType": "uint256",
          "name": "amount",
          "type": "uint256"
        }
      ],
      "name": "addTFXLiquidity",
      "outputs": [],
      "stateMutability": "nonpayable",
      "type": "function"
    },
    {
      "inputs": [
        {
          "internalType": "uint256",
          "name": "amount",
          "type": "uint256"
        }
      ],
      "name": "addUSDCLiquidity",
      "outputs": [],
      "stateMutability": "nonpayable",
      "type": "function"
    },
    {
      "inputs": [],
      "name": "buyFee",
      "outputs": [
        {
          "internalType": "uint256",
          "name": "",
          "type": "uint256"
        }
      ],
      "stateMutability": "view",
      "type": "function"
    },
    {
      "inputs": [
        {
          "internalType": "uint256",
          "name": "usdcAmount",
          "type": "uint256"
        }
      ],
      "name": "buyTFX",
      "outputs": [],
      "stateMutability": "nonpayable",
      "type": "function"
    },
    {
      "inputs": [
        {
          "internalType": "uint256",
          "name": "usdcAmount",
          "type": "uint256"
        }
      ],
      "name": "calculateBuyTFX",
      "outputs": [
        {
          "internalType": "uint256",
          "name": "tfxAmount",
          "type": "uint256"
        },
        {
          "internalType": "uint256",
          "name": "feeAmount",
          "type": "uint256"
        },
        {
          "internalType": "uint256",
          "name": "tfxToUser",
          "type": "uint256"
        }
      ],
      "stateMutability": "view",
      "type": "function"
    },
    {
      "inputs": [
        {
          "internalType": "uint256",
          "name": "tfxAmount",
          "type": "uint256"
        }
      ],
      "name": "calculateSellTFX",
      "outputs": [
        {
          "internalType": "uint256",
          "name": "usdcAmount",
          "type": "uint256"
        },
        {
          "internalType": "uint256",
          "name": "feeAmount",
          "type": "uint256"
        },
        {
          "internalType": "uint256",
          "name": "usdcToUser",
          "type": "uint256"
        }
      ],
      "stateMutability": "view",
      "type": "function"
    },
    {
      "inputs": [],
      "name": "collectFees",
      "outputs": [],
      "stateMutability": "nonpayable",
      "type": "function"
    },
    {
      "inputs": [],
      "name": "collectedTFXFees",
      "outputs": [
        {
          "internalType": "uint256",
          "name": "",
          "type": "uint256"
        }
      ],
      "stateMutability": "view",
      "type": "function"
    },
    {
      "inputs": [],
      "name": "collectedUSDCFees",
      "outputs": [
        {
          "internalType": "uint256",
          "name": "",
          "type": "uint256"
        }
      ],
      "stateMutability": "view",
      "type": "function"
    },
    {
      "inputs": [
        {
          "internalType": "address",
          "name": "token",
          "type": "address"
        },
        {
          "internalType": "uint256",
          "name": "amount",
          "type": "uint256"
        },
        {
          "internalType": "address",
          "name": "to",
          "type": "address"
        }
      ],
      "name": "emergencyWithdraw",
      "outputs": [],
      "stateMutability": "nonpayable",
      "type": "function"
    },
    {
      "inputs": [],
      "name": "getVaultLiquidity",
      "outputs": [
        {
          "internalType": "uint256",
          "name": "usdcBalance",
          "type": "uint256"
        },
        {
          "internalType": "uint256",
          "name": "tfxBalance",
          "type": "uint256"
        },
        {
          "internalType": "uint256",
          "name": "usdcFeesCollected",
          "type": "uint256"
        },
        {
          "internalType": "uint256",
          "name": "tfxFeesCollected",
          "type": "uint256"
        }
      ],
      "stateMutability": "view",
      "type": "function"
    },
    {
      "inputs": [],
      "name": "getVaultStats",
      "outputs": [
        {
          "internalType": "uint256",
          "name": "_totalUSDCDeposited",
          "type": "uint256"
        },
        {
          "internalType": "uint256",
          "name": "_totalUSDCWithdrawn",
          "type": "uint256"
        },
        {
          "internalType": "uint256",
          "name": "_totalTFXDeposited",
          "type": "uint256"
        },
        {
          "internalType": "uint256",
          "name": "_totalTFXWithdrawn",
          "type": "uint256"
        },
        {
          "internalType": "uint256",
          "name": "_totalBuyTx",
          "type": "uint256"
        },
        {
          "internalType": "uint256",
          "name": "_totalSellTx",
          "type": "uint256"
        }
      ],
      "stateMutability": "view",
      "type": "function"
    },
    {
      "inputs": [],
      "name": "minTransactionAmount",
      "outputs": [
        {
          "internalType": "uint256",
          "name": "",
          "type": "uint256"
        }
      ],
      "stateMutability": "view",
      "type": "function"
    },
    {
      "inputs": [],
      "name": "owner",
      "outputs": [
        {
          "internalType": "address",
          "name": "",
          "type": "address"
        }
      ],
      "stateMutability": "view",
      "type": "function"
    },
    {
      "inputs": [],
      "name": "pause",
      "outputs": [],
      "stateMutability": "nonpayable",
      "type": "function"
    },
    {
      "inputs": [],
      "name": "paused",
      "outputs": [
        {
          "internalType": "bool",
          "name": "",
          "type": "bool"
        }
      ],
      "stateMutability": "view",
      "type": "function"
    },
    {
      "inputs": [],
      "name": "rate",
      "outputs": [
        {
          "internalType": "uint256",
          "name": "",
          "type": "uint256"
        }
      ],
      "stateMutability": "view",
      "type": "function"
    },
    {
      "inputs": [],
      "name": "renounceOwnership",
      "outputs": [],
      "stateMutability": "nonpayable",
      "type": "function"
    },
    {
      "inputs": [],
      "name": "sellFee",
      "outputs": [
        {
          "internalType": "uint256",
          "name": "",
          "type": "uint256"
        }
      ],
      "stateMutability": "view",
      "type": "function"
    },
    {
      "inputs": [
        {
          "internalType": "uint256",
          "name": "tfxAmount",
          "type": "uint256"
        }
      ],
      "name": "sellTFX",
      "outputs": [],
      "stateMutability": "nonpayable",
      "type": "function"
    },
    {
      "inputs": [
        {
          "internalType": "uint256",
          "name": "_buyFee",
          "type": "uint256"
        },
        {
          "internalType": "uint256",
          "name": "_sellFee",
          "type": "uint256"
        }
      ],
      "name": "setFees",
      "outputs": [],
      "stateMutability": "nonpayable",
      "type": "function"
    },
    {
      "inputs": [
        {
          "internalType": "uint256",
          "name": "newMin",
          "type": "uint256"
        }
      ],
      "name": "setMinTransaction",
      "outputs": [],
      "stateMutability": "nonpayable",
      "type": "function"
    },
    {
      "inputs": [
        {
          "internalType": "uint256",
          "name": "newRate",
          "type": "uint256"
        }
      ],
      "name": "setRate",
      "outputs": [],
      "stateMutability": "nonpayable",
      "type": "function"
    },
    {
      "inputs": [],
      "name": "tfx",
      "outputs": [
        {
          "internalType": "contract IERC20",
          "name": "",
          "type": "address"
        }
      ],
      "stateMutability": "view",
      "type": "function"
    },
    {
      "inputs": [],
      "name": "totalBuyTransactions",
      "outputs": [
        {
          "internalType": "uint256",
          "name": "",
          "type": "uint256"
        }
      ],
      "stateMutability": "view",
      "type": "function"
    },
    {
      "inputs": [],
      "name": "totalSellTransactions",
      "outputs": [
        {
          "internalType": "uint256",
          "name": "",
          "type": "uint256"
        }
      ],
      "stateMutability": "view",
      "type": "function"
    },
    {
      "inputs": [],
      "name": "totalTFXDeposited",
      "outputs": [
        {
          "internalType": "uint256",
          "name": "",
          "type": "uint256"
        }
      ],
      "stateMutability": "view",
      "type": "function"
    },
    {
      "inputs": [],
      "name": "totalTFXWithdrawn",
      "outputs": [
        {
          "internalType": "uint256",
          "name": "",
          "type": "uint256"
        }
      ],
      "stateMutability": "view",
      "type": "function"
    },
    {
      "inputs": [],
      "name": "totalUSDCDeposited",
      "outputs": [
        {
          "internalType": "uint256",
          "name": "",
          "type": "uint256"
        }
      ],
      "stateMutability": "view",
      "type": "function"
    },
    {
      "inputs": [],
      "name": "totalUSDCWithdrawn",
      "outputs": [
        {
          "internalType": "uint256",
          "name": "",
          "type": "uint256"
        }
      ],
      "stateMutability": "view",
      "type": "function"
    },
    {
      "inputs": [
        {
          "internalType": "address",
          "name": "newOwner",
          "type": "address"
        }
      ],
      "name": "transferOwnership",
      "outputs": [],
      "stateMutability": "nonpayable",
      "type": "function"
    },
    {
      "inputs": [],
      "name": "unpause",
      "outputs": [],
      "stateMutability": "nonpayable",
      "type": "function"
    },
    {
      "inputs": [],
      "name": "usdc",
      "outputs": [
        {
          "internalType": "contract IERC20",
          "name": "",
          "type": "address"
        }
      ],
      "stateMutability": "view",
      "type": "function"
    },
    {
      "inputs": [
        {
          "internalType": "uint256",
          "name": "amount",
          "type": "uint256"
        }
      ],
      "name": "withdrawTFX",
      "outputs": [],
      "stateMutability": "nonpayable",
      "type": "function"
    },
    {
      "inputs": [
        {
          "internalType": "uint256",
          "name": "amount",
          "type": "uint256"
        }
      ],
      "name": "withdrawUSDC",
      "outputs": [],
      "stateMutability": "nonpayable",
      "type": "function"
    }
  ],
  "bytecode": "0x60c0346101f557601f6119ec38819003918201601f19168301916001600160401b038311848410176101fa5780849260409485528339810103126101f557610052602061004b83610210565b9201610210565b33156101df5760008054336001600160a01b0319821681178355604051949290916001600160a01b0316907f8be0079c531659141344cd1fd0a4f28419497f9722a3daafe3b4186f6b6457e09080a36001805561271060035560006004819055600555620f4240600e556001600160a01b031691821561019d57506001600160a01b03169081156101585760805260a0526040516117c790816102258239608051818181610409015281816105eb0152818161085001528181610b1901528181610ea20152818161116301526111be015260a0518181816102010152818161035701528181610514015281816106de015281816107d501528181610f1d01526112140152f35b60405162461bcd60e51b815260206004820152601360248201527f496e76616c6964205446582061646472657373000000000000000000000000006044820152606490fd5b62461bcd60e51b815260206004820152601460248201527f496e76616c6964205553444320616464726573730000000000000000000000006044820152606490fd5b631e4fbdf760e01b600052600060045260246000fd5b600080fd5b634e487b7160e01b600052604160045260246000fd5b51906001600160a01b03821682036101f55756fe6080604052600436101561001257600080fd5b60003560e01c80630b78f9c01461148557806317a5d4df146114675780631b43ea93146114235780631dac56a1146114055780632b14ca56146113e75780632b3ba681146113ca5780632c4e722e146113ac57806334fcf437146112da57806339413712146111925780633e413bee1461114d5780633f4ba83a146110e4578063424f022b14610e1c5780634706240214610dfe578063551512de14610cf05780635c975abb14610ccd5780635f8fde0314610caf578063715018a614610c565780638456cb5914610bfc5780638da5cb5b14610bd357806397eb0d8214610b715780639eabbc4314610acb578063a1bda7c214610aad578063a25cef1314610a8f578063a388d2ab14610a71578063a4c324f514610a53578063a59aa5a614610a0b578063ab6e52ae14610761578063b43485af1461070d578063b8590445146106c8578063b8a265d4146106aa578063bc063e1a1461068d578063c879657214610468578063d0ba5a731461044a578063db81f99b146103b8578063e32ddf6a14610306578063f2fde38b1461027d5763faf974bb146101b357600080fd5b34610278576020366003190112610278576101cc611729565b6040516323b872dd60e01b81523360048083019190915230602483015235604482015260208160648160006001600160a01b037f0000000000000000000000000000000000000000000000000000000000000000165af1801561026c5761023b9160009161023d575b5061164a565b005b61025f915060203d602011610265575b61025781836115b7565b810190611632565b38610235565b503d61024d565b6040513d6000823e3d90fd5b600080fd5b3461027857602036600319011261027857610296611561565b61029e611729565b6001600160a01b031680156102f057600080546001600160a01b03198116831782556001600160a01b0316907f8be0079c531659141344cd1fd0a4f28419497f9722a3daafe3b4186f6b6457e09080a3005b631e4fbdf760e01b600052600060045260246000fd5b346102785760203660031901126102785761031f611729565b60005460405163a9059cbb60e01b81526001600160a01b039091166004808301919091523560248201526020818060448101038160007f00000000000000000000000000000000000000000000000000000000000000006001600160a01b03165af1801561026c5761023b91600091610399575b506116eb565b6103b2915060203d6020116102655761025781836115b7565b82610393565b34610278576020366003190112610278576103d1611729565b60005460405163a9059cbb60e01b81526001600160a01b039091166004808301919091523560248201526020818060448101038160007f00000000000000000000000000000000000000000000000000000000000000006001600160a01b03165af1801561026c5761023b9160009161039957506116eb565b34610278576000366003190112610278576020600854604051908152f35b3461027857600036600319011261027857610481611729565b6006546007549060006006556000600755806105b6575b816104df575b6000546040805192835260208301939093526001600160a01b0316917f2e4fb6077d4acf86e12bb7411fb82b2b3eaa6a49787f4b1e17b423e7ea84116991a2005b60005460405163a9059cbb60e01b81526001600160a01b039091166004820152602481018390526020818060448101038160007f00000000000000000000000000000000000000000000000000000000000000006001600160a01b03165af190811561026c57600091610597575b5061049e5760405162461bcd60e51b815260206004820152601760248201527f54465820666565207472616e73666572206661696c65640000000000000000006044820152606490fd5b6105b0915060203d6020116102655761025781836115b7565b8361054d565b60005460405163a9059cbb60e01b81526001600160a01b039091166004820152602481018290526020818060448101038160007f00000000000000000000000000000000000000000000000000000000000000006001600160a01b03165af190811561026c5760009161066e575b506104985760405162461bcd60e51b815260206004820152601860248201527f5553444320666565207472616e73666572206661696c656400000000000000006044820152606490fd5b610687915060203d6020116102655761025781836115b7565b83610624565b346102785760003660031901126102785760206040516101f48152f35b34610278576000366003190112610278576020600654604051908152f35b34610278576000366003190112610278576040517f00000000000000000000000000000000000000000000000000000000000000006001600160a01b03168152602090f35b34610278576020366003190112610278577f3e8e9813c077209963f6eb642773ab5a418c8fcbd15bc82b90e3d828d206a83a604060043561074c611729565b600e549080600e5582519182526020820152a1005b346102785760203660031901126102785760043561077d611752565b610785611774565b610793600e548210156115ef565b6127106107a260035483611577565b046127106107b260045483611577565b04916107be83836115aa565b6040516370a0823160e01b815230600482015290937f00000000000000000000000000000000000000000000000000000000000000006001600160a01b0316939091602081602481885afa90811561026c576000916109d9575b5010610994576040516323b872dd60e01b81523360048201523060248201526044810183905260208160648160006001600160a01b037f0000000000000000000000000000000000000000000000000000000000000000165af1801561026c5761088a91600091610975575b5061168c565b60405163a9059cbb60e01b81523360048201526024810185905292602090849060449082906000905af192831561026c577f10115a38487d4c50d2a0e8685176f4bf241925201f2481a5095cbad95afd92d2936108ee91600091610956575061164a565b6108fa826008546116cf565b60085561090984600b546116cf565b600b55610917600c546116dc565b600c55610926816007546116cf565b60075560408051928352602083019490945292810192909252426060830152339180608081015b0390a260018055005b61096f915060203d6020116102655761025781836115b7565b86610235565b61098e915060203d6020116102655761025781836115b7565b86610884565b60405162461bcd60e51b815260206004820152601a60248201527f496e73756666696369656e7420544658206c69717569646974790000000000006044820152606490fd5b90506020813d602011610a03575b816109f4602093836115b7565b81010312610278575186610818565b3d91506109e7565b346102785760003660031901126102785760c0600854600954600a54600b54600c5491600d5493604051958652602086015260408501526060840152608083015260a0820152f35b34610278576000366003190112610278576020600754604051908152f35b34610278576000366003190112610278576020600d54604051908152f35b34610278576000366003190112610278576020600b54604051908152f35b34610278576000366003190112610278576020600a54604051908152f35b3461027857602036600319011261027857610ae4611729565b6040516323b872dd60e01b81523360048083019190915230602483015235604482015260208160648160006001600160a01b037f0000000000000000000000000000000000000000000000000000000000000000165af1801561026c5761023b91600091610b52575061168c565b610b6b915060203d6020116102655761025781836115b7565b82610884565b3461027857602036600319011261027857612710610b93600354600435611577565b04612710610ba360045483611577565b0490610bcf610bb283836115aa565b604051938493846040919493926060820195825260208201520152565b0390f35b34610278576000366003190112610278576000546040516001600160a01b039091168152602090f35b3461027857600036600319011261027857610c15611729565b610c1d611774565b600160ff1960025416176002557f62e78cea01bee320cd4e420270b5ea74000d11b0c9f74754ebdbfc544b05a2586020604051338152a1005b3461027857600036600319011261027857610c6f611729565b600080546001600160a01b0319811682556001600160a01b03167f8be0079c531659141344cd1fd0a4f28419497f9722a3daafe3b4186f6b6457e08280a3005b34610278576000366003190112610278576020600954604051908152f35b3461027857600036600319011261027857602060ff600254166040519015158152f35b3461027857606036600319011261027857610d09611561565b6044356001600160a01b0381169160243583830361027857610d29611729565b8315610dc55760405163a9059cbb60e01b81526001600160a01b0393841660048201526024810182905291909216916020826044816000875af190811561026c57610d9f6020927faaeda929aa102e867049528ec7cd2499e3a2f8846e736ae7935f234dfbf500d994600091610da857506116eb565b604051908152a3005b610dbf9150843d86116102655761025781836115b7565b87610393565b60405162461bcd60e51b8152602060048201526011602482015270125b9d985b1a59081c9958da5c1a595b9d607a1b6044820152606490fd5b34610278576000366003190112610278576020600454604051908152f35b3461027857602036600319011261027857600435610e38611752565b610e40611774565b80156110aa5761271081028181046127100361109457600354610e629161158a565b610e70600e548210156115ef565b612710610e7f60055483611577565b0491610e8b83836115aa565b6040516370a0823160e01b815230600482015290937f00000000000000000000000000000000000000000000000000000000000000006001600160a01b0316939091602081602481885afa90811561026c57600091611062575b501061101d576040516323b872dd60e01b81523360048201523060248201526044810183905260208160648160006001600160a01b037f0000000000000000000000000000000000000000000000000000000000000000165af1801561026c57610f5691600091610956575061164a565b60405163a9059cbb60e01b81523360048201526024810185905292602090849060449082906000905af192831561026c577f721a5e02cdd52571a804eea9c7b75964cbc1db4fbf450d2819b30c24ab2a42b993610fba91600091610975575061168c565b610fc682600a546116cf565b600a55610fd5846009546116cf565b600955610fe3600d546116dc565b600d55610ff2816006546116cf565b600655604080519283526020830194909452928101929092524260608301523391806080810161094d565b60405162461bcd60e51b815260206004820152601b60248201527f496e73756666696369656e742055534443206c697175696469747900000000006044820152606490fd5b90506020813d60201161108c575b8161107d602093836115b7565b81010312610278575186610ee5565b3d9150611070565b634e487b7160e01b600052601160045260246000fd5b60405162461bcd60e51b81526020600482015260126024820152710416d6f756e74206d757374206265203e20360741b6044820152606490fd5b34610278576000366003190112610278576110fd611729565b60025460ff81161561113c5760ff19166002557f5db9ee0a495bf2e6ff9c91a7834c1ba4fdd244a5e8aa4e537bd38aeae4b073aa6020604051338152a1005b638dfc202b60e01b60005260046000fd5b34610278576000366003190112610278576040517f00000000000000000000000000000000000000000000000000000000000000006001600160a01b03168152602090f35b34610278576000366003190112610278576040516370a0823160e01b81523060048201526020816024817f00000000000000000000000000000000000000000000000000000000000000006001600160a01b03165afa90811561026c576000916112a8575b506040516370a0823160e01b8152306004820152906020826024817f00000000000000000000000000000000000000000000000000000000000000006001600160a01b03165afa91821561026c57600092611274575b50600654600754604080519384526020840194909452928201526060810191909152608090f35b9091506020813d6020116112a0575b81611290602093836115b7565b810103126102785751908261124d565b3d9150611283565b90506020813d6020116112d2575b816112c3602093836115b7565b810103126102785751816111f7565b3d91506112b6565b34610278576020366003190112610278576004356112f6611729565b801561137457620186a0811161133f5760407fb38780ddde1f073d91c150de2696f3f7085883648ba21cc5ef01029cb21d191691600354908060035582519182526020820152a1005b60405162461bcd60e51b815260206004820152600d60248201526c0a4c2e8ca40e8dede40d0d2ced609b1b6044820152606490fd5b60405162461bcd60e51b815260206004820152601060248201526f052617465206d757374206265203e20360841b6044820152606490fd5b34610278576000366003190112610278576020600354604051908152f35b346102785760003660031901126102785760206040516127108152f35b34610278576000366003190112610278576020600554604051908152f35b34610278576000366003190112610278576020600c54604051908152f35b34610278576020366003190112610278576004356127108102908082046127101490151715611094576003546114589161158a565b612710610ba360055483611577565b34610278576000366003190112610278576020600e54604051908152f35b34610278576040366003190112610278576004356024356114a4611729565b6101f48211611529576101f481116114f057816040917f5c6323bf1c2d7aaea2c091a4751c1c87af7f2864650c336507a77d0557af37a1936004558060055582519182526020820152a1005b60405162461bcd60e51b81526020600482015260116024820152700a6cad8d840cccaca40e8dede40d0d2ced607b1b6044820152606490fd5b60405162461bcd60e51b815260206004820152601060248201526f084eaf240cccaca40e8dede40d0d2ced60831b6044820152606490fd5b600435906001600160a01b038216820361027857565b8181029291811591840414171561109457565b8115611594570490565b634e487b7160e01b600052601260045260246000fd5b9190820391821161109457565b90601f8019910116810190811067ffffffffffffffff8211176115d957604052565b634e487b7160e01b600052604160045260246000fd5b156115f657565b60405162461bcd60e51b8152602060048201526014602482015273416d6f756e742062656c6f77206d696e696d756d60601b6044820152606490fd5b90816020910312610278575180151581036102785790565b1561165157565b60405162461bcd60e51b8152602060048201526013602482015272151196081d1c985b9cd9995c8819985a5b1959606a1b6044820152606490fd5b1561169357565b60405162461bcd60e51b81526020600482015260146024820152731554d110c81d1c985b9cd9995c8819985a5b195960621b6044820152606490fd5b9190820180921161109457565b60001981146110945760010190565b156116f257565b60405162461bcd60e51b815260206004820152600f60248201526e151c985b9cd9995c8819985a5b1959608a1b6044820152606490fd5b6000546001600160a01b0316330361173d57565b63118cdaa760e01b6000523360045260246000fd5b600260015414611763576002600155565b633ee5aeb560e01b60005260046000fd5b60ff6002541661178057565b63d93c066560e01b60005260046000fdfea264697066735822122055ede49a268db10ef58d49231b05e05708401e5755261f1a7893d65fc1dab60e64736f6c634300081c0033",
  "linkReferences": {},
  "deployedLinkReferences": {}
}