{
  "_format": "hh-sol-artifact-1",
  "contractName": "TrustForgeDAO",
  "sourceName": "contracts/dao.sol",
  "abi": [
    {
      "inputs": [
        {
          "internalType": "address",
          "name": "_tfxToken",
          "type": "address"
        }
      ],
      "stateMutability": "nonpayable",
      "type": "constructor"
    },
    {
      "inputs": [
        {
          "internalType": "address",
          "name": "owner",
          "type": "address"
        }
      ],
      "name": "OwnableInvalidOwner",
      "type": "error"
    },
    {
      "inputs": [
        {
          "internalType": "address",
          "name": "account",
          "type": "address"
        }
      ],
      "name": "OwnableUnauthorizedAccount",
      "type": "error"
    },
    {
      "anonymous": false,
      "inputs": [
        {
          "indexed": true,
          "internalType": "address",
          "name": "previousOwner",
          "type": "address"
        },
        {
          "indexed": true,
          "internalType": "address",
          "name": "newOwner",
          "type": "address"
        }
      ],
      "name": "OwnershipTransferred",
      "type": "event"
    },
    {
      "anonymous": false,
      "inputs": [
        {
          "indexed": true,
          "internalType": "uint256",
          "name": "proposalId",
          "type": "uint256"
        },
        {
          "indexed": true,
          "internalType": "address",
          "name": "target",
          "type": "address"
        },
        {
          "indexed": false,
          "internalType": "string",
          "name": "description",
          "type": "string"
        }
      ],
      "name": "ProposalCreated",
      "type": "event"
    },
    {
      "anonymous": false,
      "inputs": [
        {
          "indexed": true,
          "internalType": "uint256",
          "name": "proposalId",
          "type": "uint256"
        }
      ],
      "name": "ProposalExecuted",
      "type": "event"
    },
    {
      "anonymous": false,
      "inputs": [
        {
          "indexed": true,
          "internalType": "uint256",
          "name": "proposalId",
          "type": "uint256"
        },
        {
          "indexed": true,
          "internalType": "address",
          "name": "voter",
          "type": "address"
        },
        {
          "indexed": false,
          "internalType": "bool",
          "name": "support",
          "type": "bool"
        },
        {
          "indexed": false,
          "internalType": "uint256",
          "name": "weight",
          "type": "uint256"
        }
      ],
      "name": "Voted",
      "type": "event"
    },
    {
      "inputs": [],
      "name": "MIN_PROPOSAL_TOKENS",
      "outputs": [
        {
          "internalType": "uint256",
          "name": "",
          "type": "uint256"
        }
      ],
      "stateMutability": "view",
      "type": "function"
    },
    {
      "inputs": [],
      "name": "VOTING_DURATION",
      "outputs": [
        {
          "internalType": "uint256",
          "name": "",
          "type": "uint256"
        }
      ],
      "stateMutability": "view",
      "type": "function"
    },
    {
      "inputs": [
        {
          "internalType": "address",
          "name": "target",
          "type": "address"
        },
        {
          "internalType": "uint256",
          "name": "value",
          "type": "uint256"
        },
        {
          "internalType": "bytes",
          "name": "data",
          "type": "bytes"
        },
        {
          "internalType": "string",
          "name": "description",
          "type": "string"
        }
      ],
      "name": "createProposal",
      "outputs": [],
      "stateMutability": "nonpayable",
      "type": "function"
    },
    {
      "inputs": [
        {
          "internalType": "uint256",
          "name": "proposalId",
          "type": "uint256"
        }
      ],
      "name": "executeProposal",
      "outputs": [],
      "stateMutability": "nonpayable",
      "type": "function"
    },
    {
      "inputs": [
        {
          "internalType": "uint256",
          "name": "proposalId",
          "type": "uint256"
        }
      ],
      "name": "getProposal",
      "outputs": [
        {
          "internalType": "address",
          "name": "target",
          "type": "address"
        },
        {
          "internalType": "uint256",
          "name": "value",
          "type": "uint256"
        },
        {
          "internalType": "bytes",
          "name": "data",
          "type": "bytes"
        },
        {
          "internalType": "uint256",
          "name": "yesVotes",
          "type": "uint256"
        },
        {
          "internalType": "uint256",
          "name": "noVotes",
          "type": "uint256"
        },
        {
          "internalType": "uint256",
          "name": "endTime",
          "type": "uint256"
        },
        {
          "internalType": "bool",
          "name": "executed",
          "type": "bool"
        }
      ],
      "stateMutability": "view",
      "type": "function"
    },
    {
      "inputs": [
        {
          "internalType": "uint256",
          "name": "",
          "type": "uint256"
        },
        {
          "internalType": "address",
          "name": "",
          "type": "address"
        }
      ],
      "name": "hasVoted",
      "outputs": [
        {
          "internalType": "bool",
          "name": "",
          "type": "bool"
        }
      ],
      "stateMutability": "view",
      "type": "function"
    },
    {
      "inputs": [],
      "name": "owner",
      "outputs": [
        {
          "internalType": "address",
          "name": "",
          "type": "address"
        }
      ],
      "stateMutability": "view",
      "type": "function"
    },
    {
      "inputs": [],
      "name": "proposalCount",
      "outputs": [
        {
          "internalType": "uint256",
          "name": "",
          "type": "uint256"
        }
      ],
      "stateMutability": "view",
      "type": "function"
    },
    {
      "inputs": [
        {
          "internalType": "uint256",
          "name": "",
          "type": "uint256"
        }
      ],
      "name": "proposals",
      "outputs": [
        {
          "internalType": "address",
          "name": "target",
          "type": "address"
        },
        {
          "internalType": "uint256",
          "name": "value",
          "type": "uint256"
        },
        {
          "internalType": "bytes",
          "name": "data",
          "type": "bytes"
        },
        {
          "internalType": "uint256",
          "name": "yesVotes",
          "type": "uint256"
        },
        {
          "internalType": "uint256",
          "name": "noVotes",
          "type": "uint256"
        },
        {
          "internalType": "uint256",
          "name": "endTime",
          "type": "uint256"
        },
        {
          "internalType": "bool",
          "name": "executed",
          "type": "bool"
        }
      ],
      "stateMutability": "view",
      "type": "function"
    },
    {
      "inputs": [],
      "name": "renounceOwnership",
      "outputs": [],
      "stateMutability": "nonpayable",
      "type": "function"
    },
    {
      "inputs": [],
      "name": "tfxToken",
      "outputs": [
        {
          "internalType": "contract IERC20",
          "name": "",
          "type": "address"
        }
      ],
      "stateMutability": "view",
      "type": "function"
    },
    {
      "inputs": [
        {
          "internalType": "address",
          "name": "newOwner",
          "type": "address"
        }
      ],
      "name": "transferOwnership",
      "outputs": [],
      "stateMutability": "nonpayable",
      "type": "function"
    },
    {
      "inputs": [
        {
          "internalType": "uint256",
          "name": "proposalId",
          "type": "uint256"
        },
        {
          "internalType": "bool",
          "name": "support",
          "type": "bool"
        }
      ],
      "name": "vote",
      "outputs": [],
      "stateMutability": "nonpayable",
      "type": "function"
    },
    {
      "stateMutability": "payable",
      "type": "receive"
    }
  ],
  "bytecode": "0x60a0346100dc57601f610f6938819003918201601f19168301916001600160401b038311848410176100e1578084926020946040528339810103126100dc57516001600160a01b038116908190036100dc5733156100c65760008054336001600160a01b0319821681178355604051939290916001600160a01b0316907f8be0079c531659141344cd1fd0a4f28419497f9722a3daafe3b4186f6b6457e09080a3608052610e7190816100f882396080518181816101f90152818161048001526109660152f35b631e4fbdf760e01b600052600060045260246000fd5b600080fd5b634e487b7160e01b600052604160045260246000fdfe6080604052600436101561001b575b361561001957600080fd5b005b60003560e01c8063013cf08b14610bc15780630d61b519146109955780633a4232971461095057806343859632146108f8578063715018a61461089f5780638da5cb5b14610876578063a438d20814610859578063c1f5617c14610406578063c7f758a81461039e578063c9d27afe1461017f578063d71525391461015b578063da35c6641461013d5763f2fde38b0361000e5734610138576020366003190112610138576100c8610da5565b6100d0610e12565b6001600160a01b0316801561012257600080546001600160a01b03198116831782556001600160a01b0316907f8be0079c531659141344cd1fd0a4f28419497f9722a3daafe3b4186f6b6457e09080a3005b631e4fbdf760e01b600052600060045260246000fd5b600080fd5b34610138576000366003190112610138576020600154604051908152f35b3461013857600036600319011261013857602060405168056bc75e2d631000008152f35b34610138576040366003190112610138576004356024359081151591828103610138578160005260026020526040600020600581015442101561036a57600083815260036020908152604080832033845290915290205460ff16610335576040516370a0823160e01b8152336004820152916020836024817f00000000000000000000000000000000000000000000000000000000000000006001600160a01b03165afa928315610329576000936102f2575b5082156102bb5760008481526003602090815260408083203384529091529020805460ff19166001179055156102a657600301610270828254610e05565b90555b60405192835260208301527f7c2de587c00d75474a0c6c6fa96fd3b45dc974cd4e8a75f712bb84c950dce1b560403393a3005b6004016102b4828254610e05565b9055610273565b60405162461bcd60e51b815260206004820152600f60248201526e2737903b37ba34b733903837bbb2b960891b6044820152606490fd5b90926020823d602011610321575b8161030d60209383610c61565b8101031261031e5750519185610232565b80fd5b3d9150610300565b6040513d6000823e3d90fd5b60405162461bcd60e51b815260206004820152600d60248201526c105b1c9958591e481d9bdd1959609a1b6044820152606490fd5b60405162461bcd60e51b815260206004820152600c60248201526b159bdd1a5b99c8195b99195960a21b6044820152606490fd5b34610138576020366003190112610138576004356000526002602052604060002060018060a01b03815416610402600183015492600381015460048201546005830154916103f6600260ff6006870154169501610c83565b60405197889788610d27565b0390f35b346101385760803660031901126101385761041f610da5565b60443567ffffffffffffffff81116101385761043f903690600401610dbb565b909160643567ffffffffffffffff811161013857610461903690600401610dbb565b6040516370a0823160e01b8152336004820152919290916020816024817f00000000000000000000000000000000000000000000000000000000000000006001600160a01b03165afa80156103295760009061081e575b68056bc75e2d631000009150106107cf576001600160a01b03169283156107995760015460001981146107835760010190816001556154604201804211610783576040519160e0830183811067ffffffffffffffff82111761076d576040528683526020830190602435825261052d81610de9565b9861053b6040519a8b610c61565b818a5236828201116101385781600092602092838d01378a01015260408301978852606083016000815260808401916000835260a0850193845260c085019560008752600052600260205260406000209460018060a01b039051166bffffffffffffffffffffffff60a01b86541617855551600185015560028401985198895167ffffffffffffffff811161076d576105d48254610c27565b601f8111610725575b506020601f821160011461069557908060069796959493927f7585f467599d0f008985f231af99293be388626ac16ca59505c2f8f88969cd639b9c9d60009261068a575b50508160011b916000199060031b1c19161790555b516003840155516004830155516005820155019051151560ff8019835416911617905560406001549382825193849260208452816020850152848401376000828201840152601f01601f19168101030190a3005b015190508d80610621565b601f1982169083600052806000209160005b81811061070d57509183917f7585f467599d0f008985f231af99293be388626ac16ca59505c2f8f88969cd639c9d9e60069a9998979695600195106106f4575b505050811b019055610636565b015160001960f88460031b161c191690558d80806106e7565b8e8301518455600190930192602092830192016106a7565b826000526020600020601f830160051c81019160208410610763575b601f0160051c01905b81811061075757506105dd565b6000815560010161074a565b9091508190610741565b634e487b7160e01b600052604160045260246000fd5b634e487b7160e01b600052601160045260246000fd5b60405162461bcd60e51b815260206004820152600e60248201526d125b9d985b1a59081d185c99d95d60921b6044820152606490fd5b60405162461bcd60e51b815260206004820152602160248201527f4e6f7420656e6f7567682054465820746f206372656174652070726f706f73616044820152601b60fa1b6064820152608490fd5b506020813d602011610851575b8161083860209383610c61565b810103126101385768056bc75e2d6310000090516104b8565b3d915061082b565b346101385760003660031901126101385760206040516154608152f35b34610138576000366003190112610138576000546040516001600160a01b039091168152602090f35b34610138576000366003190112610138576108b8610e12565b600080546001600160a01b0319811682556001600160a01b03167f8be0079c531659141344cd1fd0a4f28419497f9722a3daafe3b4186f6b6457e08280a3005b34610138576040366003190112610138576024356001600160a01b038116810361013857600435600052600360205260406000209060018060a01b0316600052602052602060ff604060002054166040519015158152f35b34610138576000366003190112610138576040517f00000000000000000000000000000000000000000000000000000000000000006001600160a01b03168152602090f35b3461013857602036600319011261013857600435806000526002602052604060002060058101544210610b865760068101805460ff8116610b4e57600383015460048401541015610b175760ff19166001908117909155815490820154604051600290930180546001600160a01b03939093169392600091610a1682610c27565b9160018116908115610b005750600114610acb575b5050916000939181859403925af13d15610ac6573d610a4981610de9565b90610a576040519283610c61565b8152600060203d92013e5b15610a8e577f712ae1383f79ac853f8d882153778e0260ef8f03b504e2866e0593e04d2b291f600080a2005b60405162461bcd60e51b815260206004820152601060248201526f115e1958dd5d1a5bdb8819985a5b195960821b6044820152606490fd5b610a62565b90915060005260206000206000905b828210610aec57505082018183610a2b565b600181602092548488015201910190610ada565b60ff19168652505080151502830190508183610a2b565b60405162461bcd60e51b815260206004820152600f60248201526e141c9bdc1bdcd85b0819985a5b1959608a1b6044820152606490fd5b60405162461bcd60e51b815260206004820152601060248201526f105b1c9958591e48195e1958dd5d195960821b6044820152606490fd5b60405162461bcd60e51b8152602060048201526013602482015272566f74696e67207374696c6c2061637469766560681b6044820152606490fd5b34610138576020366003190112610138576004356000526002602052604060002060018060a01b03815416610402600183015492610c0160028201610c83565b90600381015460048201549060ff60066005850154940154169360405197889788610d27565b90600182811c92168015610c57575b6020831014610c4157565b634e487b7160e01b600052602260045260246000fd5b91607f1691610c36565b90601f8019910116810190811067ffffffffffffffff82111761076d57604052565b9060405191826000825492610c9784610c27565b8084529360018116908115610d055750600114610cbe575b50610cbc92500383610c61565b565b90506000929192526020600020906000915b818310610ce9575050906020610cbc9282010138610caf565b6020919350806001915483858901015201910190918492610cd0565b905060209250610cbc94915060ff191682840152151560051b82010138610caf565b9491909795929796939660018060a01b03168552602085015260e0604085015286518060e086015260005b818110610d8e57508495969750806000610100809360c098010152601f8019910116860101966060860152608085015260a08401521515910152565b80602080928b010151610100828901015201610d52565b600435906001600160a01b038216820361013857565b9181601f840112156101385782359167ffffffffffffffff8311610138576020838186019501011161013857565b67ffffffffffffffff811161076d57601f01601f191660200190565b9190820180921161078357565b6000546001600160a01b03163303610e2657565b63118cdaa760e01b6000523360045260246000fdfea2646970667358221220a3ab3770efa4f972439519bef3db58ceac98ee6fadd5a5888b9950451bdbeebc64736f6c634300081c0033",
  "linkReferences": {},
  "deployedLinkReferences": {}
}