{
  "_format": "hh-sol-artifact-1",
  "contractName": "TrustForge",
  "sourceName": "contracts/trustforge.sol",
  "abi": [
    {
      "inputs": [
        {
          "internalType": "address",
          "name": "_lendingToken",
          "type": "address"
        }
      ],
      "stateMutability": "nonpayable",
      "type": "constructor"
    },
    {
      "inputs": [],
      "name": "EnforcedPause",
      "type": "error"
    },
    {
      "inputs": [],
      "name": "ExpectedPause",
      "type": "error"
    },
    {
      "inputs": [
        {
          "internalType": "address",
          "name": "owner",
          "type": "address"
        }
      ],
      "name": "OwnableInvalidOwner",
      "type": "error"
    },
    {
      "inputs": [
        {
          "internalType": "address",
          "name": "account",
          "type": "address"
        }
      ],
      "name": "OwnableUnauthorizedAccount",
      "type": "error"
    },
    {
      "inputs": [],
      "name": "ReentrancyGuardReentrantCall",
      "type": "error"
    },
    {
      "anonymous": false,
      "inputs": [
        {
          "indexed": true,
          "internalType": "address",
          "name": "token",
          "type": "address"
        },
        {
          "indexed": false,
          "internalType": "uint256",
          "name": "amount",
          "type": "uint256"
        }
      ],
      "name": "EmergencyWithdraw",
      "type": "event"
    },
    {
      "anonymous": false,
      "inputs": [
        {
          "indexed": true,
          "internalType": "address",
          "name": "lender",
          "type": "address"
        },
        {
          "indexed": false,
          "internalType": "uint256",
          "name": "amount",
          "type": "uint256"
        }
      ],
      "name": "InterestClaimed",
      "type": "event"
    },
    {
      "anonymous": false,
      "inputs": [
        {
          "indexed": false,
          "internalType": "uint256",
          "name": "totalAmount",
          "type": "uint256"
        },
        {
          "indexed": false,
          "internalType": "enum TrustForge.RiskPool",
          "name": "pool",
          "type": "uint8"
        }
      ],
      "name": "InterestDistributed",
      "type": "event"
    },
    {
      "anonymous": false,
      "inputs": [
        {
          "indexed": true,
          "internalType": "address",
          "name": "lender",
          "type": "address"
        },
        {
          "indexed": false,
          "internalType": "uint256",
          "name": "amount",
          "type": "uint256"
        },
        {
          "indexed": false,
          "internalType": "enum TrustForge.RiskPool",
          "name": "pool",
          "type": "uint8"
        }
      ],
      "name": "LenderDeposited",
      "type": "event"
    },
    {
      "anonymous": false,
      "inputs": [
        {
          "indexed": true,
          "internalType": "address",
          "name": "lender",
          "type": "address"
        },
        {
          "indexed": false,
          "internalType": "uint256",
          "name": "amount",
          "type": "uint256"
        },
        {
          "indexed": false,
          "internalType": "enum TrustForge.RiskPool",
          "name": "pool",
          "type": "uint8"
        }
      ],
      "name": "LenderWithdrew",
      "type": "event"
    },
    {
      "anonymous": false,
      "inputs": [
        {
          "indexed": true,
          "internalType": "address",
          "name": "borrower",
          "type": "address"
        },
        {
          "indexed": false,
          "internalType": "uint256",
          "name": "lostAmount",
          "type": "uint256"
        },
        {
          "indexed": false,
          "internalType": "enum TrustForge.RiskPool",
          "name": "pool",
          "type": "uint8"
        }
      ],
      "name": "LoanDefaulted",
      "type": "event"
    },
    {
      "anonymous": false,
      "inputs": [
        {
          "indexed": true,
          "internalType": "address",
          "name": "borrower",
          "type": "address"
        },
        {
          "indexed": false,
          "internalType": "uint256",
          "name": "principal",
          "type": "uint256"
        },
        {
          "indexed": false,
          "internalType": "uint256",
          "name": "interest",
          "type": "uint256"
        },
        {
          "indexed": false,
          "internalType": "uint256",
          "name": "dueDate",
          "type": "uint256"
        },
        {
          "indexed": false,
          "internalType": "uint256",
          "name": "duration",
          "type": "uint256"
        },
        {
          "indexed": false,
          "internalType": "enum TrustForge.RiskPool",
          "name": "pool",
          "type": "uint8"
        }
      ],
      "name": "LoanIssued",
      "type": "event"
    },
    {
      "anonymous": false,
      "inputs": [
        {
          "indexed": true,
          "internalType": "address",
          "name": "borrower",
          "type": "address"
        },
        {
          "indexed": false,
          "internalType": "uint256",
          "name": "principal",
          "type": "uint256"
        },
        {
          "indexed": false,
          "internalType": "uint256",
          "name": "interest",
          "type": "uint256"
        },
        {
          "indexed": false,
          "internalType": "uint256",
          "name": "totalRepayment",
          "type": "uint256"
        }
      ],
      "name": "LoanRepaid",
      "type": "event"
    },
    {
      "anonymous": false,
      "inputs": [
        {
          "indexed": true,
          "internalType": "address",
          "name": "borrower",
          "type": "address"
        },
        {
          "indexed": false,
          "internalType": "string",
          "name": "username",
          "type": "string"
        },
        {
          "indexed": false,
          "internalType": "uint256",
          "name": "amount",
          "type": "uint256"
        },
        {
          "indexed": false,
          "internalType": "uint256",
          "name": "duration",
          "type": "uint256"
        },
        {
          "indexed": false,
          "internalType": "enum TrustForge.RiskPool",
          "name": "pool",
          "type": "uint8"
        }
      ],
      "name": "LoanRequested",
      "type": "event"
    },
    {
      "anonymous": false,
      "inputs": [
        {
          "indexed": true,
          "internalType": "address",
          "name": "previousOwner",
          "type": "address"
        },
        {
          "indexed": true,
          "internalType": "address",
          "name": "newOwner",
          "type": "address"
        }
      ],
      "name": "OwnershipTransferred",
      "type": "event"
    },
    {
      "anonymous": false,
      "inputs": [
        {
          "indexed": false,
          "internalType": "string",
          "name": "parameter",
          "type": "string"
        },
        {
          "indexed": false,
          "internalType": "uint256",
          "name": "oldValue",
          "type": "uint256"
        },
        {
          "indexed": false,
          "internalType": "uint256",
          "name": "newValue",
          "type": "uint256"
        }
      ],
      "name": "ParameterUpdated",
      "type": "event"
    },
    {
      "anonymous": false,
      "inputs": [
        {
          "indexed": false,
          "internalType": "address",
          "name": "account",
          "type": "address"
        }
      ],
      "name": "Paused",
      "type": "event"
    },
    {
      "anonymous": false,
      "inputs": [
        {
          "indexed": true,
          "internalType": "address",
          "name": "user",
          "type": "address"
        },
        {
          "indexed": false,
          "internalType": "uint256",
          "name": "oldScore",
          "type": "uint256"
        },
        {
          "indexed": false,
          "internalType": "uint256",
          "name": "newScore",
          "type": "uint256"
        }
      ],
      "name": "ReputationDecayed",
      "type": "event"
    },
    {
      "anonymous": false,
      "inputs": [
        {
          "indexed": true,
          "internalType": "address",
          "name": "user",
          "type": "address"
        },
        {
          "indexed": false,
          "internalType": "uint256",
          "name": "oldScore",
          "type": "uint256"
        },
        {
          "indexed": false,
          "internalType": "uint256",
          "name": "newScore",
          "type": "uint256"
        },
        {
          "indexed": false,
          "internalType": "string",
          "name": "reason",
          "type": "string"
        }
      ],
      "name": "TrustUpdated",
      "type": "event"
    },
    {
      "anonymous": false,
      "inputs": [
        {
          "indexed": false,
          "internalType": "address",
          "name": "account",
          "type": "address"
        }
      ],
      "name": "Unpaused",
      "type": "event"
    },
    {
      "anonymous": false,
      "inputs": [
        {
          "indexed": true,
          "internalType": "address",
          "name": "user",
          "type": "address"
        },
        {
          "indexed": false,
          "internalType": "string",
          "name": "username",
          "type": "string"
        }
      ],
      "name": "UsernameRegistered",
      "type": "event"
    },
    {
      "anonymous": false,
      "inputs": [
        {
          "indexed": true,
          "internalType": "address",
          "name": "voucher",
          "type": "address"
        },
        {
          "indexed": true,
          "internalType": "address",
          "name": "vouchee",
          "type": "address"
        },
        {
          "indexed": false,
          "internalType": "string",
          "name": "voucherName",
          "type": "string"
        },
        {
          "indexed": false,
          "internalType": "string",
          "name": "voucheeName",
          "type": "string"
        }
      ],
      "name": "VouchCreated",
      "type": "event"
    },
    {
      "anonymous": false,
      "inputs": [
        {
          "indexed": true,
          "internalType": "address",
          "name": "voucher",
          "type": "address"
        },
        {
          "indexed": true,
          "internalType": "address",
          "name": "defaulter",
          "type": "address"
        },
        {
          "indexed": false,
          "internalType": "uint256",
          "name": "trustLost",
          "type": "uint256"
        }
      ],
      "name": "VoucherPenalized",
      "type": "event"
    },
    {
      "anonymous": false,
      "inputs": [
        {
          "indexed": true,
          "internalType": "address",
          "name": "user",
          "type": "address"
        },
        {
          "indexed": false,
          "internalType": "uint256",
          "name": "maturityLevel",
          "type": "uint256"
        },
        {
          "indexed": false,
          "internalType": "uint256",
          "name": "walletAge",
          "type": "uint256"
        }
      ],
      "name": "WalletMaturityEvaluated",
      "type": "event"
    },
    {
      "inputs": [],
      "name": "BASE_INTEREST_RATE_HIGH",
      "outputs": [
        {
          "internalType": "uint256",
          "name": "",
          "type": "uint256"
        }
      ],
      "stateMutability": "view",
      "type": "function"
    },
    {
      "inputs": [],
      "name": "BASE_INTEREST_RATE_LOW",
      "outputs": [
        {
          "internalType": "uint256",
          "name": "",
          "type": "uint256"
        }
      ],
      "stateMutability": "view",
      "type": "function"
    },
    {
      "inputs": [],
      "name": "BASE_INTEREST_RATE_MED",
      "outputs": [
        {
          "internalType": "uint256",
          "name": "",
          "type": "uint256"
        }
      ],
      "stateMutability": "view",
      "type": "function"
    },
    {
      "inputs": [],
      "name": "DEFAULT_COOLDOWN_PERIOD",
      "outputs": [
        {
          "internalType": "uint256",
          "name": "",
          "type": "uint256"
        }
      ],
      "stateMutability": "view",
      "type": "function"
    },
    {
      "inputs": [],
      "name": "GRACE_PERIOD",
      "outputs": [
        {
          "internalType": "uint256",
          "name": "",
          "type": "uint256"
        }
      ],
      "stateMutability": "view",
      "type": "function"
    },
    {
      "inputs": [],
      "name": "HIGH_TRUST_LIMIT",
      "outputs": [
        {
          "internalType": "uint256",
          "name": "",
          "type": "uint256"
        }
      ],
      "stateMutability": "view",
      "type": "function"
    },
    {
      "inputs": [],
      "name": "INITIAL_TRUST_SCORE",
      "outputs": [
        {
          "internalType": "uint256",
          "name": "",
          "type": "uint256"
        }
      ],
      "stateMutability": "view",
      "type": "function"
    },
    {
      "inputs": [],
      "name": "LOW_RISK_THRESHOLD",
      "outputs": [
        {
          "internalType": "uint256",
          "name": "",
          "type": "uint256"
        }
      ],
      "stateMutability": "view",
      "type": "function"
    },
    {
      "inputs": [],
      "name": "LOW_TRUST_LIMIT",
      "outputs": [
        {
          "internalType": "uint256",
          "name": "",
          "type": "uint256"
        }
      ],
      "stateMutability": "view",
      "type": "function"
    },
    {
      "inputs": [],
      "name": "MATURITY_LEVEL_1",
      "outputs": [
        {
          "internalType": "uint256",
          "name": "",
          "type": "uint256"
        }
      ],
      "stateMutability": "view",
      "type": "function"
    },
    {
      "inputs": [],
      "name": "MATURITY_LEVEL_2",
      "outputs": [
        {
          "internalType": "uint256",
          "name": "",
          "type": "uint256"
        }
      ],
      "stateMutability": "view",
      "type": "function"
    },
    {
      "inputs": [],
      "name": "MATURITY_LEVEL_3",
      "outputs": [
        {
          "internalType": "uint256",
          "name": "",
          "type": "uint256"
        }
      ],
      "stateMutability": "view",
      "type": "function"
    },
    {
      "inputs": [],
      "name": "MAX_INTEREST_RATE_HIGH",
      "outputs": [
        {
          "internalType": "uint256",
          "name": "",
          "type": "uint256"
        }
      ],
      "stateMutability": "view",
      "type": "function"
    },
    {
      "inputs": [],
      "name": "MAX_INTEREST_RATE_LOW",
      "outputs": [
        {
          "internalType": "uint256",
          "name": "",
          "type": "uint256"
        }
      ],
      "stateMutability": "view",
      "type": "function"
    },
    {
      "inputs": [],
      "name": "MAX_INTEREST_RATE_MED",
      "outputs": [
        {
          "internalType": "uint256",
          "name": "",
          "type": "uint256"
        }
      ],
      "stateMutability": "view",
      "type": "function"
    },
    {
      "inputs": [],
      "name": "MAX_LOAN_DURATION",
      "outputs": [
        {
          "internalType": "uint256",
          "name": "",
          "type": "uint256"
        }
      ],
      "stateMutability": "view",
      "type": "function"
    },
    {
      "inputs": [],
      "name": "MAX_TRUST_SCORE",
      "outputs": [
        {
          "internalType": "uint256",
          "name": "",
          "type": "uint256"
        }
      ],
      "stateMutability": "view",
      "type": "function"
    },
    {
      "inputs": [],
      "name": "MAX_VOUCHES_PER_USER",
      "outputs": [
        {
          "internalType": "uint256",
          "name": "",
          "type": "uint256"
        }
      ],
      "stateMutability": "view",
      "type": "function"
    },
    {
      "inputs": [],
      "name": "MEDIUM_RISK_THRESHOLD",
      "outputs": [
        {
          "internalType": "uint256",
          "name": "",
          "type": "uint256"
        }
      ],
      "stateMutability": "view",
      "type": "function"
    },
    {
      "inputs": [],
      "name": "MED_TRUST_LIMIT",
      "outputs": [
        {
          "internalType": "uint256",
          "name": "",
          "type": "uint256"
        }
      ],
      "stateMutability": "view",
      "type": "function"
    },
    {
      "inputs": [],
      "name": "MIN_LOAN_AMOUNT",
      "outputs": [
        {
          "internalType": "uint256",
          "name": "",
          "type": "uint256"
        }
      ],
      "stateMutability": "view",
      "type": "function"
    },
    {
      "inputs": [],
      "name": "MIN_LOAN_DURATION",
      "outputs": [
        {
          "internalType": "uint256",
          "name": "",
          "type": "uint256"
        }
      ],
      "stateMutability": "view",
      "type": "function"
    },
    {
      "inputs": [],
      "name": "POOL_SAFETY_BUFFER",
      "outputs": [
        {
          "internalType": "uint256",
          "name": "",
          "type": "uint256"
        }
      ],
      "stateMutability": "view",
      "type": "function"
    },
    {
      "inputs": [],
      "name": "REPUTATION_DECAY_AMOUNT",
      "outputs": [
        {
          "internalType": "uint256",
          "name": "",
          "type": "uint256"
        }
      ],
      "stateMutability": "view",
      "type": "function"
    },
    {
      "inputs": [],
      "name": "REPUTATION_DECAY_PERIOD",
      "outputs": [
        {
          "internalType": "uint256",
          "name": "",
          "type": "uint256"
        }
      ],
      "stateMutability": "view",
      "type": "function"
    },
    {
      "inputs": [],
      "name": "TRUST_DECREASE_ON_DEFAULT",
      "outputs": [
        {
          "internalType": "uint256",
          "name": "",
          "type": "uint256"
        }
      ],
      "stateMutability": "view",
      "type": "function"
    },
    {
      "inputs": [],
      "name": "TRUST_INCREASE_PER_REPAYMENT",
      "outputs": [
        {
          "internalType": "uint256",
          "name": "",
          "type": "uint256"
        }
      ],
      "stateMutability": "view",
      "type": "function"
    },
    {
      "inputs": [],
      "name": "VOUCH_PENALTY_ON_DEFAULT",
      "outputs": [
        {
          "internalType": "uint256",
          "name": "",
          "type": "uint256"
        }
      ],
      "stateMutability": "view",
      "type": "function"
    },
    {
      "inputs": [
        {
          "internalType": "address",
          "name": "",
          "type": "address"
        }
      ],
      "name": "activeLoans",
      "outputs": [
        {
          "internalType": "address",
          "name": "borrower",
          "type": "address"
        },
        {
          "internalType": "uint256",
          "name": "principal",
          "type": "uint256"
        },
        {
          "internalType": "uint256",
          "name": "interestAmount",
          "type": "uint256"
        },
        {
          "internalType": "uint256",
          "name": "totalRepayment",
          "type": "uint256"
        },
        {
          "internalType": "uint256",
          "name": "startTime",
          "type": "uint256"
        },
        {
          "internalType": "uint256",
          "name": "dueDate",
          "type": "uint256"
        },
        {
          "internalType": "uint256",
          "name": "duration",
          "type": "uint256"
        },
        {
          "internalType": "enum TrustForge.LoanStatus",
          "name": "status",
          "type": "uint8"
        },
        {
          "internalType": "enum TrustForge.RiskPool",
          "name": "riskPool",
          "type": "uint8"
        }
      ],
      "stateMutability": "view",
      "type": "function"
    },
    {
      "inputs": [],
      "name": "autoLimitEnabled",
      "outputs": [
        {
          "internalType": "bool",
          "name": "",
          "type": "bool"
        }
      ],
      "stateMutability": "view",
      "type": "function"
    },
    {
      "inputs": [],
      "name": "claimInterest",
      "outputs": [],
      "stateMutability": "nonpayable",
      "type": "function"
    },
    {
      "inputs": [
        {
          "internalType": "uint256",
          "name": "amount",
          "type": "uint256"
        },
        {
          "internalType": "enum TrustForge.RiskPool",
          "name": "pool",
          "type": "uint8"
        }
      ],
      "name": "depositToPool",
      "outputs": [],
      "stateMutability": "nonpayable",
      "type": "function"
    },
    {
      "inputs": [
        {
          "internalType": "address",
          "name": "token",
          "type": "address"
        },
        {
          "internalType": "uint256",
          "name": "amount",
          "type": "uint256"
        }
      ],
      "name": "emergencyWithdraw",
      "outputs": [],
      "stateMutability": "nonpayable",
      "type": "function"
    },
    {
      "inputs": [
        {
          "internalType": "address",
          "name": "borrower",
          "type": "address"
        }
      ],
      "name": "getActiveLoan",
      "outputs": [
        {
          "internalType": "uint256",
          "name": "principal",
          "type": "uint256"
        },
        {
          "internalType": "uint256",
          "name": "interestAmount",
          "type": "uint256"
        },
        {
          "internalType": "uint256",
          "name": "totalRepayment",
          "type": "uint256"
        },
        {
          "internalType": "uint256",
          "name": "dueDate",
          "type": "uint256"
        },
        {
          "internalType": "uint256",
          "name": "duration",
          "type": "uint256"
        },
        {
          "internalType": "enum TrustForge.LoanStatus",
          "name": "status",
          "type": "uint8"
        },
        {
          "internalType": "enum TrustForge.RiskPool",
          "name": "pool",
          "type": "uint8"
        },
        {
          "internalType": "bool",
          "name": "isOverdue",
          "type": "bool"
        }
      ],
      "stateMutability": "view",
      "type": "function"
    },
    {
      "inputs": [
        {
          "internalType": "string",
          "name": "username",
          "type": "string"
        }
      ],
      "name": "getAddressByUsername",
      "outputs": [
        {
          "internalType": "address",
          "name": "",
          "type": "address"
        }
      ],
      "stateMutability": "view",
      "type": "function"
    },
    {
      "inputs": [],
      "name": "getAllPoolStats",
      "outputs": [
        {
          "components": [
            {
              "internalType": "uint256",
              "name": "totalLiquidity",
              "type": "uint256"
            },
            {
              "internalType": "uint256",
              "name": "totalActiveLoans",
              "type": "uint256"
            },
            {
              "internalType": "uint256",
              "name": "totalDefaulted",
              "type": "uint256"
            },
            {
              "internalType": "uint256",
              "name": "totalInterestPool",
              "type": "uint256"
            },
            {
              "internalType": "uint256",
              "name": "totalLenderDeposits",
              "type": "uint256"
            }
          ],
          "internalType": "struct TrustForge.PoolStats",
          "name": "lowRisk",
          "type": "tuple"
        },
        {
          "components": [
            {
              "internalType": "uint256",
              "name": "totalLiquidity",
              "type": "uint256"
            },
            {
              "internalType": "uint256",
              "name": "totalActiveLoans",
              "type": "uint256"
            },
            {
              "internalType": "uint256",
              "name": "totalDefaulted",
              "type": "uint256"
            },
            {
              "internalType": "uint256",
              "name": "totalInterestPool",
              "type": "uint256"
            },
            {
              "internalType": "uint256",
              "name": "totalLenderDeposits",
              "type": "uint256"
            }
          ],
          "internalType": "struct TrustForge.PoolStats",
          "name": "medRisk",
          "type": "tuple"
        },
        {
          "components": [
            {
              "internalType": "uint256",
              "name": "totalLiquidity",
              "type": "uint256"
            },
            {
              "internalType": "uint256",
              "name": "totalActiveLoans",
              "type": "uint256"
            },
            {
              "internalType": "uint256",
              "name": "totalDefaulted",
              "type": "uint256"
            },
            {
              "internalType": "uint256",
              "name": "totalInterestPool",
              "type": "uint256"
            },
            {
              "internalType": "uint256",
              "name": "totalLenderDeposits",
              "type": "uint256"
            }
          ],
          "internalType": "struct TrustForge.PoolStats",
          "name": "highRisk",
          "type": "tuple"
        }
      ],
      "stateMutability": "view",
      "type": "function"
    },
    {
      "inputs": [
        {
          "internalType": "address",
          "name": "lender",
          "type": "address"
        }
      ],
      "name": "getLenderInfo",
      "outputs": [
        {
          "internalType": "uint256",
          "name": "depositedLowRisk",
          "type": "uint256"
        },
        {
          "internalType": "uint256",
          "name": "depositedMedRisk",
          "type": "uint256"
        },
        {
          "internalType": "uint256",
          "name": "depositedHighRisk",
          "type": "uint256"
        },
        {
          "internalType": "uint256",
          "name": "totalInterestEarned",
          "type": "uint256"
        },
        {
          "internalType": "uint256",
          "name": "pendingInterestLow",
          "type": "uint256"
        },
        {
          "internalType": "uint256",
          "name": "pendingInterestMed",
          "type": "uint256"
        },
        {
          "internalType": "uint256",
          "name": "pendingInterestHigh",
          "type": "uint256"
        }
      ],
      "stateMutability": "view",
      "type": "function"
    },
    {
      "inputs": [
        {
          "internalType": "address",
          "name": "user",
          "type": "address"
        }
      ],
      "name": "getLoanHistory",
      "outputs": [
        {
          "components": [
            {
              "internalType": "address",
              "name": "borrower",
              "type": "address"
            },
            {
              "internalType": "uint256",
              "name": "principal",
              "type": "uint256"
            },
            {
              "internalType": "uint256",
              "name": "interestAmount",
              "type": "uint256"
            },
            {
              "internalType": "uint256",
              "name": "totalRepayment",
              "type": "uint256"
            },
            {
              "internalType": "uint256",
              "name": "startTime",
              "type": "uint256"
            },
            {
              "internalType": "uint256",
              "name": "dueDate",
              "type": "uint256"
            },
            {
              "internalType": "uint256",
              "name": "duration",
              "type": "uint256"
            },
            {
              "internalType": "enum TrustForge.LoanStatus",
              "name": "status",
              "type": "uint8"
            },
            {
              "internalType": "enum TrustForge.RiskPool",
              "name": "riskPool",
              "type": "uint8"
            }
          ],
          "internalType": "struct TrustForge.Loan[]",
          "name": "",
          "type": "tuple[]"
        }
      ],
      "stateMutability": "view",
      "type": "function"
    },
    {
      "inputs": [
        {
          "internalType": "enum TrustForge.RiskPool",
          "name": "pool",
          "type": "uint8"
        }
      ],
      "name": "getPoolStatsForRisk",
      "outputs": [
        {
          "internalType": "uint256",
          "name": "totalLiquidity",
          "type": "uint256"
        },
        {
          "internalType": "uint256",
          "name": "totalActiveLoanAmount",
          "type": "uint256"
        },
        {
          "internalType": "uint256",
          "name": "availableLiquidity",
          "type": "uint256"
        },
        {
          "internalType": "uint256",
          "name": "utilizationRate",
          "type": "uint256"
        },
        {
          "internalType": "uint256",
          "name": "interestPool",
          "type": "uint256"
        },
        {
          "internalType": "uint256",
          "name": "totalDefaulted",
          "type": "uint256"
        }
      ],
      "stateMutability": "view",
      "type": "function"
    },
    {
      "inputs": [
        {
          "internalType": "address",
          "name": "user",
          "type": "address"
        }
      ],
      "name": "getUserProfile",
      "outputs": [
        {
          "internalType": "string",
          "name": "username",
          "type": "string"
        },
        {
          "internalType": "uint256",
          "name": "trustScore",
          "type": "uint256"
        },
        {
          "internalType": "uint256",
          "name": "totalLoansTaken",
          "type": "uint256"
        },
        {
          "internalType": "uint256",
          "name": "successfulRepayments",
          "type": "uint256"
        },
        {
          "internalType": "uint256",
          "name": "defaults",
          "type": "uint256"
        },
        {
          "internalType": "bool",
          "name": "hasActiveLoan",
          "type": "bool"
        },
        {
          "internalType": "uint256",
          "name": "walletAge",
          "type": "uint256"
        },
        {
          "internalType": "uint256",
          "name": "maturityLevel",
          "type": "uint256"
        },
        {
          "internalType": "uint256",
          "name": "maxBorrowingLimit",
          "type": "uint256"
        },
        {
          "internalType": "enum TrustForge.RiskPool",
          "name": "assignedPool",
          "type": "uint8"
        }
      ],
      "stateMutability": "view",
      "type": "function"
    },
    {
      "inputs": [
        {
          "internalType": "address",
          "name": "user",
          "type": "address"
        }
      ],
      "name": "getUserVouches",
      "outputs": [
        {
          "internalType": "address[]",
          "name": "",
          "type": "address[]"
        }
      ],
      "stateMutability": "view",
      "type": "function"
    },
    {
      "inputs": [
        {
          "internalType": "address",
          "name": "user",
          "type": "address"
        }
      ],
      "name": "getVouchesGiven",
      "outputs": [
        {
          "internalType": "address[]",
          "name": "",
          "type": "address[]"
        }
      ],
      "stateMutability": "view",
      "type": "function"
    },
    {
      "inputs": [
        {
          "internalType": "address",
          "name": "wallet",
          "type": "address"
        }
      ],
      "name": "getWalletMaturity",
      "outputs": [
        {
          "components": [
            {
              "internalType": "uint256",
              "name": "age",
              "type": "uint256"
            },
            {
              "internalType": "uint256",
              "name": "maturityLevel",
              "type": "uint256"
            },
            {
              "internalType": "uint256",
              "name": "maturityMultiplier",
              "type": "uint256"
            }
          ],
          "internalType": "struct TrustForge.WalletMaturity",
          "name": "",
          "type": "tuple"
        }
      ],
      "stateMutability": "view",
      "type": "function"
    },
    {
      "inputs": [
        {
          "internalType": "address",
          "name": "",
          "type": "address"
        }
      ],
      "name": "hasUsername",
      "outputs": [
        {
          "internalType": "bool",
          "name": "",
          "type": "bool"
        }
      ],
      "stateMutability": "view",
      "type": "function"
    },
    {
      "inputs": [
        {
          "internalType": "address",
          "name": "",
          "type": "address"
        }
      ],
      "name": "lenders",
      "outputs": [
        {
          "internalType": "uint256",
          "name": "depositedLowRisk",
          "type": "uint256"
        },
        {
          "internalType": "uint256",
          "name": "depositedMedRisk",
          "type": "uint256"
        },
        {
          "internalType": "uint256",
          "name": "depositedHighRisk",
          "type": "uint256"
        },
        {
          "internalType": "uint256",
          "name": "totalInterestEarned",
          "type": "uint256"
        },
        {
          "internalType": "uint256",
          "name": "lastClaimTime",
          "type": "uint256"
        }
      ],
      "stateMutability": "view",
      "type": "function"
    },
    {
      "inputs": [],
      "name": "lendingToken",
      "outputs": [
        {
          "internalType": "contract IERC20",
          "name": "",
          "type": "address"
        }
      ],
      "stateMutability": "view",
      "type": "function"
    },
    {
      "inputs": [
        {
          "internalType": "address",
          "name": "",
          "type": "address"
        },
        {
          "internalType": "uint256",
          "name": "",
          "type": "uint256"
        }
      ],
      "name": "loanHistory",
      "outputs": [
        {
          "internalType": "address",
          "name": "borrower",
          "type": "address"
        },
        {
          "internalType": "uint256",
          "name": "principal",
          "type": "uint256"
        },
        {
          "internalType": "uint256",
          "name": "interestAmount",
          "type": "uint256"
        },
        {
          "internalType": "uint256",
          "name": "totalRepayment",
          "type": "uint256"
        },
        {
          "internalType": "uint256",
          "name": "startTime",
          "type": "uint256"
        },
        {
          "internalType": "uint256",
          "name": "dueDate",
          "type": "uint256"
        },
        {
          "internalType": "uint256",
          "name": "duration",
          "type": "uint256"
        },
        {
          "internalType": "enum TrustForge.LoanStatus",
          "name": "status",
          "type": "uint8"
        },
        {
          "internalType": "enum TrustForge.RiskPool",
          "name": "riskPool",
          "type": "uint8"
        }
      ],
      "stateMutability": "view",
      "type": "function"
    },
    {
      "inputs": [],
      "name": "manualHighLimit",
      "outputs": [
        {
          "internalType": "uint256",
          "name": "",
          "type": "uint256"
        }
      ],
      "stateMutability": "view",
      "type": "function"
    },
    {
      "inputs": [],
      "name": "manualLowLimit",
      "outputs": [
        {
          "internalType": "uint256",
          "name": "",
          "type": "uint256"
        }
      ],
      "stateMutability": "view",
      "type": "function"
    },
    {
      "inputs": [],
      "name": "manualMedLimit",
      "outputs": [
        {
          "internalType": "uint256",
          "name": "",
          "type": "uint256"
        }
      ],
      "stateMutability": "view",
      "type": "function"
    },
    {
      "inputs": [
        {
          "internalType": "address",
          "name": "borrower",
          "type": "address"
        }
      ],
      "name": "markDefault",
      "outputs": [],
      "stateMutability": "nonpayable",
      "type": "function"
    },
    {
      "inputs": [],
      "name": "owner",
      "outputs": [
        {
          "internalType": "address",
          "name": "",
          "type": "address"
        }
      ],
      "stateMutability": "view",
      "type": "function"
    },
    {
      "inputs": [],
      "name": "pause",
      "outputs": [],
      "stateMutability": "nonpayable",
      "type": "function"
    },
    {
      "inputs": [],
      "name": "paused",
      "outputs": [
        {
          "internalType": "bool",
          "name": "",
          "type": "bool"
        }
      ],
      "stateMutability": "view",
      "type": "function"
    },
    {
      "inputs": [
        {
          "internalType": "enum TrustForge.RiskPool",
          "name": "",
          "type": "uint8"
        }
      ],
      "name": "poolStats",
      "outputs": [
        {
          "internalType": "uint256",
          "name": "totalLiquidity",
          "type": "uint256"
        },
        {
          "internalType": "uint256",
          "name": "totalActiveLoans",
          "type": "uint256"
        },
        {
          "internalType": "uint256",
          "name": "totalDefaulted",
          "type": "uint256"
        },
        {
          "internalType": "uint256",
          "name": "totalInterestPool",
          "type": "uint256"
        },
        {
          "internalType": "uint256",
          "name": "totalLenderDeposits",
          "type": "uint256"
        }
      ],
      "stateMutability": "view",
      "type": "function"
    },
    {
      "inputs": [
        {
          "internalType": "string",
          "name": "username",
          "type": "string"
        }
      ],
      "name": "registerUsername",
      "outputs": [],
      "stateMutability": "nonpayable",
      "type": "function"
    },
    {
      "inputs": [],
      "name": "renounceOwnership",
      "outputs": [],
      "stateMutability": "nonpayable",
      "type": "function"
    },
    {
      "inputs": [],
      "name": "repayLoan",
      "outputs": [],
      "stateMutability": "nonpayable",
      "type": "function"
    },
    {
      "inputs": [
        {
          "internalType": "uint256",
          "name": "amount",
          "type": "uint256"
        },
        {
          "internalType": "uint256",
          "name": "duration",
          "type": "uint256"
        }
      ],
      "name": "requestLoan",
      "outputs": [],
      "stateMutability": "nonpayable",
      "type": "function"
    },
    {
      "inputs": [
        {
          "internalType": "address",
          "name": "newOwner",
          "type": "address"
        }
      ],
      "name": "transferOwnership",
      "outputs": [],
      "stateMutability": "nonpayable",
      "type": "function"
    },
    {
      "inputs": [],
      "name": "unpause",
      "outputs": [],
      "stateMutability": "nonpayable",
      "type": "function"
    },
    {
      "inputs": [
        {
          "internalType": "uint256",
          "name": "_lowTrust",
          "type": "uint256"
        },
        {
          "internalType": "uint256",
          "name": "_medTrust",
          "type": "uint256"
        },
        {
          "internalType": "uint256",
          "name": "_highTrust",
          "type": "uint256"
        }
      ],
      "name": "updateBorrowingLimits",
      "outputs": [],
      "stateMutability": "nonpayable",
      "type": "function"
    },
    {
      "inputs": [
        {
          "internalType": "enum TrustForge.RiskPool",
          "name": "pool",
          "type": "uint8"
        },
        {
          "internalType": "uint256",
          "name": "_baseRate",
          "type": "uint256"
        },
        {
          "internalType": "uint256",
          "name": "_maxRate",
          "type": "uint256"
        }
      ],
      "name": "updatePoolInterestRates",
      "outputs": [],
      "stateMutability": "nonpayable",
      "type": "function"
    },
    {
      "inputs": [
        {
          "internalType": "uint256",
          "name": "_increasePerRepayment",
          "type": "uint256"
        },
        {
          "internalType": "uint256",
          "name": "_decreaseOnDefault",
          "type": "uint256"
        },
        {
          "internalType": "uint256",
          "name": "_vouchPenalty",
          "type": "uint256"
        }
      ],
      "name": "updateTrustParameters",
      "outputs": [],
      "stateMutability": "nonpayable",
      "type": "function"
    },
    {
      "inputs": [
        {
          "internalType": "address",
          "name": "",
          "type": "address"
        }
      ],
      "name": "userProfiles",
      "outputs": [
        {
          "internalType": "string",
          "name": "username",
          "type": "string"
        },
        {
          "internalType": "uint256",
          "name": "trustScore",
          "type": "uint256"
        },
        {
          "internalType": "uint256",
          "name": "totalLoansTaken",
          "type": "uint256"
        },
        {
          "internalType": "uint256",
          "name": "successfulRepayments",
          "type": "uint256"
        },
        {
          "internalType": "uint256",
          "name": "defaults",
          "type": "uint256"
        },
        {
          "internalType": "bool",
          "name": "hasActiveLoan",
          "type": "bool"
        },
        {
          "internalType": "uint256",
          "name": "lastDefaultTime",
          "type": "uint256"
        },
        {
          "internalType": "uint256",
          "name": "walletFirstSeen",
          "type": "uint256"
        },
        {
          "internalType": "uint256",
          "name": "totalTransactions",
          "type": "uint256"
        },
        {
          "internalType": "uint256",
          "name": "vouchCount",
          "type": "uint256"
        },
        {
          "internalType": "uint256",
          "name": "lastActivityTime",
          "type": "uint256"
        }
      ],
      "stateMutability": "view",
      "type": "function"
    },
    {
      "inputs": [
        {
          "internalType": "string",
          "name": "",
          "type": "string"
        }
      ],
      "name": "usernameToAddress",
      "outputs": [
        {
          "internalType": "address",
          "name": "",
          "type": "address"
        }
      ],
      "stateMutability": "view",
      "type": "function"
    },
    {
      "inputs": [
        {
          "internalType": "string",
          "name": "voucheeUsername",
          "type": "string"
        }
      ],
      "name": "vouchForUser",
      "outputs": [],
      "stateMutability": "nonpayable",
      "type": "function"
    },
    {
      "inputs": [
        {
          "internalType": "address",
          "name": "",
          "type": "address"
        },
        {
          "internalType": "uint256",
          "name": "",
          "type": "uint256"
        }
      ],
      "name": "vouchedBy",
      "outputs": [
        {
          "internalType": "address",
          "name": "",
          "type": "address"
        }
      ],
      "stateMutability": "view",
      "type": "function"
    },
    {
      "inputs": [
        {
          "internalType": "address",
          "name": "",
          "type": "address"
        },
        {
          "internalType": "address",
          "name": "",
          "type": "address"
        }
      ],
      "name": "vouches",
      "outputs": [
        {
          "internalType": "bool",
          "name": "",
          "type": "bool"
        }
      ],
      "stateMutability": "view",
      "type": "function"
    },
    {
      "inputs": [
        {
          "internalType": "address",
          "name": "",
          "type": "address"
        },
        {
          "internalType": "uint256",
          "name": "",
          "type": "uint256"
        }
      ],
      "name": "vouchesGiven",
      "outputs": [
        {
          "internalType": "address",
          "name": "",
          "type": "address"
        }
      ],
      "stateMutability": "view",
      "type": "function"
    },
    {
      "inputs": [
        {
          "internalType": "uint256",
          "name": "amount",
          "type": "uint256"
        },
        {
          "internalType": "enum TrustForge.RiskPool",
          "name": "pool",
          "type": "uint8"
        }
      ],
      "name": "withdrawFromPool",
      "outputs": [],
      "stateMutability": "nonpayable",
      "type": "function"
    }
  ],
  "bytecode": "0x6080346101a157601f6142d638819003918201601f19168301916001600160401b038311848410176101a6578084926020946040528339810103126101a157516001600160a01b038116908190036101a1576001600055331561018b5760018054610100600160a81b0319811633600881811b610100600160a81b031692909217909355604051939291901c6001600160a01b03167f8be0079c531659141344cd1fd0a4f28419497f9722a3daafe3b4186f6b6457e0600080a3603260035560c8600455601e60055561012c6006556103206007556102bc6008556105dc6009556104b0600a556109c4600b55662386f26fc10000600c5562015180600d5562ed4e00600e5562278d00600f556203f480601055670de0b6b3a7640000601155674563918244f400006012556801158e460913d00000601355600160ff196014541617601455670de0b6b3a7640000601555674563918244f400006016556801158e460913d00000601755600560185560018060a01b0319600254161760025561411990816101bd8239f35b631e4fbdf760e01b600052600060045260246000fd5b600080fd5b634e487b7160e01b600052604160045260246000fdfe6080604052600436101561001257600080fd5b60003560e01c80630b337be6146133035780630c2b2176146131725780630d0b2ca6146131545780630de4f25c146130bd5780631c9ab0eb14612fe25780631dd057ef14612fc457806323df015d14612fa657806328fd10d714612f305780633271eb6514612f12578063332d56d714612e4957806335981fd814612be157806336316aec14612bc357806336a94134146128585780633a28d6801461283a5780633f4ba83a146127d1578063536624c3146127b3578063546c0899146127905780635c975abb1461276d5780636010ba6414612682578063612eadb91461243d5780636322961d1461076c57806364b7ae0e146123c35780636c97b13b146123a55780636d7867de1461235c5780636e2ce3b0146122dd5780636f474ab0146122bf578063715018a61461225e57806374c8d37714612241578063772c80d3146122245780637b8c6ab9146122065780638257886d146121e857806383abf414146121855780638456cb591461212c578063888f057f14611fd357806389871aac14611fb557806389d99a0514611f975780638da5cb5b14611f6a5780639549e68214611ef657806395ccea6714611e2657806396fa212f14611e08578063987ee15614611cab5780639a70327d14611c8d5780639af8196914611c4e5780639c847f7414611c305780639d0194fb14611c14578063a5c2fb8214611bd5578063a91a36e914611bb9578063a9a5857814611b9b578063aa452fa6146114a9578063aaaca55814611480578063ab19f095146113ee578063ac03411d146113d0578063b3402bed146113b2578063b3de698114611257578063b75910801461123a578063ba1b1f8914610e99578063ba64983914610e1d578063bbcf9fee14610e00578063be81c4d414610aa8578063c01fa45214610a8a578063c1a287e214610a6c578063cf8f2d3714610a4e578063d8ce1c9c146109be578063e1493c23146109a0578063ef5ed81a1461088b578063f1bbad481461086d578063f20b2be01461084f578063f2fde38b146107b2578063f825f1431461076c578063f966ade71461040c5763fdb4d0461461032957600080fd5b346104075760203660031901126104075760043560038110156104075761034f816133d0565b60005260226020526103646040600020613ab3565b8051602082019081518082116000146103fe5761038091613768565b8251156103f45781519261271084029380850461271014901517156103de576103ad60c094825190613a10565b81519351926040606084015193015193604051958652602086015260408501526060840152608083015260a0820152f35b634e487b7160e01b600052601160045260246000fd5b60c09260006103ad565b50506000610380565b600080fd5b3461040757600036600319011261040757610425613cc5565b61042d613ce7565b336000526019602052604060002060078101805415610763575b506008810161045681546136b5565b9055600a4291015533600052601c602052604060002033600052601960205260406000206005810161048b60ff825416613b5b565b600783018054926104a860ff85166104a2816133d0565b15613b98565b6001850154600280870154600388015491546040516323b872dd60e01b81523360048201523060248201526044810184905293989297919692939260089290921c60ff16919060209084906001600160a01b0316816000816064810103925af19586156107575761055d7faaaf5210d538d86fbb7b5066270ba0845ee01a7ae7406aee269f307e493173d79561054b600199604097600091610728575b5061371d565b33600052601d60205285600020613bf5565b8660ff1982541617905533600052601c6020526105a78360002060076000918281558260018201558260028201558260038201558260048201558260058201558260068201550155565b60ff198154169055600384016105bd81546136b5565b90556105c8816133d0565b8060005260226020526003826000208681016105e58b8254613768565b9055016105f387825461375b565b9055815190868252610604816133d0565b6020820152a10180549033600052601960205260406000206003549060038101546005811015610716575b600a1115610704575b6001019081546103e861064b838361375b565b11156106f35750506103e890555b54604051918252602082015260606040820152601460608201527314dd58d8d95cdcd99d5b081c995c185e5b595b9d60621b60808201527f61e207e3bae74a62e24453d64a564d920b61f71211e255d085d78b5eb2daf13660a03392a2604051928352602083015260408201527f2cebe3c4a7e8e81ca2035a6cb3ee450bb6401d9b6636652e183583f04704957260603392a26001600055005b906106fd9161375b565b9055610659565b90600a81018091116103de5790610638565b91601481018091116103de579161062f565b61074a915060203d602011610750575b61074281836134b9565b810190613705565b8e610545565b503d610738565b6040513d6000823e3d90fd5b42905581610447565b3461040757602061077c366135c7565b81610790604051928381519384920161357f565b601a90820190815281900382019020546040516001600160a01b039091168152f35b34610407576020366003190112610407576107cb613369565b6107d3613d04565b6001600160a01b0381169081156108395760018054610100600160a81b03198116600893841b610100600160a81b031617909155901c6001600160a01b03167f8be0079c531659141344cd1fd0a4f28419497f9722a3daafe3b4186f6b6457e0600080a3005b631e4fbdf760e01b600052600060045260246000fd5b34610407576000366003190112610407576020600f54604051908152f35b34610407576000366003190112610407576020600854604051908152f35b34610407576108993661369b565b916108a2613d04565b80151580610995575b1561095d5781151580610951575b15610919578215158061090e575b156108d757600355600455600555005b60405162461bcd60e51b815260206004820152600f60248201526e496e76616c69642070656e616c747960881b6044820152606490fd5b5060648311156108c7565b60405162461bcd60e51b815260206004820152601060248201526f496e76616c696420646563726561736560801b6044820152606490fd5b506101f48211156108b9565b60405162461bcd60e51b815260206004820152601060248201526f496e76616c696420696e63726561736560801b6044820152606490fd5b5060648111156108ab565b3461040757600036600319011261040757602060405162093a808152f35b34610407576020366003190112610407576001600160a01b036109df613369565b166000526021602052604060002060405190816020825491828152019160005260206000209060005b818110610a2f57610a2b85610a1f818703826134b9565b60405191829182613658565b0390f35b82546001600160a01b0316845260209093019260019283019201610a08565b34610407576000366003190112610407576020601854604051908152f35b34610407576000366003190112610407576020601054604051908152f35b34610407576000366003190112610407576020600754604051908152f35b3461040757602036600319011261040757610ac1613369565b610ac9613cc5565b60018060a01b031680600052601c60205260406000208160005260196020526040600020906005820190610b0060ff835416613b5b565b6007810191825492610b1860ff85166104a2816133d0565b610b2960058401546010549061375b565b421115610dc357610b5360ff60018501549560081c169387600052601d6020526040600020613bf5565b600260ff1982541617905584600052601c602052610b9f604060002060076000918281558260018201558260028201558260038201558260048201558260058201558260068201550155565b60ff19815416905560048301610bb581546136b5565b9055426006840155610bc6816133d0565b8060005260226020526002604060002060018101610be5858254613768565b905580548411610dba57610bfa848254613768565b81555b01610c0983825461375b565b9055836000526020805260406000209160005b858454821015610cb45790600191610c348287613640565b848060a01b0391549060031b1c168060005260196020527f7caec860ecff1e31964884e0cc93ee9f08887814abaf9a298b2464d774fac8f26020610c9e866040600020018054906005548211600014610cab57610c946005548254613768565b81555b5490613768565b604051908152a301610c1c565b60328155610c97565b838382600189018054908260005260196020526040600020600454906001600482015411610d9c575b7fa370a9b28903c6d9b1887a18eb1851893f025fd122e73aa883cd77d080ab831a969360409695937f61e207e3bae74a62e24453d64a564d920b61f71211e255d085d78b5eb2daf13693600160a094019080825411600014610d9257610d44908254613768565b90555b5487519182526020820152606087820152600e60608201526d131bd85b88191959985d5b1d195960921b6080820152a28251918252610d85816133d0565b6020820152a26001600055005b5060329055610d47565b909592949350606486018096116103de579194929386939092610cdd565b60008155610bfd565b60405162461bcd60e51b815260206004820152601560248201527423b930b1b2903832b934b7b2103737ba1037bb32b960591b6044820152606490fd5b3461040757600036600319011261040757602060405161012c8152f35b34610407576020366003190112610407576001600160a01b03610e3e613369565b16600052601c602052604060002060018060a01b0381541690610a2b6001820154916002810154936003820154916004810154600582015490600760068401549301549460405198899860ff808960081c169816968a6133f0565b3461040757610ea7366135c7565b336000526019602052604060002060078101805415611231575b5060088101610ed081546136b5565b9055600a4291015533600052601b602052610ef260ff604060002054166139bd565b6020610f07604051928381519384920161357f565b601a9082019081528190036020019020546001600160a01b031680156111f7573381146111ba5733600052601960205260406000208160005260196020526040600020906101f46001820154106111805760026003820154106111465733600052601f602052604060002060018060a01b03841660005260205260ff6040600020541661110f5760098101805460185411156110d45733600052601f602052604060002060018060a01b0385166000526020526040600020600160ff198254161790558360005260208052610fe0336040600020613b1a565b336000526021602052610ff7846040600020613b1a565b61100181546136b5565b90556001820180548061106457507fa5345fb1e72426f31aeb07e97f01deaae907f89c6eafd33ef8e31520e7032e2491609661105092555b61105f604051928392604084526040840190613a30565b82810360208401523395613a30565b0390a3005b9061012c821061109b575b50506110507fa5345fb1e72426f31aeb07e97f01deaae907f89c6eafd33ef8e31520e7032e2491611039565b9091601e83018093116103de579190556110507fa5345fb1e72426f31aeb07e97f01deaae907f89c6eafd33ef8e31520e7032e2461106f565b60405162461bcd60e51b8152602060048201526013602482015272159bdd58da081b1a5b5a5d081c995858da1959606a1b6044820152606490fd5b60405162461bcd60e51b815260206004820152600f60248201526e105b1c9958591e481d9bdd58da1959608a1b6044820152606490fd5b60405162461bcd60e51b81526020600482015260126024820152714e65656420322b2072657061796d656e747360701b6044820152606490fd5b60405162461bcd60e51b8152602060048201526012602482015271125b9cdd59999a58da595b9d081d1c9d5cdd60721b6044820152606490fd5b60405162461bcd60e51b815260206004820152601560248201527421b0b73737ba103b37bab1b4103cb7bab939b2b63360591b6044820152606490fd5b60405162461bcd60e51b8152602060048201526012602482015271155cd95c9b985b59481b9bdd08199bdd5b9960721b6044820152606490fd5b42905582610ec1565b346104075760003660031901126104075760206040516102588152f35b3461040757600036600319011261040757611270613aef565b50611279613aef565b50611282613aef565b50602260205260026000526101e07fe39b43e4224876d80510ac9d8f190663bcce357e28a4aec26f3bf2e600bb40ec6113b07f52978eb6718a0ed733b71dbb3c4781d6da146a41523832713c09679420d0cac561137b61131361130d6113077fb84cf808d0d5b1ad44962c9bfddd3cfce67763c49ab557cfd0e9f6804faade99613ab3565b95613ab3565b92613ab3565b91611349604051809660808091805184526020810151602085015260408101516040850152606081015160608501520151910152565b805160a0860152602081015160c0860152604081015160e0860152606081015161010086015260800151610120850152565b80516101408401526020810151610160840152604081015161018084015260608101516101a0840152608001516101c0830152565bf35b34610407576000366003190112610407576020601254604051908152f35b34610407576000366003190112610407576020600354604051908152f35b346104075760203660031901126104075760e0611409613369565b6001600160a01b0381166000908152601e6020526040902061142a90613ab3565b8051916020820151916060604082015191015161144683613d30565b9161145961145385613dc6565b94613e3b565b94604051968752602087015260408601526060850152608084015260a083015260c0820152f35b34610407576000366003190112610407576002546040516001600160a01b039091168152602090f35b34610407576040366003190112610407576004356024356114c8613cc5565b6114d0613ce7565b336000526019602052604060002060078101805415611b92575b50600881016114f981546136b5565b9055600a4291015533600052601b60205261151b60ff604060002054166139bd565b33600052601960205260406000209060018201805415611b89575b61153f3361400d565b60ff600584015416611b4457600c548410611b08578115611ac357600d548210611a8957600e548211611a505760048301546119f4575b61157f33613882565b6115c66040602083019384518451835191825260208201527f8ea4f9aee84985ea9687e32c710743b7fdb33bccd7c22f11e49355baea378d3d833392a25492015182613f69565b85116119a3576115d590613fec565b926115df846133d0565b8360005260226020526115fd60406000206001815491015490613768565b6101f48602908682046101f414871517156103de5761162361271061162a93048861375b565b1115613806565b7ff4cc78c04780a7253fdfad7eaf22bee9b5899d532292b8cec625ed2f1b83ea6461166060405192608084526080840190613a30565b91866020820152846040820152611676866133d0565b8560608201528033930390a251336000526019602052604060002061169a846133d0565b83600052602260205260406000209160018201549060006116ba876133d0565b8661197557506006549185600754935b80926116d58a6133d0565b60028a14611922575b50509091801560001461190057505061012c81018091116103de578490915b611706876133d0565b86600052602260205261171c6040600020613ab3565b80516118b0575b5064496cebb80091611744848361174994600197116118a8575b508a6139fd565b6139fd565b04926002611757858961375b565b9333600052601c602052604060002094848060a01b0333166001600160601b0360a01b8754161786558985870155868387015560038601554260048601556117c18860076117a58a4261375b565b97600581019889558a60068201550160ff198154168155613bd6565b600581018460ff19825416179055016117da81546136b5565b9055016117e886825461375b565b905560025460405163a9059cbb60e01b81523360048201526024810187905290602090829060449082906000906001600160a01b03165af180156107575761183791600091611889575061371d565b5490604051948552602085015260408401526060830152611857816133d0565b60808201527f954bb6121734ba1e4a413be1c773173a1abe362c66f47fb0953ce91c49019aa760a03392a26001600055005b6118a2915060203d6020116107505761074281836134b9565b87610545565b90508b61173d565b9091506020810151926064840293808504606414901517156103de5761174464496cebb800936118f5899360056118ee600199611749985190613a10565b049061375b565b955092505091611723565b91929091600019016116fd57919050609681018091116103de578490916116fd565b60c8811015611947575050506101f481018091116103de578590915b919089806116de565b61012c90949293941061195b575b5061193e565b61012c919350809250018091116103de5785909189611955565b5061197f866133d0565b60018603611995576008549185600954936116ca565b600a549185600b54936116ca565b60405162461bcd60e51b815260206004820152602360248201527f416d6f756e7420657863656564732074727573742f6d61747572697479206c696044820152621b5a5d60ea1b6064820152608490fd5b611a056006840154600f549061375b565b42116115765760405162461bcd60e51b815260206004820152601d60248201527f426c6f636b65642064756520746f20726563656e742064656661756c740000006044820152606490fd5b60405162461bcd60e51b81526020600482015260116024820152704475726174696f6e20746f6f206c6f6e6760781b6044820152606490fd5b60405162461bcd60e51b8152602060048201526012602482015271111d5c985d1a5bdb881d1bdbc81cda1bdc9d60721b6044820152606490fd5b60405162461bcd60e51b815260206004820152601760248201527f4475726174696f6e2063616e6e6f74206265207a65726f0000000000000000006044820152606490fd5b60405162461bcd60e51b8152602060048201526014602482015273416d6f756e742062656c6f77206d696e696d756d60601b6044820152606490fd5b60405162461bcd60e51b815260206004820152601760248201527f416c72656164792068617320616374697665206c6f616e0000000000000000006044820152606490fd5b60648155611536565b429055836114ea565b34610407576000366003190112610407576020601354604051908152f35b3461040757600036600319011261040757602060405160648152f35b34610407576020366003190112610407576001600160a01b03611bf6613369565b16600052601b602052602060ff604060002054166040519015158152f35b3461040757600036600319011261040757602060405160328152f35b34610407576000366003190112610407576020600454604051908152f35b34610407576020366003190112610407576060611c71611c6c613369565b613882565b6040805191805183526020810151602084015201516040820152f35b34610407576000366003190112610407576020601154604051908152f35b3461040757602036600319011261040757611dc5611cc7613369565b60018060a01b0381166000526019602052604060002060405190611cea82613480565b611cf3816134db565b8252600181015492602083019384526002820154936040840194855260038301549260608501938452611d7760048201549360808701948552600a60ff6005850154169360a089019415158552600681015460c08a0152600781015460e08a015260088101546101008a015260098101546101208a01520154610140880152613882565b915180611e0257506064945b5195519351925190511515825191611da46040602086015195015188613f69565b94611dae88613fec565b966040519a8b9a6101408c526101408c01906135a2565b9860208b015260408a01526060890152608088015260a087015260c086015260e0850152610100840152611df8816133d0565b6101208301520390f35b94611d83565b34610407576000366003190112610407576020600c54604051908152f35b3461040757604036600319011261040757611e3f613369565b611e8d60243591611e4e613d04565b60015460405163a9059cbb60e01b81526001600160a01b0360089290921c82166004820152602481018590529116929091602090839081906044820190565b03816000875af190811561075757611ed06020927f5fafa99d0643513820be26656b45130b01e1c03062e1266bf36f88cbd3bd969594600091611ed9575061371d565b604051908152a2005b611ef09150843d86116107505761074281836134b9565b86610545565b3461040757611f043661369b565b91611f0d613d04565b81811080611f61575b15611f2657601155601255601355005b60405162461bcd60e51b815260206004820152601360248201527224b73b30b634b210383937b3b932b9b9b4b7b760691b6044820152606490fd5b50828210611f16565b346104075760003660031901126104075760015460405160089190911c6001600160a01b03168152602090f35b34610407576000366003190112610407576020600d54604051908152f35b34610407576000366003190112610407576020600b54604051908152f35b34610407576020366003190112610407576001600160a01b03611ff4613369565b16600052601d602052604060002080549067ffffffffffffffff8211612116576040519161202860208260051b01846134b9565b80835260208301809260005260206000206000915b8383106120f85784866040519182916020830190602084525180915260408301919060005b818110612070575050500390f35b9193509160206101206001926101008751858060a01b038151168352848101518584015260408101516040840152606081015160608401526080810151608084015260a081015160a084015260c081015160c084015260e08101516120d4816133d0565b60e084015201516120e4816133d0565b610100820152019401910191849392612062565b6008602060019261210885613775565b81520192019201919061203d565b634e487b7160e01b600052604160045260246000fd5b3461040757600036600319011261040757612145613d04565b61214d613ce7565b600160ff19815416176001557f62e78cea01bee320cd4e420270b5ea74000d11b0c9f74754ebdbfc544b05a2586020604051338152a1005b346104075760403660031901126104075761219e613369565b6001600160a01b0316600090815260216020526040902080546024359190821015610407576020916121cf91613640565b905460405160039290921b1c6001600160a01b03168152f35b3461040757600036600319011261040757602060405162ed4e008152f35b34610407576000366003190112610407576020600a54604051908152f35b346104075760003660031901126104075760206040516101f48152f35b346104075760003660031901126104075760206040516103e88152f35b3461040757600036600319011261040757612277613d04565b60018054610100600160a81b0319811690915560009060081c6001600160a01b03167f8be0079c531659141344cd1fd0a4f28419497f9722a3daafe3b4186f6b6457e08280a3005b346104075760003660031901126104075760206040516276a7008152f35b34610407576020366003190112610407576001600160a01b036122fe613369565b1660005260208052604060002060405190816020825491828152019160005260206000209060005b81811061233d57610a2b85610a1f818703826134b9565b82546001600160a01b0316845260209093019260019283019201612326565b3461040757604036600319011261040757612375613369565b6001600160a01b03166000908152602080526040902080546024359190821015610407576020916121cf91613640565b34610407576000366003190112610407576020601654604051908152f35b34610407576020366003190112610407576004356003811015610407576123e9816133d0565b600052602260205260406000208054610a2b6001830154926002810154906004600382015491015491604051958695869192608093969594919660a084019784526020840152604083015260608201520152565b346104075761244b3661337f565b612453613cc5565b61245b613ce7565b336000526019602052604060002060078101805415612679575b506008810161248481546136b5565b9055600a4291015533600052601e60205260406000206124a3826133d0565b81600052602260205260406000206124bc8415156136c4565b6124c5836133d0565b8215918215612652578481545b1061260d576004926124f5866124ee8554600187015490613768565b1015613806565b6124fe856133d0565b156125d95761250e858254613768565b90555b61251c848254613768565b81550161252a838254613768565b905560025460405163a9059cbb60e01b81523360048201526024810184905290602090829060449082906000906001600160a01b03165af1801561075757612579916000916125ba575061371d565b604051918252612588816133d0565b60208201527ff6ce689bc8e4650b120db9a6f0de41e34d40c67b5ef3fb1d47a40aa5099057c760403392a26001600055005b6125d3915060203d6020116107505761074281836134b9565b84610545565b6125e2846133d0565b600184036125ff576001016125f8858254613768565b9055612511565b6002016125f8858254613768565b60405162461bcd60e51b815260206004820152601c60248201527f496e73756666696369656e742062616c616e636520696e20706f6f6c000000006044820152606490fd5b61265b846133d0565b6001840361266e578460018201546124d2565b8460028201546124d2565b42905583612475565b34610407576020366003190112610407576001600160a01b036126a3613369565b16600052601c6020526101006126bc6040600020613775565b60208101519060408101519060608101519060a0810191825160c08301519160e0840195612706898851966126f0886133d0565b0151966126fc886133d0565b516010549061375b565b4211968761274f575b506040519788526020880152604087015260608601526080850152612733816133d0565b60a0840152612741816133d0565b60c0830152151560e0820152f35b9096505161275c816133d0565b612765816133d0565b15958961270f565b3461040757600036600319011261040757602060ff600154166040519015158152f35b3461040757600036600319011261040757602060ff601454166040519015158152f35b34610407576000366003190112610407576020601554604051908152f35b34610407576000366003190112610407576127ea613d04565b60015460ff8116156128295760ff19166001557f5db9ee0a495bf2e6ff9c91a7834c1ba4fdd244a5e8aa4e537bd38aeae4b073aa6020604051338152a1005b638dfc202b60e01b60005260046000fd5b3461040757600036600319011261040757602060405162278d008152f35b3461040757612866366135c7565b336000526019602052604060002060078101805415612bba575b506008810161288f81546136b5565b9055600a4291015533600052601b60205260ff60406000205416612b7557805160038110159081612b69575b5015612b2d5760405181519060208301916128d781838561357f565b601a9082019081528190036020019020546001600160a01b0316612af7576128fe82613ea9565b15612ab2573360005260196020526040600020825167ffffffffffffffff81116121165761292c8254613446565b601f8111612a6a575b506020601f82116001146129ff57918161297a94926020946000916129f4575b508160011b916000199060031b1c19161790555b60405180938192865192839161357f565b8101601a81520301902060018060a01b0333166001600160601b0360a01b82541617905533600052601b6020526040600020600160ff198254161790557f4afe13536e3149cddd8c9a8df1580cd5e909fd13c41e7dfead2e38d1141dad5d60405160208152806129ef339460208301906135a2565b0390a2005b905086015187612955565b601f1982169083600052806000209160005b818110612a52575092602094926001928261297a989610612a39575b5050811b019055612969565b88015160001960f88460031b161c191690558780612a2d565b9192602060018192868b015181550194019201612a11565b826000526020600020601f830160051c81019160208410612aa8575b601f0160051c01905b818110612a9c5750612935565b60008155600101612a8f565b9091508190612a86565b60405162461bcd60e51b815260206004820152601760248201527f496e76616c696420757365726e616d6520666f726d61740000000000000000006044820152606490fd5b60405162461bcd60e51b815260206004820152600e60248201526d2ab9b2b93730b6b2903a30b5b2b760911b6044820152606490fd5b60405162461bcd60e51b81526020600482015260146024820152730557365726e616d65206c656e67746820332d32360641b6044820152606490fd5b601491501115826128bb565b60405162461bcd60e51b815260206004820152601b60248201527f557365726e616d6520616c7265616479207265676973746572656400000000006044820152606490fd5b42905582612880565b34610407576000366003190112610407576020601754604051908152f35b3461040757600036600319011261040757612bfa613cc5565b612c02613ce7565b336000526019602052604060002060078101805415612e40575b5060088101612c2b81546136b5565b9055600a4291015533600052601e6020526040600020612c4a33613d30565b90612c5433613dc6565b612c5d33613e3b565b90612c7182612c6c838761375b565b61375b565b938415612e045780612dc5575b5080612d85575b5080612d45575b5060038101612c9c83825461375b565b90554260049182015560025460405163a9059cbb60e01b8152339281019290925260248201839052602090829060449082906000906001600160a01b03165af1801561075757612cf391600091612d26575061371d565b6040519081527ff9984c8173c4b4ff9cc454f76ed19c053f4490ccb224fd9ddffeb4ef4bea353060203392a26001600055005b612d3f915060203d6020116107505761074281836134b9565b83610545565b600260005260226020527f52978eb6718a0ed733b71dbb3c4781d6da146a41523832713c09679420d0cac880549091612d7d91613768565b905582612c8c565b600160005260226020527fe39b43e4224876d80510ac9d8f190663bcce357e28a4aec26f3bf2e600bb40ef80549091612dbd91613768565b905583612c85565b6000805260226020527fb84cf808d0d5b1ad44962c9bfddd3cfce67763c49ab557cfd0e9f6804faade9c80549091612dfc91613768565b905584612c7e565b60405162461bcd60e51b81526020600482015260146024820152734e6f20696e74657265737420746f20636c61696d60601b6044820152606490fd5b42905581612c1c565b34610407576020366003190112610407576001600160a01b03612e6a613369565b166000526019602052612ed66040600020612e84816134db565b906001810154906002810154906003810154600482015460ff600584015416600684015490600785015492600886015494600a6009880154970154976040519b8c9b6101608d526101608d01906135a2565b9960208c015260408b015260608a01526080890152151560a088015260c087015260e08601526101008501526101208401526101408301520390f35b34610407576000366003190112610407576020600554604051908152f35b34610407576020366003190112610407576001600160a01b03612f51613369565b16600052601e60205260406000208054610a2b6001830154926002810154906004600382015491015491604051958695869192608093969594919660a084019784526020840152604083015260608201520152565b34610407576000366003190112610407576020600654604051908152f35b34610407576000366003190112610407576020600954604051908152f35b34610407576060366003190112610407576004356003811015610407576024356044359161300e613d04565b8282101561308b57611388831161305757613028816133d0565b806130365750600655600755005b600190613042816133d0565b0361304f57600855600955005b600a55600b55005b60405162461bcd60e51b815260206004820152600c60248201526b09ac2f040e8dede40d0d2ced60a31b6044820152606490fd5b60405162461bcd60e51b815260206004820152600a602482015269084c2e6ca407840dac2f60b31b6044820152606490fd5b34610407576040366003190112610407576130d6613369565b6001600160a01b03166000908152601d60205260409020805460243590811015610407576131039161339e565b508054600182015460028301546003840154600485015460058601546006870154600790970154604051978897610a2b9760ff600885901c811698941696929593916001600160a01b03168a6133f0565b34610407576000366003190112610407576020600e54604051908152f35b34610407576131803661337f565b613188613cc5565b613190613ce7565b3360005260196020526040600020600781018054156132fa575b50600881016131b981546136b5565b9055600a429101556131cc8215156136c4565b6002546040516323b872dd60e01b81523360048201523060248201526044810184905290602090829060649082906000906001600160a01b03165af180156107575761321f916000916125ba575061371d565b33600052601e60205260046040600020613238836133d0565b826000526022602052604060002090613250846133d0565b836132c45761326085825461375b565b81555b824291015561327384825461375b565b81550161328183825461375b565b9055604051918252613292816133d0565b60208201527f9abec3fd8102ec4f27ec2e0653aaa0b3e91d8291780c0cd5fa27c1596776139360403392a26001600055005b6132cd846133d0565b600184036132eb57600181016132e486825461375b565b9055613263565b600281016132e486825461375b565b429055836131aa565b346104075760403660031901126104075761331c613369565b602435906001600160a01b03821682036104075760018060a01b0316600052601f60205260406000209060018060a01b0316600052602052602060ff604060002054166040519015158152f35b600435906001600160a01b038216820361040757565b6040906003190112610407576004359060243560038110156104075790565b80548210156133ba5760005260206000209060031b0190600090565b634e487b7160e01b600052603260045260246000fd5b600311156133da57565b634e487b7160e01b600052602160045260246000fd5b95926101009794919a9998959261012088019b60018060a01b03168852602088015260408701526060860152608085015260a084015260c0830152613434816133d0565b60e0820152613442836133d0565b0152565b90600182811c92168015613476575b602083101461346057565b634e487b7160e01b600052602260045260246000fd5b91607f1691613455565b610160810190811067ffffffffffffffff82111761211657604052565b60a0810190811067ffffffffffffffff82111761211657604052565b90601f8019910116810190811067ffffffffffffffff82111761211657604052565b90604051918260008254926134ef84613446565b808452936001811690811561355d5750600114613516575b50613514925003836134b9565b565b90506000929192526020600020906000915b8183106135415750509060206135149282010138613507565b6020919350806001915483858901015201910190918492613528565b90506020925061351494915060ff191682840152151560051b82010138613507565b60005b8381106135925750506000910152565b8181015183820152602001613582565b906020916135bb8151809281855285808601910161357f565b601f01601f1916010190565b60206003198201126104075760043567ffffffffffffffff811161040757816023820112156104075780600401359067ffffffffffffffff8211612116576040519261361d601f8401601f1916602001856134b9565b828452602483830101116104075781600092602460209301838601378301015290565b80548210156133ba5760005260206000200190600090565b602060408183019282815284518094520192019060005b81811061367c5750505090565b82516001600160a01b031684526020938401939092019160010161366f565b606090600319011261040757600435906024359060443590565b60001981146103de5760010190565b156136cb57565b60405162461bcd60e51b81526020600482015260126024820152710416d6f756e74206d757374206265203e20360741b6044820152606490fd5b90816020910312610407575180151581036104075790565b1561372457565b60405162461bcd60e51b815260206004820152600f60248201526e151c985b9cd9995c8819985a5b1959608a1b6044820152606490fd5b919082018092116103de57565b919082039182116103de57565b90604051610120810181811067ffffffffffffffff8211176121165760405261010060ff6007839560018060a01b03815416855260018101546020860152600281015460408601526003810154606086015260048101546080860152600581015460a0860152600681015460c086015201548181166137f3816133d0565b60e085015260081c1691613442836133d0565b1561380d57565b60405162461bcd60e51b815260206004820152601b60248201527f496e73756666696369656e7420706f6f6c206c697175696469747900000000006044820152606490fd5b604051906060820182811067ffffffffffffffff8211176121165760405260006040838281528260208201520152565b61388a613852565b5060018060a01b0316600052601960205260406000206040516138ac81613480565b6138b5826134db565b81526001820154602082015260028201546040820152600382015460608201526004820154608082015260ff600583015416151560a0820152600682015460c0820152610140600a60078401549360e0840194855260088101546101008501526009810154610120850152015491015261392d613852565b908051156139a757613940905142613768565b8082526276a7008110613960575060036020820152609660408201525b90565b62278d00811061397c5750600260208201526064604082015290565b62093a801161399657600160208201526032604082015290565b60006020820152601e604082015290565b506000815260006020820152601e604082015290565b156139c457565b60405162461bcd60e51b8152602060048201526011602482015270155cd95c9b985b59481c995c5d5a5c9959607a1b6044820152606490fd5b818102929181159184041417156103de57565b8115613a1a570490565b634e487b7160e01b600052601260045260246000fd5b60009291815491613a4083613446565b8083529260018116908115613a965750600114613a5c57505050565b60009081526020812093945091925b838310613a7c575060209250010190565b600181602092949394548385870101520191019190613a6b565b915050602093945060ff929192191683830152151560051b010190565b90604051613ac08161349d565b608060048294805484526001810154602085015260028101546040850152600381015460608501520154910152565b60405190613afc8261349d565b60006080838281528260208201528260408201528260608201520152565b8054600160401b81101561211657613b3791600182018155613640565b81546001600160a01b0393841660039290921b91821b9390911b1916919091179055565b15613b6257565b60405162461bcd60e51b815260206004820152600e60248201526d27379030b1ba34bb32903637b0b760911b6044820152606490fd5b15613b9f57565b60405162461bcd60e51b815260206004820152600f60248201526e4c6f616e206e6f742061637469766560881b6044820152606490fd5b90613be0816133d0565b61ff0082549160081b169061ff001916179055565b8054600160401b81101561211657613c129160018201815561339e565b919091613caf57808203613c24575050565b60ff6007806135149460018060a01b0360018060a01b03865416166001600160601b0360a01b82541617815560018501546001820155600285015460028201556003850154600382015560048501546004820155600585015460058201556006850154600682015501920181815416613c9c816133d0565b82198454161783555460081c1690613bd6565b634e487b7160e01b600052600060045260246000fd5b600260005414613cd6576002600055565b633ee5aeb560e01b60005260046000fd5b60ff60015416613cf357565b63d93c066560e01b60005260046000fd5b60015460081c6001600160a01b03163303613d1b57565b63118cdaa760e01b6000523360045260246000fd5b6001600160a01b03166000908152601e60205260409020613d5090613ab3565b600080526022602052613d827fb84cf808d0d5b1ad44962c9bfddd3cfce67763c49ab557cfd0e9f6804faade99613ab3565b60808101918251158015613dba575b613db25761395d92916060613daa9251910151906139fd565b905190613a10565b505050600090565b50606082015115613d91565b6001600160a01b03166000908152601e60205260408120613de690613ab3565b90600181526022602052613dfc60408220613ab3565b9160808301918251158015613e2f575b613e28575061395d9260606020613daa930151910151906139fd565b9250505090565b50606084015115613e0c565b6001600160a01b03166000908152601e60205260408120613e5b90613ab3565b90600281526022602052613e7160408220613ab3565b9160808301918251158015613e9d575b613e28575061395d9260606040613daa930151910151906139fd565b50606084015115613e81565b60005b8151811015613f6257600060ff60f81b6020838501015116600360fc1b8110159081613f53575b8115613f2f575b8115613f0b575b8115613efd575b5015613ef75750600101613eac565b91505090565b605f60f81b14905038613ee8565b9050606160f81b81101580613f21575b90613ee1565b50603d60f91b811115613f1b565b9050604160f81b81101580613f45575b90613eda565b50602d60f91b811115613f3f565b603960f81b8111159150613ed3565b5050600190565b606491613f969160ff60145416600014613fc05761012c811015613f9a5750670de0b6b3a76400006139fd565b0490565b6102581115613fb157674563918244f400006139fd565b6801158e460913d000006139fd565b61012c811015613fd357506015546139fd565b6102581115613fe4576016546139fd565b6017546139fd565b6102588110613ffb5750600090565b61012c1161400857600190565b600290565b6001600160a01b03166000818152601960205260409020600a810154801580156140d4575b6140cf5761404462ed4e009142613768565b101561404e575050565b600101805460328111156140a15781546031198101919082116103de57826040927f6f01342a57a245a77a3189f561e580b7ca4a2f9ef9795adbedfed33c35acd8b294555b5482519182526020820152a2565b6040908260647f6f01342a57a245a77a3189f561e580b7ca4a2f9ef9795adbedfed33c35acd8b29455614093565b505050565b5060646001830154111561403256fea264697066735822122038d61ce4e18b9d4919b1d1c5e1bd042e7fca4e26ebbcc49f3001c0efc46a244664736f6c634300081c0033",
  "linkReferences": {},
  "deployedLinkReferences": {}
}